:100000000C94E3020C942A030C942A030C942A0304
:100010000C942A030C942A030C942A030C942A03AC
:100020000C942A030C942A030C9457260C942A2728
:100030000C94781B0C942A030C942A030C942A0326
:100040000C942A030C942A030C942A030C942A037C
:100050000C942A030C94E01B0C942A030C942A039E
:100060000C942A030C942A030C942A030C942A035C
:100070000C942A030C942A030C942A030C942A034C
:100080000C942A030C942A030C942A030C942A033C
:100090000C942A030C942A030C942A030C942A032C
:1000A0000C942A030C942A030C942A0300F03A00BF
:1000B0003B0000201E001F00200021002200230022
:1000C00024002500260027002D002E002A003C00D9
:1000D0003D002B0014001A000800150017001C003A
:1000E00018000C00120013002F00300028003E0002
:1000F0003F00390004001600070009000A000B0049
:100100000D000E000F0033003400320001004000EB
:100110004100E10031001D001B0006001900050030
:100120001100100036003700380052000151420023
:100130004300E000E300E20000002800000001515D
:100140002C000000E600E400500051004F00C35CAA
:10015000C45C350201000100010001000100010042
:10016000010001000100010001000100005C01002C
:100170000100010001000100010001000100010077
:100180000100010001000100010001000100C55C47
:10019000C65C010001000100010001000100010036
:1001A0000100010001000100010001000100C75C25
:1001B000C85C010001000100010001000100010014
:1001C0000100010001000100010001000100C95C03
:1001D000CA5C0100010001000000010000000100F4
:1001E00001000000010001000100010001006801A0
:1001F000F000B40078005A007F3F1F64321464326C
:1002000014783C1E1E140A050000000001010102C2
:1002100002030405050607090A0B0C0E0F11121440
:100220001517191B1D1F212325282A2C2F31343681
:10023000393B3E414346494C4F5255585A5D6164E3
:10024000676A6D707376797C7F8386898C8F9295CF
:10025000989B9EA2A5A7AAADB0B3B6B9BCBEC1C4B7
:10026000C6C9CBCED0D3D5D7DADCDEE0E2E4E6E80F
:10027000EAEBEDEEF0F1F3F4F5F6F8F9FAFAFBFC3F
:10028000FDFDFEFEFEFFFFFFFFFFFFFFFEFEFEFD8A
:10029000FDFCFBFAFAF9F8F6F5F4F3F1F0EEEDEB0C
:1002A000EAE8E6E4E2E0DEDCDAD7D5D3D0CECBC9AB
:1002B000C6C4C1BEBCB9B6B3B0ADAAA7A5A29E9B29
:1002C0009895928F8C898683807C797673706D6A1D
:1002D0006764615D5A5855524F4C494643413E3B15
:1002E000393634312F2C2A282523211F1D1B19179D
:1002F000151412110F0E0C0B0A090706050504034D
:1003000002020101010000000000000000010101E3
:1003100001010101010102020202020202020203C2
:100320000303030303030304040404040405050591
:100330000505060606060607070707080808080950
:1003400009090A0A0A0A0B0B0B0C0C0C0D0D0D0EF9
:100350000E0F0F0F10101111111212131314141588
:100360001516161717181819191A1A1B1C1C1D1DFB
:100370001E1F1F202021222223242525262727284F
:10038000292A2B2B2C2D2E2F2F303132333435367A
:10039000363738393A3B3C3D3E3F40414243444684
:1003A0004748494A4B4C4D4F505152535556575858
:1003B0005A5B5C5E5F606263646667696A6C6D6EFF
:1003C000707173747678797B7C7E80818384868873
:1003D0008A8B8D8F91929496989A9B9D9FA1A3A5AD
:1003E000A7A9ABADAFB1B3B5B7B9BBBDBFC1C4C6AB
:1003F000C8CACCCFD1D3D6D8DADCDFE1E4E6E8EB6B
:10040000EDF0F2F5F7FAFCFF1A034B006F006E00F7
:100410006100200043006C006100730073006900FC
:10042000630000002003440061006E006700650067
:1004300072006F00750073002000500061007200B0
:100440007400730000000403090409026D00040134
:1004500000A0FA09040000010301010009211101B3
:1004600000012240000705810308000A0904010079
:100470000103010200092111010001224D000705BD
:10048000820308000A090402000103000000092198
:10049000110100012236000705830308000A090440
:1004A00003000103000000092111010001223900AD
:1004B000070584032000011201100100000008ED6F
:1004C000FE606003000102000105010906A10105AB
:1004D0000719E029E7150025019508750181020536
:1004E000081901290595057501910295017503917A
:1004F000010507190029F71500250195F8750181F7
:1005000002C005010980A101850216010026030031
:100510001A81002A8300751095018100C0050C091D
:1005200001A1018503160100269C021A01002A9CE4
:1005300002751095018100C005010902A1010901A0
:10054000A100050919012905150025019505750169
:100550008102950175038101050109300931158179
:10056000257F95027508810609381581257F95013B
:1005700075088106050C0A38021581257F950175DD
:10058000088106C0C005010906A101050719E02977
:10059000E71500250195087501810295017508810F
:1005A0000105081901290595057501910295017547
:1005B0000391010507190029FF150026FF00950684
:1005C00075088100C00011241FBECFEFDAE0DEBF46
:1005D000CDBF04B603FE27C08091A8029091A90266
:1005E000A091AA02B091AB028730904BA740B04BCC
:1005F000D1F41092A8021092A9021092AA021092AD
:10060000AB0214BE84B7877F84BF0FB6F894A89559
:1006100080916000886180936000109260000FBE3E
:10062000E0E0FFE3099511E0A0E0B1E0E2EBF2E5E4
:1006300002C005900D92A834B107D9F722E0A8E4D2
:10064000B1E001C01D92A83AB207E1F70E948F23E2
:100650000C9457290C9400000C9433030C9434032D
:100660000C94350308950895089581E00895CF937B
:10067000DF93EC0161111EC00E94311A282F2A7AE3
:100680003A818091020190910301332359F0222392
:1006900039F065E30E94101BDF91CF910C94FE1995
:1006A00069E2F8CF222321F065E30E941B1BF4CFFF
:1006B00069E2FBCFDF91CF91089581E008950E9418
:1006C00080142FEF84E39CE0215080409040E1F7BC
:1006D00000C000000C94061C0F931F93CF93DF9370
:1006E0008C01FC01C081D181CE010E947C19BE0128
:1006F0000E94D305EC01B8010E943003882331F039
:10070000B801CE010E94360881113FC180E0DF911F
:10071000CF911F910F910895F80182818823B1F341
:100720000E945F03F3CFF8018281882379F30E944E
:10073000790CECCFF8018281882341F30E946F0C81
:10074000E5CFF8018281882309F30E946B0BDECF8D
:100750008823E1F20E948A0BD9CF8823B9F20E9444
:10076000A50BD4CFF8018281882381F20E94DA0B95
:10077000CDCFF8018281882349F281E00E94F40BF9
:10078000C5CFF8018281882309F20E94290A6630C8
:1007900071058105910538F00E94290A68307105BC
:1007A0008105910558F286E0E9CFF801828188231E
:1007B00009F4ACCF0E94290A6930710581059105C1
:1007C00040F00E94290A6E3071058105910508F4F8
:1007D000B5CF89E0D3CFF8018281882309F496CF81
:1007E0000E94290A653171058105910540F00E943A
:1007F000290A673171058105910508F49FCF85E1CC
:10080000BDCFF8018281882309F480CF88E1B6CF7B
:10081000F8018281882309F479CF80E00E942224A4
:1008200075CFF8018281882309F470CF82E0F6CF7A
:10083000F8018281882309F4F4C00E948E1A811184
:1008400002C00E946D1A0E94AB1A90E090939A0227
:1008500080939902FE01E350FC45E231F105C0F4BA
:10086000EA5CFB4F809199020C94092954045604C8
:10087000610458045A045C045E0460046304650463
:100880006704720469046B046D046F0471047404DA
:1008900080919902816080939902809199020E94CF
:1008A000AF1A0E94801432CF8260F5CF8460F3CFFC
:1008B0008061F1CF8062EFCF8064EDCF8068EBCFB5
:1008C00084608860E8CF8E7FE6CF8D7FE4CF8B7F1A
:1008D000E2CF8F7EE0CF8F7DDECF8F7BDCCF8F7737
:1008E000DACF8B7F877FD7CF87FB992790F921E0DD
:1008F000922790FB87F9CFCFF8018281882361F09E
:1009000010924D010E94AA1B90934A0180934901C5
:1009100082E00E94B311FACE80914D0181110FC087
:100920008091490190914A010E94B61B883C910533
:1009300030F486E20E94571086E20E94521182E053
:100940000E94BA11E3CE80914E0181110FC08091B7
:100950004B0190914C010E94B61B883C910530F4EC
:1009600087E20E94571087E20E94521180E2E8CF8E
:1009700065E34DC080914801811105C069E2C9015C
:100980000E941B1B47C065E3FACFCA3CFCE5DF07AA
:1009900009F4E8CE08F071C0C33C9CE5D90709F41E
:1009A000C2CE08F045C0C531FCE5DF07C0F4C23057
:1009B0008CE5D80708F03CCFC1159CE5D90709F4B0
:1009C000ABCEC130DC4541F5F8018281882309F4C2
:1009D0009DCE8091010281608093010297CEC53146
:1009E000DC45D1F40E94311A982FF80182812091C0
:1009F000020130910301882309F4BCCF9A7A81E087
:100A000009F480E0809348019111B2CF69E2C901F5
:100A10000E94101B0E94FE1981E080934D0180937B
:100A20004E01C801DF91CF911F910F910C945D038E
:100A3000C63C8CE5D80709F484CE80F4C43CECE5D0
:100A4000DE0709F477CEC53CDC4531F7F801828139
:100A5000882309F45BCE0E94530B58CEF8018281A3
:100A6000C83CFCE5DF0709F478CE08F471CE882392
:100A700009F44CCE0E94BF0B49CEC03DECE5DE0729
:100A800009F4A9CE08F044C0CD3C8CE5D80709F4A0
:100A900078CEF8F4CB3CECE5DE0709F46ACECC3C2A
:100AA000DC4509F0B9CFF8018281882309F42ECE04
:100AB0000E94290A623071058105910540F00E946B
:100AC000290A653071058105910508F437CE82E069
:100AD00055CECE3C8CE5D80709F467CECF3CDC453B
:100AE00009F09ACFF8018281882309F40FCE0E9481
:100AF000290A6F3071058105910540F00E94290A8D
:100B0000643171058105910508F418CE8FE036CE69
:100B1000C33DECE5DE0709F4EFCEF8F4C13D8CE50A
:100B2000D80709F46ECEC23DDC4509F075CFF80157
:100B30008281882309F4EACD0E94290A693171056E
:100B40008105910540F00E94290A623271058105F4
:100B5000910508F4F3CD89E111CEC73DECE5DE0740
:100B600009F456CEC83DFCE5DF0709F45ACEC43D72
:100B7000DC4509F051CFF8018281882309F4E3CEE6
:100B800010924E010E94AA1B90934C0180934B013E
:100B900080E2BFCE0C942C030C942E030C943203F1
:100BA00080E090E00895E72FF0E095E0899FE00D68
:100BB000F11D112484E0EE0FFF1F8A95E1F7E60F87
:100BC000F11DEE0FFF1FE255FF4F8591949108959F
:100BD000FC01EE0FFF1FE455FF4F8591949108959E
:100BE000CF93DF930E94D3050E948807EC01811503
:100BF000904408F091C0C11580E3D80708F005C102
:100C0000C03ED10508F071C0C03CD10508F0E9C074
:100C1000C83AD10580F4C53AD10508F0E9C0C13021
:100C2000D10509F46EC020F0C430D10508F069C0C8
:100C3000C0E0D0E066C0CD3BD105D0F7C83AD105C1
:100C400009F427C1C93AD10509F426C1CA3AD10528
:100C500009F425C1CB3AD10509F424C1CC3AD10518
:100C600009F423C1CB3BD10509F422C1CC3BD1050A
:100C700009F421C1CD3AD10509F420C1C03BD10509
:100C800009F41FC1CE3AD10509F41EC1CF3AD105EE
:100C900009F41DC1C13BD10509F41CC1C23BD105FA
:100CA00009F41BC1C33BD10509F41AC1C43BD105EA
:100CB00009F419C1C53BD10509F418C1C63BD105DA
:100CC00009F417C1C73BD10509F416C1C83BD105CA
:100CD00009F415C1C93BD10509F414C1CA3BD105BA
:100CE00009F413C1C0E0D4E40CC0CF3FD10509F032
:100CF00060F4C03FD10508F086C0C83ED10508F0B9
:100D000097CFCE01DF91CF910895C11520E2D20790
:100D1000C0F3CE019F7068C0C11584E5D807A0F567
:100D2000C11523E5D20708F091C0C11581E5D807A8
:100D300008F5C11520E5D20708F471C0CE0154E0D2
:100D4000969587955A95E1F783709C2F937021E0D3
:100D500030E002C0220F331F9A95E2F73C68382B2F
:100D6000C695C695C37080E2C89FE0011124C22BCE
:100D7000D32BC7CFC11582E5D80708F053C0DC2FAD
:100D8000CC27C16FD06ABDCFC11526E5D20758F474
:100D90009C2F8827C115D54508F46CC0EC01CC27E1
:100DA000DF71D062AECFC11588E5D80708F440CF17
:100DB000C11529E5D20708F461C0CE01905681150E
:100DC000904208F035CF8D2F8F710E940908DD27E2
:100DD000D06290E0982F882788279F71C82BD92B45
:100DE00090CFCE01805C91090E94E805EC0189CF8B
:100DF000C53AD10509F447C0C63AD10509F046C045
:100E0000C2E8D0E47ECFD0657CCFCE019927D3FF56
:100E100003C0EC01D86C75CFEC01D06C72CFDF70E1
:100E2000D06A6FCFCE018370992721E030E002C0F5
:100E3000220F331F8A95E2F7C695C69580E2C89FB8
:100E4000E0011124C22BD32BDC685BCFCE01837071
:100E5000992721E030E002C0220F331F8A95E2F784
:100E6000C695C69580E2C89FE0011124C22BD32B02
:100E7000DA6847CFEC01C46FD06A43CFDC2FCC27B0
:100E8000C06FD06A3ECFC1E8D0E43BCFC3E8D0E426
:100E900038CFC2EED4E435CFC9EED4E432CFCAEEB7
:100EA000D4E42FCFC5EBD4E42CCFC6EBD4E429CFC8
:100EB000C3EBD4E426CFC4EBD4E423CFC7EBD4E414
:100EC00020CFCCECD4E41DCFCDECD4E41ACFC3E8D2
:100ED000D5E417CFCAE8D5E414CFC2E9D5E411CFE1
:100EE000C4E9D5E40ECFC1E2D6E40BCFC3E2D6E429
:100EF00008CFC4E2D6E405CFC5E2D6E402CFC6E20D
:100F0000D6E4FFCEC7E2D6E4FCCECAE2D6E4F9CE00
:100F10008238910549F1B0F48133910509F45AC042
:100F200048F48932910509F450C08A32910509F4D8
:100F300056C008958533910509F442C0893391055F
:100F400099F00895833E910521F138F4803E910592
:100F500081F0823E9105A1F00895863E910501F150
:100F6000873E910531F10895209199022370E1F5B2
:100F700008952091990220FF12C089E390E008951E
:100F80002091990222FF0BC024FF31C080E090E045
:100F900008952091990222FD2DC024FDF7CF0895D8
:100FA0002091990223FFFBCF24FDF0CF87EE90E044
:100FB00008952091990223FFF0CF86EE90E00895E6
:100FC0002091990225FD19C008952091990225FDCF
:100FD00017C008952091990226FD15C0089520910B
:100FE000990226FD13C0089580EE90E0089583EEE7
:100FF00090E0089582EE90E0089589E290E00895EF
:1010000085E390E008958AE290E0089581E390E01E
:10101000C6CFCF93C82F0E94AB1A90E090939A024C
:101020008093990282FF06C09C2F9871983079F4C2
:10103000C77FC46083FF06C09C2F9871983171F4FC
:10104000C77EC46184FDC77E8C2FCF9108959C2FED
:101050009471943079F7CB7FC860ECCF9C2F94715A
:10106000943181F7CB7EC861EDCF08950F931F9324
:10107000CF938C01FB018281811106C0C1E08C2FCE
:10108000CF911F910F910895C0915C01C11125C0AE
:1010900006311C4599F70E94350881E080935C0178
:1010A0000E94AA1B90935B0180935A0110924F01FA
:1010B000109251011092500110925301109252015E
:1010C000109255011092540110925701109256013E
:1010D0001092590110925801D2CF80915A019091EB
:1010E0005B010E94B61B883C910540F680914F0140
:1010F000E82FF0E0EE0FFF1FE05BFE4F118300834F
:101100008F5F80934F01C0E0BACF85B7806885BFFD
:1011100085B7806885BFA5E1B1E061E070E08D91A1
:10112000E82FE295EF70F0E041A18F709B0101C0C4
:10113000220F8A95EAF7922F9095942391A382A18A
:10114000822B82A381E0A532B80749F7A5E2B1E07E
:1011500061E070E08D91E82FE295EF70F0E041A141
:101160008F709B0101C0220F8A95EAF7922F90950C
:10117000942391A382A1822B82A381E0AA32B80793
:1011800049F7E7E6F1E0ADE5B1E081E791E01192E2
:1011900011921D921D928E179F07C9F70C94CA05D4
:1011A0002F923F924F925F926F927F928F929F9277
:1011B000AF92BF92CF92DF92EF92FF920F931F9365
:1011C000CF93DF9325E1C22E21E0D22E00E010E084
:1011D000AA24A394B12C55245394D6018D916D016A
:1011E000E82FE295EF70F0E091A18F70B50101C09A
:1011F000660F8A95EAF7892F862B81A382A1762E26
:101200007094872182A3B0EABA95F1F7A501002E68
:1012100002C0440F551F0A94E2F74A01809490944B
:101220008DE5E82E81E0F82E95E2292E91E0392E09
:10123000E701612C88819981D1014D901D01242DF8
:1012400022952F7030E0D90190962C9130E0B42D8A
:10125000BF7002C035952795BA95E2F720FD56C0BC
:101260009C01242B352B39832883288139818217CF
:10127000930711F066246394229681E0C736D8075D
:10128000C9F681A1782271A282A1682B62A366208F
:1012900041F0509271010E94AA1B909373018093B8
:1012A00072010F5F1F4F0031110509F096CF809139
:1012B00071018823A9F080917201909173010E94BD
:1012C000B61B069768F0E7E6F1E0D7018D919D9196
:1012D0007D0181939193CA17DB07B9F710927101D1
:1012E0000E94CC0581E0DF91CF911F910F91FF907B
:1012F000EF90DF90CF90BF90AF909F908F907F90B6
:101300006F905F904F903F902F9008959C012821FF
:101310003921A9CFE82FF0E0EE0FFF1FE959FE4F6A
:101320008081918108950895CF92DF92EF92FF928C
:101330000F931F93CF93DF93E901662309F469C0EC
:10134000E42EF12CEFEFF0E0E61BF109EE9D8001B9
:10135000EF9D100DFE9D100D1124212FE12FFF2771
:10136000EE1AFF0A5CE3C52ED12CB6010E94E128DB
:10137000FB01BC01E69EC001E79E900DF69E900D1C
:101380001124B6010E94E128E230F105A1F140F4F8
:10139000309779F0319759F180E020E040E00CC0BF
:1013A000E430F10591F168F13597B1F7842F861B90
:1013B00003C0812F262F210FE42FF0E0E85FFC4FC0
:1013C0004491E22FF0E0E85FFC4F9491E82FF0E0C9
:1013D000E85FFC4FE49149839883EA83DF91CF91E2
:1013E0001F910F91FF90EF90DF90CF900895812F84
:1013F000242F461BE1CF862F810FE42F412F2E2F64
:10140000DBCFE42FE61B842FF9CF842F462F410F2B
:10141000D3CF842F242FD0CF88E090E00C941729CD
:10142000AB01BC0188E090E00C943529E1E3F2E0E7
:1014300083E08083109232028FEF828383836091F6
:1014400031027091320280913302909134020C94F7
:10145000100A6091310260FF06C066956F7370E0FC
:1014600080E090E0089560E0FACF8091310280FF43
:1014700006C06EE170E089E392E00C94090FE9E3A5
:10148000F2E0118210821282339682E0E339F8078B
:10149000C1F7EFCFE9E3F2E08183608342833396C3
:1014A00092E0E339F907C1F70C94350AEF92FF9205
:1014B0000F931F93CF93DF9300D01F92CDB7DEB76A
:1014C000182FE92EF62E042F8091310290913202CE
:1014D000A0913302B091340280933502909336028A
:1014E000A0933702B09338028091310280FF1FC071
:1014F0009E012F5F3F4F812F9E2D0E949409809166
:10150000350210FB87F980933502169580913602DB
:101510008078812BE0FA87F980933602F0923702C7
:10152000009338024B8169818A810E944A0A0F9098
:101530000F900F90DF91CF911F910F91FF90EF903F
:1015400008956F927F928F929F92AF92BF92CF92A7
:10155000DF92EF92FF920F931F93CF93DF93EC01F3
:10156000662E742E8091310280FF8EC0982F9E7758
:10157000923079F5CE010E94560A809131029C2F5B
:10158000C0FB87F980933102969580913202807872
:10159000892BD0FB87F980933202609233027092DC
:1015A0003402609131027091320280913302909145
:1015B0003402DF91CF911F910F91FF90EF90DF9058
:1015C000CF90BF90AF909F908F907F906F900C9432
:1015D000100AE82FE695EF739EE39E0F9F739430F9
:1015E00018F470903402C9CF9AE39E0F9F7399301C
:1015F00070F4881F8827881F90913202292F220FAC
:10160000C22FC82B97FB992790F9D92FB6CF87E225
:101610008E0F8F738A3008F0B0CFF0E07997E0FF3B
:1016200031C02FEFEE7FE251FE4F859194916EE134
:1016300070E00E94E12826035001279FB00C11247E
:101640007E0188E9E81A8EEFF80A09E312E083E9DF
:10165000C82E82E0D82E98E6892E99249394C7014B
:10166000B4010E94E1289801472D662D0E9494093B
:10167000EA0CFB1C0D5F1F4FC016D10681F70E94BC
:10168000350A7BCF21E0CECFDF91CF911F910F9113
:10169000FF90EF90DF90CF90BF90AF909F908F9092
:1016A0007F906F900895E1E3F2E02081221F2227CE
:1016B000221F30913202432F440F842F822B37FB9D
:1016C000992790F9059668E671E00E94F528438114
:1016D00062810C94A10A20913102221F2227221F2D
:1016E00030913202432F440F842F822B37FB9927EE
:1016F00090F98530910544F48D599E4F4091340204
:10170000609133020C94A10A059768E671E00E948B
:10171000F528F4CF60913302862F90E0863F910543
:1017200094F4665F80913102881F8827881F90910A
:101730003202292F220F97FB992790F9409134020A
:10174000822B0C94A10A6FEFEDCF60913302862FAC
:1017500090E00A9794F06A5080913102881F8827A0
:10176000881F90913202292F220F97FB992790F919
:1017700040913402822B0C94A10A60E0EDCF40919D
:101780003402842F90E0863F910594F4465F809167
:101790003102881F8827881F90913202292F220F3B
:1017A00097FB992790F960913302822B0C94A10A40
:1017B0004FEFEDCF40913402842F90E00A9794F0E0
:1017C0004A5080913102881F8827881F90913202E9
:1017D000292F220F97FB992790F960913302822BD2
:1017E0000C94A10A40E0EDCF9091310290FF42C0ED
:1017F0009178811126C092609093310260913102FC
:101800007091320280913302909134020E94100A4A
:1018100080913102982F9E779230D9F410928901ED
:10182000881F8827881F90913202292F220F97FB4B
:10183000992790F94091340260913302822B0C94E5
:10184000A10A833210F09464D7CF8F73880F982B3E
:10185000D3CF982F96959F732EE3290F2F7327319F
:1018600020F491E090938901DBCF995D9F739A30CA
:10187000B8F6D4CF0895809101028160809301026F
:1018800081E080938A010E948E1A811104C00E9417
:101890006D1A0E94160A0E940C0A6093310270931E
:1018A000320280933302909334026E7761F40E9487
:1018B000160A0E940C0A60933102709332028093E0
:1018C00033029093340281E0809389018091310248
:1018D00080FF04C086958F730C94F40B089580915B
:1018E000310286958F738F5F833208F081E00C940C
:1018F000F40B80913102982F909590FB80F98093A2
:1019000031026091310270913202809133029091E4
:1019100034020E94100A8091310280FF04C0869533
:101920008F730C94F40B109289012FEF80E792E0F3
:10193000215080409040E1F700C000000C94350A2F
:10194000CF93C82F80918701909188010E94B61B88
:10195000EC2FF0E0EC5FFD4FE491F0E08E179F0775
:1019600018F10E94AA1B9093880180938701E0914F
:101970008601F0E0E85FFD4F449180913102881FBD
:101980008827881F90913202292F220F97FB9927D1
:1019900090F960913302822B0E94560A8091860151
:1019A00090E0019680938601CF910895CF93C82F40
:1019B00080918401909185010E94B61BEC2FF0E08C
:1019C000EF5FFD4FE491F0E08E179F07E8F00E9473
:1019D000AA1B909385018093840140913402609109
:1019E000330280918201909183010E94560A809176
:1019F000820190918301019668E671E00E94E128DE
:101A00009093830180938201CF910895CF92DF92CA
:101A1000FF920F931F93CF93DF93F82E8091800155
:101A2000909181010E94B61BEF2DE695F0E0E25007
:101A3000FE4FE491F0E08E179F07A8F10E94AA1BC9
:101A4000909381018093800109E312E0C0E0D0E02F
:101A500088E6C82EDD24D39480917E0190917F0189
:101A60008C0F9D1FB6010E94E1289801409134021D
:101A7000609133020E9494092C960D5F1F4FC83667
:101A800081E0D80749F70E94350A80917E01909144
:101A90007F01F0FE10C00196BE010E94E1289093E4
:101AA0007F0180937E01DF91CF911F910F91FF9075
:101AB000DF90CF9008950197F2CFCF92DF92EF920F
:101AC000FF920F931F93CF93DF93C82F80FF6EC0B9
:101AD0001FEF80917C0190917D010E94B61BC695FD
:101AE000EC2FF0E0E550FE4FE491F0E08E179F07F9
:101AF00008F453C00E94AA1B90937D0180937C013F
:101B000029E3E22E22E0F22EC0E0D0E0F7011182BC
:101B10001082128294E0C92ED12C00E080917B01CA
:101B2000800F87FD825E082E000C990BC817D9071D
:101B3000E9F4809134028C9DA0018D9D500D1124FB
:101B4000559547955595479580913102881F88276F
:101B5000881F90913202592F550F97FB992790F9C2
:101B6000970160913302852B0E949409010FF1E0E7
:101B7000CF1AD10899F6219683E0E80EF11CCE31F8
:101B8000D10521F60E94350A80917B01113091F434
:101B900081110EC08DE180937B01DF91CF911F9168
:101BA0000F91FF90EF90DF90CF90089511E091CFCB
:101BB0008150F1CF90E00196BE010E94F528EBCF55
:101BC0000F931F93CF93DF93C82F8091790190914A
:101BD0007A010E94B61BEC2FF0E0E850FE4FE49132
:101BE000F0E08E179F0708F452C00E94AA1B909342
:101BF0007A0180937901C9E3D2E0FE01118210825B
:101C00001282339682E0E339F807C1F700E010E072
:101C100080917801082E000C990B08171907E4F140
:101C200080910101082E000C990B80179107A4F1F7
:101C300080913102881F8827881F90913202592F86
:101C4000550F97FB992790F99E01409134026091BE
:101C50003302852B0E9494090F5F1F4F23960E318C
:101C60001105B1F60E94350A80910001909178012A
:101C7000980F9093780120910101280F2093010182
:101C8000121614F49D311CF0819580930001DF91B0
:101C9000CF911F910F910895198218821A82DCCF7B
:101CA000EF92FF920F931F93CF93DF938091760172
:101CB000909177010E94B61B883E9340D0F10E941C
:101CC000AA1B9093770180937601C0917401D09103
:101CD00075012196C170DD27D0937501C093740101
:101CE00089E3E82E82E0F82E10E008E7812F869540
:101CF000FE01E80FF11DCF018170992797014091F6
:101D0000340260913302FC010E9FC0010F9F900DC1
:101D100011240E9494091F5FF3E0EF0EF11C1E31A5
:101D200029F7DF91CF911F910F91FF90EF900C94C5
:101D3000350ADF91CF911F910F91FF90EF90089599
:101D400080918901882391F190913102892F8695A4
:101D50008F732EE3280F2F73243018F482500C94C5
:101D6000A00C2AE3280F2F73233018F486500C940C
:101D7000D60C27E3280F2F73263018F489500C94C3
:101D8000060D21E3280F2F73263018F48F500C9482
:101D90005D0D2BE2280F2F73233018F485510C941E
:101DA000E00D9E77903311F40C94500E089535B1E8
:101DB000242F2095232335B1432B3FB7F894FC0102
:101DC000680F791FE617F70711F43FBF0895819157
:101DD00098E045B9000000C087FF25B9880F0000D2
:101DE00000C000C000C025B900C09A9591F7EACFA5
:101DF00024B1242B24B99B01220F331F620F731FC0
:101E00000E94D70E87EC90E00197F1F700C0000028
:101E1000089544E00C94F80E9093900180938F0104
:101E20000895E0918F01F0919001309721F0019099
:101E3000F081E02D099480E00895E0918F01F09108
:101E40009001309721F00280F381E02D09940895EC
:101E5000E0918F01F0919001309721F00480F5819D
:101E6000E02D0994089520918D0130918E0128175D
:101E7000390771F090938E0180938D01E0918F016D
:101E8000F0919001309721F00680F781E02D0994C0
:101E9000089520918B0130918C012817390771F03A
:101EA00090938C0180938B01E0918F01F0919001D0
:101EB000309721F00084F185E02D0994089508956C
:101EC0000C945F0F81E008950E94A11B0E94850879
:101ED0000E94731C0C943B0C5F926F927F928F92C6
:101EE0009F92AF92BF92CF92DF92EF92FF920F93A9
:101EF0001F93CF93DF93CDB7DEB72A970FB6F89431
:101F0000DEBF0FBECDBF0E94D0080E94620F8111BC
:101F100034C08FEF89838A831B820E94AA1B816051
:101F2000782F9D838C8349815A816B818D810E949A
:101F300029100E94131F0E94110F9091910189177F
:101F400009F471C00E94110F809391012A960FB677
:101F5000F894DEBF0FBECDBFDF91CF911F910F91DF
:101F6000FF90EF90DF90CF90BF90AF909F908F90B9
:101F70007F906F905F900C94CE0592E9A92E91E02E
:101F8000B92E00E010E088248394912C502E802FED
:101F90000E948A097C01F501C190D1905F018C15E6
:101FA0009D0531F40F5F1F4F0530110579F7B1CF53
:101FB0008091010281FD0E94930980E090E0CE248F
:101FC000DF243401082E02C0660C771C0A94E2F765
:101FD000960126213721232B09F18E835F82E6208B
:101FE000F72081E0EF2809F480E088870E94AA1B8F
:101FF0008160782F9A8789874E815F8168858A857D
:102000000E942910000F111FF801EE56FE4F80812B
:10201000918168267926718260828BCF019680310A
:10202000910579F6BFCF2A960FB6F894DEBF0FBEA2
:10203000CDBFDF91CF911F910F91FF90EF90DF9077
:10204000CF90BF90AF909F908F907F906F905F9058
:102050000895CF93DF93CDB7DEB72B970FB6F894E3
:10206000DEBF0FBECDBF4F83588769877A878B87C6
:10207000DE01119686E0FD0111928A95E9F785E06F
:10208000FE01379601900D928A95E1F749815A81B8
:102090006B817C818D819E810E9449172B960FB6A2
:1020A000F894DEBF0FBECDBFDF91CF910895CF93DF
:1020B000C82F882309F4F4C08238B9F40E94110FA4
:1020C00081FDEEC069E380910201909103010E94BD
:1020D000101B0E94FE1969E3809102019091030197
:1020E0000E941B1BCF910C94FE19833879F40E9437
:1020F000110F80FDD5C063E580910201909103012D
:102100000E94101B0E94FE1963E5E6CF843879F423
:102110000E94110F82FDC4C067E48091020190917A
:1021200003010E94101B0E94FE1967E4D5CF8CEFBB
:102130008C0F813A68F48C2F0E9439218111B0C034
:102140006C2F80910201909103010E94101BCACF55
:1021500080E28C0F883048F4C77081E001C0880F9E
:10216000CA95EAF70E94341ABDCF8BE58C0F8330F5
:1021700078F4C53A39F0C63A41F083E890E0CF915F
:102180000C94330F81E890E0FACF82E890E0F7CF2B
:1021900088E58C0F853108F083C0C83A09F441C046
:1021A000C93A09F441C0CA3A09F441C0CB3A09F42A
:1021B00041C0CC3A09F441C0CB3B09F441C0CC3B0F
:1021C00009F441C0CD3A09F441C0C03B09F441C013
:1021D000CE3A09F441C0CF3A09F441C0C13B09F4F9
:1021E00041C0C23B09F441C0C33B09F441C0C43BF8
:1021F00009F441C0C53B09F441C0C63B09F441C0E4
:10220000C73B09F441C0C83B09F441C0C93B09F4CC
:1022100041C0CA3B09F441C080E090E0CF910C94EA
:10222000490F82EE90E0FACF89EE90E0F7CF8AEE88
:1022300090E0F4CF85EB90E0F1CF86EB90E0EECF2D
:1022400083EB90E0EBCF84EB90E0E8CF87EB90E07E
:10225000E5CF8CEC90E0E2CF8DEC90E0DFCF83E82F
:1022600091E0DCCF8AE891E0D9CF82E991E0D6CF46
:1022700084E991E0D3CF81E292E0D0CF83E292E093
:10228000CDCF84E292E0CACF85E292E0C7CF86E26A
:1022900092E0C4CF87E292E0C1CF8AE292E0BECF63
:1022A000CF910895882309F45DC08238B1F40E946B
:1022B000110F81FF57C069E38091020190910301E2
:1022C0000E94101B0E94FE1969E380910201909107
:1022D00003010E941B1B0C94FE19833879F40E94A1
:1022E000110F80FF3FC063E58091020190910301CF
:1022F0000E94101B0E94FE1963E5E7CF843879F431
:102300000E94110F82FF2EC067E48091020190911C
:1023100003010E94101B0E94FE1967E4D6CF9CEFB8
:10232000980F913A10F4682FD0CF90E2980F983020
:1023300050F4877091E001C0990F8A95EAF7892FD0
:102340000E943A1AC8CF9BE5980F933020F480E0A2
:1023500090E00C94330F885A853120F480E090E0AF
:102360000C94490F0895882321F00E94341A0C948C
:10237000FE190895882321F00E943A1A0C94FE1940
:1023800008958F929F92AF92BF92DF92EF92FF9249
:102390000F931F93CF93DF937C01D62FC72FFC01A0
:1023A000058102950F70128111110E94531A0E942B
:1023B000F719D82E882371F0112339F180E28D0F9F
:1023C000883018F182E00E94E0190E94F71991E02C
:1023D000D82ED926BC2EB2948FE0B8228B2D90E057
:1023E000FC01EB50FE4E0C9409290712071246120D
:1023F00046128512C1123512351203133512A1137C
:10240000A1131F14351235122814D12CE3CF8C2FB1
:10241000807FCF70882311F0C295C07F1123A9F06F
:10242000CC2359F080E28D0F883010F0D11109C013
:102430008C2F0E94341A0E94FE198D2F0E94571073
:1024400014C08C2F0E94451AF6CF8D2F0E94521176
:10245000CC2359F080E28D0F883010F0D11112C0DA
:102460008C2F0E943A1A0E94FE1998E0B91609F4BE
:1024700003C1B91608F460C086EF8B0D823008F0F6
:102480005BC0FAC08C2F0E944B1AEDCF8C2F807F3F
:10249000CF70803211F0C295C07FDD2369F0D1305A
:1024A00019F1112361F1002321F1F701858180FFEA
:1024B000C4CF8F7085831DC0112359F08C2F01115B
:1024C00003C00E94B311D1CF0130D9F70E94671A1F
:1024D000CCCF011106C00E946A1A8C2F0E94BA113B
:1024E000C4CF0130C1F7C1CF112329F0063008F065
:1024F000BCCF8C2FE6CF053008F0B7CFEECF00234E
:1025000061F38D2F0E945211B0CF8C2F8695869546
:10251000837059F0813009F0A8CF112379F18D2F04
:102520009C2F93700E94490F07C0112321F18D2F1A
:102530009C2F93700E94330FDD2009F490C10E94FC
:10254000D31980FD8CC1F70112820E94CD190E941F
:10255000E018C7010E943B140E94CD19DF91CF9172
:102560001F910F91FF90EF90DF90BF90AF909F90E1
:102570008F900C94011980E090E0DCCF80E090E037
:10258000D1CF112309F1D53F99F0D63FB9F0D43F0F
:1025900049F4809193029091940281609093940207
:1025A000809393028D2F0E941C1E0E94081FC4CF8F
:1025B00080919302909194028260F0CF8091930277
:1025C000909194028460EACFD53F89F0D63FA9F07C
:1025D000D43F49F480919302909194028E7F90931E
:1025E0009402809393028D2F0E94841EDECF8091EF
:1025F0009302909194028D7FF2CF809193029091FB
:1026000094028B7FECCF8C2F837009F04CC011119A
:1026100033C02D2F229526952770220F220F6D2F64
:102620006F70862E912CA12CB12C022E04C0880C28
:10263000991CAA1CBB1C0A94D2F7D4FF22C06FE0DD
:1026400070E080E090E004C0660F771F881F991F3C
:102650002A95D2F76095709580959095C695C69508
:10266000C370C23091F0C0F4682979298A299B2966
:10267000C130B1F00E9496180E94110F0E94CE0541
:102680005BCF60E070E0CB01E9CF682979298A2926
:102690009B290E94A818F0CF0E949618C501B4018A
:1026A0000E948418E9CF1123C1F18C2F81708823F7
:1026B00019F32D2F229526952770220F220F6D2FAB
:1026C0006F70862E912CA12CB12C022E04C0880C88
:1026D000991CAA1CBB1C0A94D2F7D4FF20C06FE03F
:1026E00070E080E090E004C0660F771F881F991F9C
:1026F0002A95D2F76095709580959095C695C69568
:10270000C370C23081F0B0F4682979298A299B29E5
:10271000C130A1F00E945719AFCF8695C8CF60E0B5
:1027200070E0CB01EBCF682979298A299B290E9487
:102730006919A2CF0E945719C501B4010E94451919
:102740009BCF8D2F90E0FC01E05EF109E531F105B2
:1027500008F061C0E255FC4E0C940929C313C31361
:10276000C313C313C313C313C313C313C313C313B9
:10277000C313C313C313C313C313C313D013DE1381
:10278000E513EC13F613DF708C2F8F71112321F0FA
:102790000E94E0188D2F95CE0E9401198D2F9ECE9C
:1027A000112341F0053008F060CE8C2F8F710E940C
:1027B00024195BCE063008F058CEF7CF112339F03C
:1027C0008C2F8F710E94E01850CE1123C9F38C2FEB
:1027D0008F710E94011949CE112329F08C2F8F711E
:1027E0000E94CB1842CE0E94C6183FCE112349F05A
:1027F000CF718C2F0E94E01863E08C2F0E94D719B4
:1028000034CE81E00E94E019023008F42ECE82E03E
:102810000E94E0192ACE112319F0002389F20DCE6F
:102820000023A9F2D93309F06CCEFFEF27EE83E045
:10283000F15020408040E1F700C0000062CE4C2FF4
:102840004F706D2FC7010E94D0050E94F71774CEFC
:102850004C2F4F706D2FC7010E9437036DCEDF9153
:10286000CF911F910F91FF90EF90DF90BF90AF90AD
:102870009F908F9008950F931F93CF93DF93EC0158
:10288000988189812B813C81232B39F08F3F19F46A
:1028900081E09F3F19F080E001C081E080FD13C01E
:1028A000CE010E946C03882371F0688179818A814E
:1028B0000E94C9198C010E947B190E947218B801EC
:1028C000CE010E94C111DF91CF911F910F91089508
:1028D0000E94531A0E94641A809102019091030190
:1028E0000E94261B0E94FE190E949F1F0E94081F23
:1028F00080E090E00E94330F80E090E00C94490F5C
:102900000E94421A0C9468140E94BE19E92FE295A5
:10291000EF704E2F50E0FA013297EE30F105D8F407
:10292000EC56FB4E0C940929A214A214AB14AB1460
:10293000AD14AB14AB14AB14A214A214B214AB14A8
:10294000AB14B214803F19F020F4803E20F481E0F3
:102950000895843FE1F380E00895803EC0F3813F15
:10296000D1F7F5CF93FB882780F90895CF93DF93B4
:1029700000D000D01F92CDB7DEB70F900F900F9010
:102980000F900F90DF91CF910895CF93DF9300D0F8
:1029900000D000D0CDB7DEB726960FB6F894DEBFD4
:1029A0000FBECDBFDF91CF9108951F93CF93DF93DB
:1029B000C0919C0116E080919D01C81304C0DF9175
:1029C000CF911F910895D0E01C9FF0011D9FF00D45
:1029D0001124E256FE4F40815181628173818481CE
:1029E00095810E94C5142196C770E5CF4091CE0114
:1029F0005091CF016091D0017091D1018091D201AD
:102A00009091D3010C94C5141F93CF93DF938091C1
:102A1000D30182958F70D1F48091D0018823B1F0D9
:102A200080919C01D0919D01B091CE01C091CF01C8
:102A30004091D1015091D201A1E0BF3F09F0A0E047
:102A4000BA016095709516E08D1304C0DF91CF91A7
:102A50001F91089541155105D9F1CF3FD9F120E0DB
:102A600090E020FD3CC0189FF001199FF00D11244B
:102A7000E256FE4F21812C1332C020812B132FC030
:102A8000228121112CC0238134812417350720F1A4
:102A9000241B350B283C310510F52091D3012F70F4
:102AA00020612093D30126E0289FF001299FF00D9B
:102AB0001124ED55FE4F80818F70806180838EECF4
:102AC00091E00E943B14DF91CF911F910C94D5149B
:102AD00021E0C6CF2A2FC4CF260F371FDBCF0196A8
:102AE0008770B2CFAF92BF92CF92DF92EF92FF92F8
:102AF0000F931F93CF93DF93CDB7DEB761970FB6D8
:102B0000F894DEBF0FBECDBF8C0185E0F801DE0179
:102B10001D9601900D928A95E1F7D8014C9111967E
:102B20005C9111971296EC903091CE016091CF019B
:102B30008091D1019091D201009739F06F3F19F443
:102B400021E03F3F19F020E001C021E0B22FB17039
:102B5000BB2E20FD90C1F801C380D480A090D0018D
:102B6000AA2009F432C12091D301C816D90610F168
:102B7000D601A81BB90BCD01FF24F394883C910525
:102B8000F0F0F12C207F09F0E9C07C2DD98AC88AA9
:102B90006E2D89890E94B6148EEC91E00E943B1440
:102BA000EEECF1E086E0DF011D928A95E9F70E94E4
:102BB000F6141EC0809590958C0D9D1DDDCF822F43
:102BC000807F09F084C0651325C0341323C0FE2C18
:102BD000E11020C02F7020612093D3010E94F614D1
:102BE0008EEC91E00E943B148091D301F801858323
:102BF0008F2D61960FB6F894DEBF0FBECDBFDF916B
:102C0000CF911F910F91FF90EF90DF90CF90BF90E9
:102C1000AF900895CD2839F05F3F19F481E04F3F20
:102C200019F080E001C081E080FD24C081E08E25A4
:102C3000F82FF170FF2E80FF3FC080919C01209102
:102C40009D0136E0821318C04D875E878D859E8575
:102C50000E94BE19292F22952F70223008F12430AE
:102C600030F59F7009F1D80115969C91907FE1F4A1
:102C7000FB2CBECF80E0DCCF90E0389FF001399F85
:102C8000F00D1124E256FE4F6181561306C060819B
:102C9000641303C06281E6120FC001968770D2CF21
:102CA0009F7011F0882321F3805E883008F3C801FB
:102CB0000E943B14BF2CDCCFFE2CEE2009F498CFF1
:102CC0008091D30181608093D301F12C91CF651362
:102CD00014C0341312C0E11010C08091D301F80168
:102CE0008583C8010E943B1486E0F801AEECB1E098
:102CF00001900D928A95E1F75ACF4D875E878D85B9
:102D00009E850E948414882309F4BFC0EE2009F434
:102D1000BCC02091D301822F82958F7090E00297E2
:102D200074F08091CE019091CF0198878F8319869E
:102D3000DB86CA862C87CE0107960E943B1486E06C
:102D4000F801AEECB1E001900D928A95E1F70E9496
:102D500004150E94F614FF24F3944ACF651314C09F
:102D6000341312C0E11010C08091D301F8018583A3
:102D7000C8010E943B1486E0EEECF1E0DF011D92F9
:102D80008A95E9F7FA2C34CF4D875E878D859E852D
:102D90000E948414882309F478C0EE2009F475C0D9
:102DA0002091D301822F82958F7090E002973CF2A0
:102DB0008091CE019091CF019A8389831B82DD821D
:102DC000CC822E83CE010196B8CFC816D90680F0EA
:102DD000F601E81BF90BCF01883C910570F0F12C4E
:102DE0007C2DD98AC88A6E2D89890E94B614D8CEC6
:102DF000809590958C0D9D1DEFCFFE2CEE2009F453
:102E000044C0651327C0341325C08091D30180FDD1
:102E100018C0982F92959F70292F30E02115310509
:102E200081F0D80115968C9315972F30310509F450
:102E300058CF9F5F9295907F8F70892B15968C93BA
:102E400050CF86E0F801AEECB1E001900D928A958A
:102E5000E1F7CECE4D875E878D859E850E948414D6
:102E600081116DCF8091D30181608093D301C8011E
:102E70000E943B14BDCEEE2041F04D875E878D85CC
:102E80009E850E94841481115ACFC8010E943B1470
:102E900062CF1F93CF93DF93CDB7DEB72C970FB6DA
:102EA000F894DEBF0FBECDBF4F83588769877A87FE
:102EB0008B879C87CE0107960E947215882349F163
:102EC0009F8188852A853B85232B39F08F3F19F414
:102ED00081E09F3F19F080E001C081E080FD08C0E3
:102EE0004F81588569857A858B859C850E94C5149C
:102EF00016E080919C0190919D01891348C02C9609
:102F00000FB6F894DEBF0FBECDBFDF91CF911F91FA
:102F1000089586E0FE013796DE01119601900D922C
:102F20008A95E1F7FF81E8856A857B8561157105E2
:102F300039F0EF3F19F481E0FF3F19F080E001C064
:102F400081E080FDD5CF20919D0130E0C90101963F
:102F50008770992740919C0150E084179507C9F12B
:102F6000F983EA837D836C8396E0929FD001939FDF
:102F7000B00D1124A256BE4FFE01319601900D9264
:102F80009A95E1F780939D010E94D514B1CF819F5E
:102F9000C001112482569E4F0E947215882309F4A5
:102FA000AECFE0919C011E9FF0011124E256FE4F2E
:102FB0004081518162817381848195810E94C51411
:102FC00080919C0190E001968770992780939C01E5
:102FD00090CF0E94801410929D0110929C01EEEC03
:102FE000F1E086E0DF011D928A95E9F788CFEF9244
:102FF000FF920F931F93CF93DF938C01892B81F066
:10300000F12CEE24E394E8012196F80184918437B1
:1030100070F4843008F062C08130B1F08230B1F1D8
:10302000DF91CF911F910F91FF90EF900895853719
:1030300009F44FC008F43FC09CE7980F903780F721
:103040008F770E9452114CC00E5F1F4FFE0184917A
:1030500090E2980F983060F48770FE2D01C0FF0F4A
:103060008A95EAF78F2F0E94561A0E94FE1902C015
:103070000E9457108F2D882309F4C5CFEFE9FFE098
:103080003197F1F700C000008150F5CF0E5F1F4F60
:10309000FE01849190E2980F983050F48770FE2DD5
:1030A00001C0FF0F8A95EAF78F2F0E945C1ADDCFCF
:1030B0000E945211DFCF0E5F1F4FFE01C491CC233F
:1030C000C9F28FE99FE00197F1F700C00000C150FD
:1030D000F6CF0E5F1F4FFE01F490CCCF0E94571029
:1030E0008E01C8CF089508950C9473180E94741827
:1030F0006093D8017093D9018093DA019093DB013A
:103100000C9468140C9476180F931F930091D801B7
:103110001091D9012091DA013091DB01602B712BE4
:10312000822B932B1F910F910C9476180F931F9362
:103130000091D8011091D9012091DA013091DB0181
:1031400060237123822393231F910F910C9476188F
:103150000F931F930091D8011091D9012091DA01AA
:103160003091DB0160277127822793271F910F91F0
:103170000C9476180E9473186093D4017093D50153
:103180008093D6019093D7010C94681460E070E0AE
:10319000CB010C94BA180F931F9341E050E060E00C
:1031A00070E08A019B0104C0000F111F221F331F12
:1031B0008A95D2F7C901B8011F910F910C94BA18E2
:1031C0000F931F9341E050E060E070E004C0440FB3
:1031D000551F661F771F8A95D2F78091D401909171
:1031E000D501A091D601B091D7018A019B01082B8E
:1031F000192B2A2B3B2BC901B8011F910F910C945D
:10320000BA180F931F9341E050E060E070E004C0F3
:10321000440F551F661F771F8A95D2F7CB01BA015D
:1032200060957095809590950091D4011091D5018D
:103230002091D6013091D7016023712382239323FB
:103240001F910F910C94BA180F931F9341E050E017
:1032500060E070E004C0440F551F661F771F8A9519
:10326000D2F78091D4019091D501A091D601B0916F
:10327000D7018A019B01082719272A273B27C90163
:10328000B8011F910F910C94BA180F931F930091DE
:10329000D4011091D5012091D6013091D701602B36
:1032A000712B822B932B1F910F910C94BA180F93B3
:1032B0001F930091D4011091D5012091D601309136
:1032C000D70160237123822393231F910F910C94C4
:1032D000BA180F931F930091D4011091D50120913A
:1032E000D6013091D70160277127822793271F913C
:1032F0000F910C94BA180895BF92CF92DF92EF927B
:10330000FF920F931F93CF93DF938C01C090D40152
:10331000D090D501E090D601F090D7018091D801EE
:103320009091D901A091DA01B091DB01C82AD92A84
:10333000EA2AFB2ACFE1D0E0BC2ED701C6010C2E31
:1033400004C0B695A795979587950A94D2F780FD06
:103350000EC0219788F7B12C8B2DDF91CF911F9153
:103360000F91FF90EF90DF90CF90BF900895B8013C
:103370008C2F0E94F005019761F3EECFCF93DF937E
:10338000EC010E947C19BE010E94F005DF91CF91F3
:103390000895CB010E94BE1908958091DC018595A6
:1033A0008595859508958091DC018770089598E052
:1033B000899F90011124622B6093DC010C94E0182A
:1033C0002091DC01809582238093DC01982F9770F7
:1033D00069F430E0482F082E000C550B24173507F0
:1033E00029F08595859585950C94011908959091FE
:1033F000DC01977081E009F480E00895E09102011A
:10340000F0910301809100028083E0910201F0912C
:10341000030180819091FF01892B8083E09102015B
:10342000F091030180819091FE01892B808390911E
:10343000DD01992381F0E0910201F0910301808187
:10344000892B808380910201909103010E94B41A1C
:1034500081111092DD0180910201909103010C9481
:103460001D0F80910002089590910002892B809396
:1034700000020895982F90958091000289238093EF
:10348000000208951092000208959091FF01892B87
:103490008093FF010895982F90958091FF018923D3
:1034A0008093FF0108951092FF0108959091FE010D
:1034B000892B8093FE010895982F90958091FE01AD
:1034C00089238093FE0108951092FE010895809350
:1034D000DD0108951092DD0108956DEE7EEF80E02C
:1034E00090E00E94412960E082E090E00E94232960
:1034F00060E083E090E00E94232960E084E090E0B7
:103500000E94232960E085E090E00E94232940E0AA
:1035100050E0BA0188E090E00C94352980E090E01A
:103520000E941D2921E08D3E9E4F09F020E0822F50
:10353000089582E090E00C940F29682F82E090E0DB
:103540000C94232983E090E00C940F29682F83E0EA
:1035500090E00C94232984E090E00C940F29682FCC
:1035600084E090E00C942329FC0131969C01205EBC
:103570003F4F80E0919191118F5FE217F307D1F7F0
:1035800008959C01FC0132969FEF80E0419146171F
:1035900051F09F3F19F4411101C0982F8F5F8E3178
:1035A000A9F79F3F09F40895290F311D97FD3A951A
:1035B000F90162830895FC013296809620812613DA
:1035C00001C010823196E817F907C1F70895262F38
:1035D0002695269526952F3169F0FC01E20FF11D05
:1035E000677021E030E001C0220F6A95EAF781811F
:1035F000822B81830895262F2695269526952F3197
:1036000071F0FC01E20FF11D677021E030E001C0B4
:10361000220F6A95EAF72095818128232183089556
:1036200020911401222329F02091990227FD0C9466
:10363000E71A0C94C11A20911401222329F0209139
:10364000990227FD0C94FB1A0C94DB1AFC013196AD
:1036500080961192E817F907E1F7089580919F028B
:10366000843039F11092020220E488E190E00FB634
:10367000F894A895809360000FBE2093600080E0CE
:103680000E94CE0583B7817F846083BF83B781604A
:1036900083BF7894889583B78E7F83BF0FB6F894E5
:1036A000A89580916000886180936000109260000E
:1036B0000FBE089508950C945A1BCF930E945B1B74
:1036C0000E94D0080E945A1BC0E08C2F0E948A09D9
:1036D000892B31F4CF5FC530C1F780E0CF910895D9
:1036E00081E0FCCF0E9480140E94110F0C94CE0543
:1036F0001F920F920FB60F9211248F939F93AF9347
:10370000BF9380910202811113C080919502909124
:103710009602A0919702B09198024196A11DB11D09
:103720008093950290939602A0939702B09398028B
:10373000BF91AF919F918F910F900FBE0F901F90EF
:10374000189582E084BD93E095BD9AEF97BD809374
:103750006E0008952FB7F89480919502909196028B
:10376000A0919702B09198022FBF0895CF92DF9257
:10377000EF92FF920F931F932FB7F8944091950209
:103780005091960260919702709198022FBF6A0142
:103790007B01EE24FF248C0120E030E0C016D1062E
:1037A000E206F30650F0481B590BCA011F910F9116
:1037B000FF90EF90DF90CF90089541505109F3CFE3
:1037C00078941F920F920FB60F9211248F939F93AC
:1037D000AF93BF938091950290919602A09197022A
:1037E000B09198020196A11DB11D8093950290930E
:1037F0009602A0939702B0939802BF91AF919F91C8
:103800008F910F900FBE0F901F9018950E94DC258E
:10381000F8942FEF87EA91E6215080409040E1F73D
:1038200000C0000087E090EBDC018093A802909339
:10383000A902A093AA02B093AB029CE088E10FB664
:10384000F894A895809360000FBE90936000FFCF1E
:10385000AF92BF92CF92DF92EF92FF920F931F939E
:10386000CF93C0E0CC24C394D12CE82EF12C8C2F24
:103870000E948A095C0100E010E0C601002E02C02F
:10388000880F991F0A94E2F78A219B21892B99F4CA
:103890000F5F1F4F0031110581F7CF5FC53039F73A
:1038A00080E0CF911F910F91FF90EF90DF90CF902C
:1038B000BF90AF900895602F7C2F80E00E94D305C9
:1038C000E816F90629F781E0ECCFCF93C82F8CE2F8
:1038D0000E94281C882321F08C2FCF910C94281C47
:1038E00080E0CF910895CF930E948E1A811102C07B
:1038F0000E946D1AC5E6C15009F0E9C089E20E9434
:10390000651C811118C18AE20E94651C81110E9408
:103910006D1A85E00E94651C81110E94061C0E94A0
:10392000991A8093010287E00E94651C882389F020
:103930008BE10E94651C882309F4D2C080910102AA
:1039400081FB992790F921E0922790FB81F98093E0
:103950000102809101020E949D1A0E94AB1A90E020
:1039600090939A028093990280EE0E94651C8823AE
:1039700041F080919902982F909590FB80F9809367
:10398000990289E30E94651C882359F0809199026D
:1039900081FB992790F921E0922790FB81F9809390
:1039A000990282EE0E94651C882359F08091990249
:1039B00082FB992790F921E0922790FB82F980936E
:1039C000990286EE0E94651C882359F08091990225
:1039D00083FB992790F921E0922790FB83F980934C
:1039E000990283EE0E94651C882359F08091990208
:1039F00084FB992790F921E0922790FB84F980932A
:103A0000990285E30E94651C882359F080919902F0
:103A100085FB992790F921E0922790FB85F9809307
:103A2000990281E30E94651C882359F080919902D4
:103A300086FB992790F921E0922790FB86F98093E5
:103A4000990281E10E94651C882359F080919902B6
:103A500087FB992790F921E0922790FB87F98093C3
:103A60009902809199020E94AF1A87E20E94651C18
:103A7000C82F8EE10E94651C8111C2608FE10E94F7
:103A8000651C8111C46080E20E94651C8111C860C0
:103A900081E20E94651C8111C06182E20E94651C66
:103AA0008111C06283E20E94651C8111C06484E2BE
:103AB0000E94651C8823C9F1C0688C2F0E94A61A39
:103AC0006C2F70E080E090E0CF910C9482180E94FF
:103AD000D0088FE39CE90197F1F700C000000BCFFD
:103AE0008EE00E94651C882351F08091010282FBC8
:103AF000992790F921E0922790FB82F928CF80E165
:103B00000E94651C90910102882351F093FB882745
:103B100080F921E0822780FB93F99093010219CF6D
:103B2000892F809580FB90F9F8CFC111C6CF0E94F4
:103B3000A21A682FC6CFCF9108958091050280FF09
:103B400012C06091070185E0689FB001112475954E
:103B500067957595679560387105A8F561157105CC
:103B600081F581E0089581FF09C06091070185E03A
:103B7000689FB001112475956795EDCF82FF07C04E
:103B80006091070185E0689FB0011124E4CF909116
:103B900006029923A1F060910601961788F72091FB
:103BA000070185E0289F90011124929FA001939F17
:103BB000500D112470E0CA010E94F528CCCF65E0B9
:103BC00070E0862F08958FE708958091050280FFA9
:103BD0000CC06091050170E07595679575956795C6
:103BE0006115710539F581E0089581FF06C0609186
:103BF000050170E075956795F3CF82FF08C060916D
:103C0000050170E06038710558F38FE708958091E1
:103C10000602882369F060910401861780F790916D
:103C20000501899FC001112470E00E94F528EACFA8
:103C300061E070E0862F0895803F31F40E949D1D61
:103C40008195809309020895813F19F40E949D1D7A
:103C5000F8CF823F31F40E949D1D81958093080228
:103C60000895833F19F40E949D1DF8CF893F29F4E0
:103C70000E94E51D80930A0208958A3F21F40E9464
:103C8000E51D8195F7CF8B3F31F40E94E51D8195AD
:103C900080930B0208958C3F19F40E94E51DF8CF24
:103CA000843F31F480910702816080930702089578
:103CB000853F21F4809107028260F7CF863F21F48F
:103CC000809107028460F1CF873F21F48091070241
:103CD0008860EBCF883F21F4809107028061E5CFB7
:103CE0008D3F31F480910502816080930502089533
:103CF0008E3F21F4809105028260F7CF8F3FB9F7A4
:103D0000809105028460F1CF803FC1F48091090267
:103D100087FD109209028091080281110EC08091E6
:103D2000090281110AC080910A02811106C08091A6
:103D30000B02811102C0109206020895813F29F4FE
:103D40008091090218162CF3E6CF90910802823F69
:103D500029F497FFE0CF10920802DDCF833F19F4DA
:103D60001916CCF3D8CF893F39F480910A0218167E
:103D700094F610920A02CFCF8A3F29F480910A026A
:103D800087FFC9CFF6CF8B3F39F480910B0287FFB5
:103D9000C2CF10920B02BFCF8C3F29F480910B024F
:103DA0001816BCF3B8CF843F31F4809107028E7FA0
:103DB00080930702B0CF853F21F4809107028D7F69
:103DC000F7CF863F21F4809107028B7FF1CF873FA9
:103DD00021F480910702877FEBCF883F21F4809107
:103DE00007028F7EE5CF8D3F31F4809105028E7FF3
:103DF0008093050290CF8E3F21F4809105028D7F44
:103E0000F7CF8F3F09F087CF809105028B7FF0CFEE
:103E100087E092E00E94280F0E94AA1B9093040260
:103E20008093030208951F93CF93DF938091030241
:103E3000909104020E94B61BAC0190910602992356
:103E4000D1F02091080130E04217530780F08091B3
:103E50000802C0910902D0910A0210910B0281114F
:103E600011C0C11168C0D11166C0111164C0DF91C9
:103E7000CF911F910895209109018AE0289F900118
:103E80001124E2CF9F3F19F09F5F9093060218160E
:103E900024F40E949D1D809308028091080287FFF0
:103EA00005C00E949D1D8195809308021C1624F474
:103EB0000E949D1D809309028091090287FF05C021
:103EC0000E949D1D81958093090240910802442320
:103ED00079F030910902332359F025EB4203A00118
:103EE00011245093080232039001112430930902E7
:103EF0001D1624F40E94E51D80930A0280910A0297
:103F000087FF05C00E94E51D819580930A02111666
:103F100024F40E94E51D80930B0280910B0287FF21
:103F200005C00E94E51D819580930B02DF91CF9122
:103F30001F910C94081F9F3F09F0A6CFB7CFE7E071
:103F4000F2E085E0DF011D928A95E9F71092060202
:103F5000109205020895833081F128F4813059F0E0
:103F60008230D1F00895853009F449C0B8F1863027
:103F700009F456C0089580910901262F30E0280FDA
:103F8000311D2F3F310524F4680F60930901089516
:103F90008FEF80930901089580910801262F30E06A
:103FA000280F311D2F3F310524F4680F609308015D
:103FB00008958FEF80930801089580910701262FBF
:103FC00030E0280F311D2F3F310524F4680F609336
:103FD000070108958FEF80930701089580910601EE
:103FE000262F30E0280F311D2F3F310524F4680FB4
:103FF0006093060108958FEF8093060108958091E4
:104000000501262F30E0280F311D2F3F310524F404
:10401000680F6093050108958FEF8093050108955F
:1040200020910401862F90E0820F911D8F3F910512
:1040300024F4620F6093040108958FEF80930401CC
:104040000895833011F128F4813049F0823091F0E5
:104050000895853081F120F18630C1F10895809175
:104060000901681720F4861B8093090108951092B6
:104070000901089580910801681720F4861B809338
:1040800008010895109208010895809107016817AA
:1040900020F4861B8093070108951092070108956C
:1040A00080910601681720F4861B8093060108950D
:1040B00010920601089580910501681720F4861B6F
:1040C00080930501089510920501089580910401DF
:1040D000681720F4861B8093040108951092040150
:1040E00008950F931F9341E050E060E070E08A0173
:1040F0009B0104C0000F111F221F331F8A95D2F7A6
:10410000C901B8010E9482181F910F910C9480146C
:104110008B3109F46EC060F58E3009F47BC078F401
:10412000873009F457C028F4863009F449C080E08C
:104130000895883011F08B30D1F781E008958131F6
:1041400009F476C080F4803191F78091010283FBFD
:10415000992790F921E0922790FB83F9809301023F
:1041600083FD54C0EACF863141F3893131F3DFCF8B
:10417000853351F058F4873239F020F48E31B8F29B
:104180008D5165C0893299F680E061C0833430F486
:104190008A3308F05BC0883381F2C9CF8334A1F33E
:1041A000883429F60E9480142FEF83ED90E321508C
:1041B00080409040E1F700C000000E94061CBDCF87
:1041C00080910102817F8E7F8093010281E0809344
:1041D0000D02089580910102982F909590FB80F92F
:1041E0008093010280FDA9CF897F877F80930102A0
:1041F000A4CF8091010281FB992790F921E09227B9
:1042000090FB81F98093010281FF97CF8091010299
:104210008160ECCF8091010282FB992790F921E027
:10422000922790FB82F98093010282FDEFCF85CF28
:104230000E9480148091990287FB992790F921E0D0
:10424000922790FB87F98093990277CF89530E9438
:10425000712073CF80E008950C942A218E518A300A
:1042600030F4E82FF0E0E65DFE4F8081089580E0B5
:104270000895CF93C82F80910D028130C9F030F09E
:104280008230D9F110920D0280E010C0E09102015D
:10429000F091030180818232B9F78C2F0E942C218A
:1042A00081111BC08C2F0E9488208170CF910895AE
:1042B000E0910201F09103018081823271F38C2F31
:1042C0000E942A21811110C0C43181F048F4CB3002
:1042D00059F0C03171F080E0E8CF81E090E0E5CFA7
:1042E000C93221F0C833B9F781E0DFCF10920D0257
:1042F000F2CF82E080930D02F7CFC93219F188F432
:10430000C43101F120F4C73081F181E0CFCF82EEDA
:104310008C0F8630D0F78C2F0E942E2180930C02B8
:10432000F4CFCE3401F120F4CB3479F76AE005C044
:10433000C13599F0C23549F761E080910C020E94C5
:10434000AB1FE3CF80910C02882319F010920C026E
:10435000DCCF81E080930D02A9CF61E080910C0257
:104360000E942120D2CF6AE0F9CF8EE1809309012B
:1043700082E3809308018AE08093070184E18093BF
:10438000060188E08093050188E280930401BDCF97
:1043900080912E0208950F931F93CF93DF9300D047
:1043A0001F92CDB7DEB78C010E943224823011F00B
:1043B000843019F583E089831B830A838093E900A5
:1043C0008FEF9091E800815095FD06C095ED9A958C
:1043D000F1F700008111F5CF8091E80085FF0DC055
:1043E00040E050E063E070E0CE0101960E944F246F
:1043F0008091E8008E778093E8000F900F900F90E7
:10440000DF91CF911F910F910895CF93DF9300D04B
:104410001F92CDB7DEB720919F02243031F522E004
:104420002983805891099B838A8383E08093E900E4
:104430008FEF9091E800815095FD06C095ED9A951B
:10444000F1F700008111F5CF8091E80085FF0DC0E4
:1044500040E050E063E070E0CE0101960E944F24FE
:104460008091E8008E778093E8000F900F900F9076
:10447000DF91CF910895CF93DF93EC010E94322416
:10448000823011F08430F9F482E08093E9008FEFFC
:104490009091E800815095FD06C095ED9A95F1F751
:1044A00000008111F5CF8091E80085FF0CC040E04D
:1044B00050E065E070E0CE010E944F248091E8005A
:1044C0008E778093E800DF91CF910895CF93DF93AB
:1044D000EC010E943224823011F0843079F5809111
:1044E0001401882371F18091990287FF2AC084E02A
:1044F0008093E9008FEF9091E800815095FD06C010
:1045000095E19A95F1F700008111F5CF8091E800CF
:1045100085FF14C040E050E060E270E0CE010E94F0
:104520004F248091E8008E778093E80080E2FE01BE
:10453000AEE0B2E001900D928A95E1F7DF91CF9164
:10454000089581E08093E9008FEF9091E800815019
:1045500095FD06C095ED9A95F1F700008111F5CF14
:104560008091E80085FFEACF40E050E068E070E02D
:10457000D5CF80919E02811109C00E94DC250E9446
:1045800039268091E20084608093E20008951092C1
:104590009E020895089508950C94721B42E061EC08
:1045A00081E00E94592542E061EC82E00E94592599
:1045B00042E061EC83E00E94592542E261EC84E034
:1045C0000C9459258091A102833009F455C030F430
:1045D000813071F1823009F491C008958A3009F474
:1045E0007DC08B3009F463C0893009F044C08091EC
:1045F000A002813209F03FC08091A4029091A502EF
:10460000009711F00397B9F58091E800877F8093B8
:10461000E8008091E80082FF2AC08091F100809339
:104620002E028091E8008B778093E8000C948E2511
:104630008091A002813AF9F48091E800877F80930D
:10464000E8008091A4029091A502892B61F460E2B8
:104650008EE092E070E00E949E248091E8008B77CB
:104660008093E800089560E080E090E0F3CF8091CF
:104670009F028111CECF08958091A002813AD9F78F
:104680008091A4029091A502892BA9F78091E8005E
:10469000877F8093E8008091E80080FFFCCF8091C5
:1046A00014018093F1008091E8008E77BDCF809156
:1046B000A002813201F78091A4029091A502892B7A
:1046C000D1F68091E800877F8093E8000E948E25D4
:1046D0008091A202809314010C9480148091A00216
:1046E000813249F68091E800877F8093E8000E943C
:1046F0008E258091A30280932F0208958091A002BD
:10470000813A09F0B8CF8091E800877F8093E80074
:104710008091E80080FFFCCF80912F02C2CF84B748
:10472000877F84BF0FB6F894A89580916000886158
:1047300080936000109260000FBE80E8809361005B
:10474000109261000E94600F0E94DC250E943926B1
:104750008091E20084608093E20078940E94C528F2
:104760000E94640F8AE091E00E940C0F80919F02EA
:10477000853029F00E946C0F0E94A00EF7CF0E9496
:104780002E1B80919D02882389F30E945D1B882344
:1047900069F30E943924EACF292F332723303105CA
:1047A00079F158F421303105F1F02230310519F159
:1047B00080E090E020E030E01AC02132310599F12C
:1047C00022323105A9F76430710590F7FB01EE0F35
:1047D000FF1FE85CFE4F208131816C5C7E4FFB0146
:1047E000808190E004C082E190E027EB34E0FA01A0
:1047F0003183208308958DE690E02AE434E0F7CFFA
:1048000099278130910561F028F0029789F6E8E058
:10481000F4E002C0E6E4F4E0849190E09F01E7CF89
:10482000E4E2F4E0F9CF6430710508F0C1CF660F1F
:10483000771FFB01E05CFE4F2081318189E090E031
:10484000D6CF0895CF93C82F0E942124C093300261
:10485000CF91089580919F02843011F081E00895F6
:1048600082E0089580913002811102C00C942A24C4
:10487000089580E189BD82E189BD09B400FEFDCFC4
:104880008091D8008F7D8093D8008091E000826075
:104890008093E0008091E00081FDFCCF0895AF920D
:1048A000BF92DF92EF92FF920F931F93CF93DF930C
:1048B000EC018B017A010E94AD25D82E811124C014
:1048C000E114F10439F0F70180819181081B190B83
:1048D000C80FD91FA12CB12C01151105A9F0809189
:1048E000E80085FD22C08091E8008E778093E80083
:1048F000E114F104A1F0F70180819181A80EB91EA5
:10490000B182A08285E0D82E8D2DDF91CF911F91AD
:104910000F91FF90EF90DF90BF90AF9008950E94AD
:10492000AD258823C9F2D82EEFCF89918093F1006D
:1049300001501109FFEFAF1ABF0ACECF2091A60296
:104940003091A70226173707A8F06115710529F4E1
:104950002091E8002E772093E800FC0120E061150B
:10496000710551F4211108C08091E80082FF33C025
:1049700080E00895B901F1CF80919F028823B9F1B9
:104980008530B9F18091E80083FD2FC08091E80067
:1049900082FDEACF8091E80080FFE1CF2091F30013
:1049A0008091F20090E0922B6115710519F088302A
:1049B000910550F021E0089709F020E08091E8008F
:1049C0008E778093E800CBCF21912093F100615046
:1049D00071090196E9CF80919F02882341F08530CB
:1049E00041F08091E80083FFBFCF81E0089582E02D
:1049F000089583E008952091A6023091A70226171A
:104A00003707A8F06115710529F42091E8002E7789
:104A10002093E800FC0120E06115710551F421119B
:104A200008C08091E80082FF34C080E00895B90199
:104A3000F1CF80919F028823C1F18530C1F180912F
:104A4000E80083FD30C08091E80082FDEACF8091CC
:104A5000E80080FFE1CF2091F3008091F20090E028
:104A6000922B6115710519F08830910550F021E005
:104A7000089709F020E08091E8008E778093E800A5
:104A8000CBCF24912093F1003196615071090196AA
:104A9000E8CF80919F02882341F0853041F08091DA
:104AA000E80083FFBECF81E0089582E0089583E0AF
:104AB0000895982F973028F08F708093E90081E057
:104AC00008959093E900981751F07091EC002091AF
:104AD000ED005091F00021FD06C09F5FEBCF242F29
:104AE000762F50E0F8CF3091EB003E7F3093EB0013
:104AF0003091ED003D7F3093ED003091EB0031605F
:104B00003093EB007093EC002093ED005093F00095
:104B10002091EE0027FDE1CF80E008958091A00272
:104B200087FF13C08091E80082FF06C08091E800F3
:104B30008B778093E80004C080919F028111F2CFAF
:104B4000089580919F028823D9F38091E80080FF27
:104B5000F8CF8091E8008E77ECCF2091E40030917F
:104B6000E50085E69091EC0090FD20C09091E80072
:104B700092FD20C090919F02992391F0953091F081
:104B80009091EB0095FD10C04091E4005091E5003C
:104B90004217530739F381509A0121F784E00895B1
:104BA00082E0089583E0089581E008959091E800FF
:104BB00090FFE0CF80E008950E944A260E9452268E
:104BC000E0EEF0E0808181608083E8EDF0E08081BC
:104BD0008F77808319BCA7EDB0E08C918E7F8C938A
:104BE00080818F7E808310929E0208950F931F9381
:104BF000CF93DF930E944A260E945226C8EDD0E050
:104C000088818F77888388818068888388818F7D79
:104C1000888319BC10929F0210929B0210929D02F1
:104C200010929C0200EE10E0F80180818B7F80835F
:104C300088818160888342E060E080E00E9459259D
:104C4000E1EEF0E080818E7F8083E2EEF0E0808113
:104C500081608083808188608083F80180818E7F7D
:104C60008083888180618883DF91CF911F910F912C
:104C70000895E8EDF0E080818F7E8083E7EDF0E03D
:104C800080818160808384E082BF81E080939E0286
:104C90000C94F625E8EDF0E080818E7F8083109201
:104CA000E20008951092DA001092E10008951F9238
:104CB0000F920FB60F9211242F933F934F935F9350
:104CC0006F937F938F939F93AF93BF93EF93FF93D4
:104CD0008091E10082FF0BC08091E20082FF07C05B
:104CE0008091E1008B7F8093E1000E94C428809135
:104CF000DA0080FF19C08091D80080FF15C0809134
:104D0000DA008E7F8093DA008091D90080FF94C012
:104D100080E189BD82E189BD09B400FEFDCF81E05B
:104D200080939F020E94B9228091E10080FF19C008
:104D30008091E20080FF15C08091E2008E7F809319
:104D4000E2008091E20080618093E2008091D800CF
:104D500080628093D80019BC85E080939F020E94F6
:104D6000CB228091E10084FF29C08091E20084FF82
:104D700025C080E189BD82E189BD09B400FEFDCF77
:104D80008091D8008F7D8093D8008091E1008F7E44
:104D90008093E1008091E2008F7E8093E200809119
:104DA000E20081608093E20080919B02882309F4F5
:104DB00049C084E080939F020E94CC228091E10050
:104DC00083FF29C08091E20083FF25C08091E1002C
:104DD000877F8093E10082E080939F0210929B0284
:104DE0008091E1008E7F8093E1008091E2008E7FD0
:104DF0008093E2008091E20080618093E20042E0D3
:104E000060E080E00E9459258091F00088608093E6
:104E1000F0000E94CA22FF91EF91BF91AF919F9144
:104E20008F917F916F915F914F913F912F910F9053
:104E30000FBE0F901F90189519BC10929F020E94F0
:104E4000C72272CF8091E30087FD02C081E0B2CF1C
:104E500083E0B0CF1F920F920FB60F9211242F93C1
:104E60003F934F935F936F937F938F939F93AF93F2
:104E7000BF93CF93EF93FF93C091E900CF708091E0
:104E8000EC001092E9008091F000877F8093F000A1
:104E900078940E9466271092E9008091F000886063
:104EA0008093F000C093E900FF91EF91CF91BF9103
:104EB000AF919F918F917F916F915F914F913F91B2
:104EC0002F910F900FBE0F901F9018951F93CF93A7
:104ED000DF93CDB7DEB7AA970FB6F894DEBF0FBE4B
:104EE000CDBFE0EAF2E08091F100819322E0E83A60
:104EF000F207C9F70E94E2228091E80083FF46C0D2
:104F00008091A0029091A102492F50E04A305105B2
:104F100008F03CC0FA01E157F84D0C940929992793
:104F2000BF27C627BF27C6271D284028C627972882
:104F3000A428803889F0823849F58091A4028F70C6
:104F4000873020F58093E9008091EB0085FB88276E
:104F500080F91092E90006C080919C0290919D0218
:104F6000911182609091E800977F9093E800809380
:104F7000F1001092F1008091E8008E772DC0282F6B
:104F80002D7F21F48823D1F0823059F18091E800FF
:104F900083FF0AC08091E800877F8093E8008091BA
:104FA000EB0080628093EB00AA960FB6F894DEBF08
:104FB0000FBECDBFDF91CF911F9108958091A202C6
:104FC000813021F7933009F080E080939D021092A8
:104FD000E9008091E800877F8093E8000E948E2599
:104FE000D5CF8091A2028111F2CF8091A4028F705F
:104FF0002FEF280F263050F68093E9002091EB0028
:1050000020FFE5CF933031F48091EB0080628093F4
:10501000EB00DDCF9091EB0090619093EB0021E0ED
:1050200030E001C0220F8A95EAF72093EA0010923F
:10503000EA008091EB008860EACF8111A7CF109140
:10504000A2021F778091E3008078812B8093E30098
:105050008091E800877F8093E8000E948E258091F0
:10506000E80080FFFCCF8091E30080688093E3003C
:10507000111104C082E080939F0288CF83E0FBCFB0
:105080008058823008F082CF8091A2029091A302D2
:105090008C3D23E09207A1F583E08A838AE289832D
:1050A0004FB7F894DE01139620E03EE051E2E32F83
:1050B000F0E050935700E49120FF03C0E295EF70B9
:1050C0003F5FEF708E2F90E0EA30C0F0C7968D936F
:1050D0009D932F5F243159F74FBF8091E800877F60
:1050E0008093E8006AE270E0CE0101960E949E245F
:1050F0008091E8008B778093E80048CFC096E7CF97
:105100006091A4027091A502AE014F5F5F4F0E94B3
:10511000CC23BC01892B09F439CF9091E800977F0B
:105120009093E80089819A810E94FB24E1CF803826
:1051300009F02CCF8091E800877F8093E800809170
:105140009B028093F10017CF811120CF9091A20292
:10515000923008F01BCF8091E800877F8093E800B1
:1051600090939B020E948E2580919B02882311F0D0
:1051700084E005C08091E30087FDFACF81E0809351
:105180009F020E94CE2202CF0895CF9380919F026A
:10519000882399F0C091E900CF708091EC0080FDE8
:1051A0000EC080E0C82B1092E9008091E80083FDDA
:1051B0000E946627CF70C093E900CF91089580E8E0
:1051C000F1CFAA1BBB1B51E107C0AA1FBB1FA6172B
:1051D000B70710F0A61BB70B881F991F5A95A9F7A0
:1051E00080959095BC01CD01089597FB072E16F48C
:1051F000009407D077FD09D00E94E12807FC05D074
:105200003EF4909581959F4F0895709561957F4FDD
:105210000895EE0FFF1F0590F491E02D0994F99980
:10522000FECF92BD81BDF89A992780B50895A6E179
:10523000B0E044E050E00C944929A8E1B0E042E03D
:1052400050E00C944929262FF999FECF92BD81BDDB
:10525000F89A019700B4021639F01FBA20BD0FB6B4
:10526000F894FA9AF99A0FBE08950396272F0E9490
:1052700024290E942329252F0E942429242F0C94BD
:1052800024290196272F0E9424290C942329DC012C
:10529000CB01FC01F999FECF06C0F2BDE1BDF89A41
:1052A000319600B40D9241505040B8F70895F894EB
:0252B000FFCF2E
:1052B2000102DE012808140A321EC82166223B229E
:1052C2000522CB2101F0F4353497963031339237F1
:1052D2009091936667F1F5F6F7360102030405062D
:1052E20007080900404D3639850538050205C9040D
:0852F2005C0475048E04A7049E
:00000001FF
