:100000000C9493020C94DA020C94DA020C94DA0247
:100010000C94DA020C94DA020C94DA020C94DA02F0
:100020000C94DA020C94DA020C9410220C94E32261
:100030000C94961A0C94DA020C94DA020C94DA02FC
:100040000C94DA020C94DA020C94DA020C94DA02C0
:100050000C94DA020C94FE1A0C94DA020C94DA0274
:100060000C94DA020C94DA020C94DA020C94DA02A0
:100070000C94DA020C94DA020C94DA020C94DA0290
:100080000C94DA020C94DA020C94DA020C94DA0280
:100090000C94DA020C94DA020C94DA020C94DA0270
:1000A0000C94DA020C94DA020C94DA02F1A2028ABD
:1000B00039A2088A00F001F002F003F004F005F024
:1000C00006F007F008F03A003B0029001E001F0070
:1000D0002000210022002300240025002600270004
:1000E0002D002E002A003C003D002B0014001A00B9
:1000F0000800150017001C0018000C001200130067
:100100002F00300031003E003F0001510400160076
:10011000070009000A000B000D000E000F0033005D
:1001200034002800010040004100E10001001D00F2
:100130001B000600190005001100100036003700F2
:1001400038005200015142004300E000E300E200A9
:1001500000002C000000E60028000000E70001512C
:10016000500051004F00042005203502010001001D
:100170000100010001000100010001000100010077
:1001800001000100005C010001000100010001000C
:100190000100010001000100010001000100010057
:1001A00001000100010006200720010001000100FC
:1001B0000100010001000100010001000100010037
:1001C00001000100010008200920010001000100D8
:1001D0000100010001000100010001000100010017
:1001E0000100010001000A200B20010001000100B4
:1001F00000000100000001000100000001000100FA
:100200000100010001006801F000B40078005A000C
:10021000643214643214783C1E1E140A0500000077
:10022000000101010202030405050607090A0B0C7F
:100230000E0F1112141517191B1D1F212325282A13
:100240002C2F313436393B3E414346494C4F5255B1
:10025000585A5D6164676A6D707376797C7F8386B6
:10026000898C8F9295989B9EA2A5A7AAADB0B3B694
:10027000B9BCBEC1C4C6C9CBCED0D3D5D7DADCDEBB
:10028000E0E2E4E6E8EAEBEDEEF0F1F3F4F5F6F89F
:10029000F9FAFAFBFCFDFDFEFEFEFFFFFFFFFFFF8C
:1002A000FFFEFEFEFDFDFCFBFAFAF9F8F6F5F4F3AD
:1002B000F1F0EEEDEBEAE8E6E4E2E0DEDCDAD7D5F9
:1002C000D3D0CECBC9C6C4C1BEBCB9B6B3B0ADAA3B
:1002D000A7A5A29E9B9895928F8C898683807C7916
:1002E0007673706D6A6764615D5A5855524F4C4918
:1002F0004643413E3B393634312F2C2A28252321D1
:100300001F1D1B1917151412110F0E0C0B0A0907CC
:1003100006050504030202010101000000000000BF
:1003200000000101010101010101010202020202BA
:10033000020202020303030303030303040404048D
:100340000404050505050506060606060707070752
:10035000080808080909090A0A0A0A0B0B0B0C0C01
:100360000C0D0D0D0E0E0F0F0F101011111112129A
:1003700013131414151516161717181819191A1A15
:100380001B1C1C1D1D1E1F1F202021222223242573
:100390002526272728292A2B2B2C2D2E2F2F3031AD
:1003A0003233343536363738393A3B3C3D3E3F40C0
:1003B00041424344464748494A4B4C4D4F505152A5
:1003C00053555657585A5B5C5E5F6062636466675C
:1003D000696A6C6D6E707173747678797B7C7E80DF
:1003E00081838486888A8B8D8F91929496989A9B2C
:1003F0009D9FA1A3A5A7A9ABADAFB1B3B5B7B9BB3D
:10040000BDBFC1C4C6C8CACCCFD1D3D6D8DADCDF11
:10041000E1E4E6E8EBEDF0F2F5F7FAFCFF1A034B46
:10042000006F006E006100200043006C00610073EB
:100430000073006900630000002003440061006E47
:10044000006700650072006F0075007300200050A7
:1004500000610072007400730000000403090409C5
:10046000023B00020100A0FA09040000010301019F
:100470000009211101000122400007058103080045
:100480000A09040100010300000009211101000113
:10049000223900070582032000011201100100002B
:1004A0000008EDFE6060030001020001050109067D
:1004B000A101050719E029E7150025019508750137
:1004C000810205081901290595057501910295011B
:1004D000750391010507190029F71500250195F805
:1004E00075018102C005010906A101050719E0296E
:1004F000E7150025019508750181029501750881B0
:1005000001050819012905950575019102950175E7
:100510000391010507190029FF150026FF00950624
:1005200075088100C00011241FBECFEFDAE0DEBFE6
:10053000CDBF04B603FE27C0809177029091780268
:10054000A0917902B0917A028730904BA740B04BCE
:10055000D1F41092770210927802109279021092E0
:100560007A0214BE84B7877F84BF0FB6F894A8952B
:1005700080916000886180936000109260000FBEDF
:10058000E0E0FFE3099511E0A0E0B1E0E4E2FAE485
:1005900002C005900D92A432B107D9F722E0A4E27F
:1005A000B1E001C01D92A737B207E1F70E94461FD4
:1005B0000C9410250C9400000C94CE070C94F302BC
:1005C0000C9469030895611107C0FC01828188239E
:1005D00031F085EE0E94D40F80E090E0089585EE22
:1005E0000E94CF10F9CF0895CF93DF93EC01862FAF
:1005F00090E08930910508F067C0FC01EE5FFC4F88
:100600000C94C2240B033F0313031B0323032A038D
:100610003103380346038A81882309F455C0DF91EA
:10062000CF910C94ED0B8A81882309F44DC0DF91A2
:10063000CF910C94C70A8A81882309F445C0DF91C1
:10064000CF910C94DF0A8A818823F1F1DF91CF9159
:100650000C94FE0A8A818823B9F1DF91CF910C9422
:10066000190B8A81882381F1DF91CF910C94330B90
:100670008A81882349F1DF91CF910C944E0B8A81B6
:10068000882311F1DF91CF910C94E30B0E944F1955
:10069000282F22723A818091010190910201332327
:1006A00059F0222339F065E30E942E1ADF91CF9191
:1006B0000C941C1969E2F8CF222321F065E30E9413
:1006C000391AF4CF69E2FBCFDF91CF91089581E031
:1006D000089581E008950E9490132FEF84E39CE039
:1006E000215080409040E1F700C000000C94241B92
:1006F0000F931F93CF93DF938C01FC01C081D181B5
:10070000CE010E948C18BE010E940905EC01B801BF
:100710000E94E002882331F0B801CE010E947E07DA
:100720008111EEC080E0DF91CF911F910F9108956C
:10073000F80182818823B1F30E946B03F3CFF801A3
:100740008281882379F30E94ED0BECCFF80182813E
:10075000882341F30E94E30BE5CFF80182818823CF
:1007600009F30E94DF0ADECF8823E1F20E94FE0A2D
:10077000D9CF8823B9F20E94190BD4CFF801828116
:10078000882381F20E944E0BCDCFF801828188230D
:1007900049F280E00E94DB1FC5CFF80182818823E7
:1007A00009F4EEC00E94AC19811102C00E948B199D
:1007B0000E94C91990E09093690280936802FE013B
:1007C000E350FC45E231F105C0F4E551FC4F809166
:1007D00068020C94C22409040B0416040D040F04CF
:1007E00011041304150418041A041C0427041E041D
:1007F00020042204240426042904809168028160D4
:1008000080936802809168020E94CD190E94901323
:1008100089CF8260F5CF8460F3CF8061F1CF8062B1
:10082000EFCF8064EDCF8068EBCF84608860E8CF45
:100830008E7FE6CF8D7FE4CF8B7FE2CF8F7EE0CFC0
:100840008F7DDECF8F7BDCCF8F77DACF8B7F877F7B
:10085000D7CF87FB992790F921E0922790FB87F962
:10086000CFCFF8018281882361F0109228010E9485
:10087000C81A909325018093240182E00E943011D0
:1008800051CF8091280181110FC080912401909156
:1008900025010E94D41A883C910530F486E20E941A
:1008A000D40F86E20E94CF1082E00E9437113ACF27
:1008B000F8018281882351F0109229010E94C81A00
:1008C000909327018093260180E2D8CF809129015F
:1008D00081110FC080912601909127010E94D41AA6
:1008E000883C910530F487E20E94D40F87E20E9491
:1008F000CF1080E2DACFCDEDD8E134C085E337C048
:10090000C33CFCE5DF0709F428CF08F050C0C5312F
:100910009CE5D907C0F4C230ECE5DE0708F03DCF16
:10092000C115FCE5DF0709F403CFC130DC4519F53B
:10093000F8018281882309F4F5CE8091DC01816081
:100940008093DC01EFCEC03C9CE5D90709F4F7CEDB
:10095000F0F4C531DC4579F4F80182818111CBCF07
:10096000C4EED8E10E944F198A7A41F689E2FE016D
:1009700009950E941C1981E0809328018093290128
:10098000C801DF91CF911F910F910C946703C13C77
:100990008CE5D80709F4DACEC23CDC4561F7F801F2
:1009A0008281882309F4BECE0E94C70ABBCEC73C11
:1009B000ECE5DE0709F4E2CE78F4F8018281C53C6B
:1009C000FCE5DF0709F4D5CE08F4CECE882309F480
:1009D000A9CE0E94330BA6CEC93CECE5DE0709F494
:1009E00067CF08F43ECFCC3C8CE5D80709F4CDCED8
:1009F000CD3CDC4509F0BFCFF8018281882309F4A2
:100A000091CE82E0C7CE0C94DC020C94DE020C94F2
:100A1000E202E72FF0E095E0899FE00DF11D11243F
:100A200084E0EE0FFF1F8A95E1F7E60FF11DEE0F50
:100A3000FF1FEA53FF4F859194910895FC01EE0F3B
:100A4000FF1FE455FF4F859194910895CF93DF9355
:100A500025E0829FF0011124E70FF11D74E0EE0FF5
:100A6000FF1F7A95E1F7E60FF11DEE0FFF1FEA5326
:100A7000FF4F859194910E94D006EC01C11580E44E
:100A8000D80708F091C0C11590E3D90708F005C157
:100A9000C03ED10508F071C0C03CD10508F0E9C0E6
:100AA000C83AD10580F4C53AD10508F0E9C0C13093
:100AB000D10509F46EC020F0C430D10508F069C03A
:100AC000C0E0D0E066C0CD3BD105D0F7C83AD10533
:100AD00009F427C1C93AD10509F426C1CA3AD1059A
:100AE00009F425C1CB3AD10509F424C1CC3AD1058A
:100AF00009F423C1CB3BD10509F422C1CC3BD1057C
:100B000009F421C1CD3AD10509F420C1C03BD1057A
:100B100009F41FC1CE3AD10509F41EC1CF3AD1055F
:100B200009F41DC1C13BD10509F41CC1C23BD1056B
:100B300009F41BC1C33BD10509F41AC1C43BD1055B
:100B400009F419C1C53BD10509F418C1C63BD1054B
:100B500009F417C1C73BD10509F416C1C83BD1053B
:100B600009F415C1C93BD10509F414C1CA3BD1052B
:100B700009F413C1C0E0D4E40CC0CF3FD10509F0A3
:100B800060F4C03FD10508F086C0C83ED10508F02A
:100B900097CFCE01DF91CF910895C11520E2D20702
:100BA000C0F3CE019F7068C0C11584E5D807A0F5D9
:100BB000C11593E5D90708F091C0C11521E5D20709
:100BC00008F5C11580E5D80708F471C0CE0154E0DE
:100BD000969587955A95E1F783709C2F937021E045
:100BE00030E002C0220F331F9A95E2F73C68382BA1
:100BF000C695C695C37080E2C89FE0011124C22B40
:100C0000D32BC7CFC11592E5D90708F053C0DC2F0D
:100C1000CC27C16FD06ABDCFC11526E5D20758F4E5
:100C20009C2F8827C115D54508F46CC0EC01CC2752
:100C3000DF71D062AECFC11588E5D80708F440CF88
:100C4000C11599E5D90708F461C0CE019056811508
:100C5000904208F035CF8D2F8F710E945107DD270C
:100C6000D06290E0982F882788279F71C82BD92BB6
:100C700090CFCE01805C91090E941E05EC0189CFC6
:100C8000C53AD10509F447C0C63AD10509F046C0B6
:100C9000C2E8D0E47ECFD0657CCFCE019927D3FFC8
:100CA00003C0EC01D86C75CFEC01D06C72CFDF7053
:100CB000D06A6FCFCE018370992721E030E002C067
:100CC000220F331F8A95E2F7C695C69590E2C99F19
:100CD000E0011124C22BD32BDC685BCFCE018370E3
:100CE000992721E030E002C0220F331F8A95E2F7F6
:100CF000C695C69580E2C89FE0011124C22BD32B74
:100D0000DA6847CFEC01C46FD06A43CFDC2FCC2721
:100D1000C06FD06A3ECFC1E8D0E43BCFC3E8D0E497
:100D200038CFC2EED4E435CFC9EED4E432CFCAEE28
:100D3000D4E42FCFC5EBD4E42CCFC6EBD4E429CF39
:100D4000C3EBD4E426CFC4EBD4E423CFC7EBD4E485
:100D500020CFCCECD4E41DCFCDECD4E41ACFC3E843
:100D6000D5E417CFCAE8D5E414CFC2E9D5E411CF52
:100D7000C4E9D5E40ECFC1E2D6E40BCFC3E2D6E49A
:100D800008CFC4E2D6E405CFC5E2D6E402CFC6E27E
:100D9000D6E4FFCEC7E2D6E4FCCECAE2D6E4F9CE72
:100DA0008238910549F1B0F48133910509F45AC0B4
:100DB00048F48932910509F450C08A32910509F44A
:100DC00056C008958533910509F442C089339105D1
:100DD00099F00895833E910521F138F4803E910504
:100DE00081F0823E9105A1F00895863E910501F1C2
:100DF000873E910531F10895209168022370E1F555
:100E000008952091680220FF12C089E390E00895C0
:100E10002091680222FF0BC024FF31C080E090E0E7
:100E200008952091680222FD2DC024FDF7CF08957A
:100E30002091680223FFFBCF24FDF0CF87EE90E0E6
:100E400008952091680223FFF0CF86EE90E0089588
:100E50002091680225FD19C008952091680225FDA2
:100E600017C008952091680226FD15C008952091AD
:100E7000680226FD13C0089580EE90E0089583EE89
:100E800090E0089582EE90E0089589E290E0089560
:100E900085E390E008958AE290E0089581E390E090
:100EA000C6CFCF93C82F0E94C91990E090936902D2
:100EB0008093680282FF06C09C2F9871983079F465
:100EC000C77FC46083FF06C09C2F9871983171F46E
:100ED000C77EC46184FDC77E8C2FCF9108959C2F5F
:100EE0009471943079F7CB7FC860ECCF9C2F9471CC
:100EF000943181F7CB7EC861EDCF08950F931F9396
:100F0000CF938C01FB018281811106C0C1E08C2F3F
:100F1000CF911F910F910895C0913701C11125C044
:100F200006311C4599F70E947D0781E080933701C7
:100F30000E94C81A909336018093350110922A01BD
:100F400010922C0110922B0110922E0110922D0163
:100F50001092300110922F01109232011092310143
:100F60001092340110923301D2CF809135019091CB
:100F700036010E94D41A883C910540F680912A01DE
:100F8000E82FF0E0EE0FFF1FE55DFE4F11830083B9
:100F90008F5F80932A01C0E0BACF08950C94CD07EB
:100FA00085B7806885BF85B7806885BFAEE0B1E052
:100FB00061E070E08D91E82FE295EF70F0E041A1E3
:100FC0008F709B0101C0220F8A95EAF7922F9095AE
:100FD000942391A382A1822B82A381E0AE31B80732
:100FE00049F7AEE1B1E061E070E08D91E82FE29564
:100FF000EF70F0E041A18F709B0101C0220F8A9534
:10100000EAF7922F9095942391A382A1822B82A339
:1010100081E0A332B80749F7E2E4F1E0A8E3B1E0E8
:101020008CE491E0119211921D921D928E179F07F0
:10103000C9F70C9403052F923F924F925F926F92E3
:101040007F928F929F92AF92BF92CF92DF92EF9258
:10105000FF920F931F93CF93DF932EE0C22E21E0D8
:10106000D22E00E010E0AA24A394B12C552453946E
:10107000D6018D916D01E82FE295EF70F0E091A11E
:101080008F70B50101C0660F8A95EAF7892F862B0C
:1010900081A382A1762E7094872182A3B0EABA95AB
:1010A000F1F7A501002E02C0440F551F0A94E2F784
:1010B0004A018094909488E3E82E81E0F82E9EE126
:1010C000292E91E0392EE701612C88819981D10187
:1010D0004D901D01242D22952F7030E0D90190965E
:1010E0002C9130E0B42DBF7002C035952795BA958C
:1010F000E2F720FD56C09C01242B352B3983288331
:10110000288139818217930711F06624639422960F
:1011100081E0C234D807C9F681A1782271A282A1E8
:10112000682B62A3662041F050924C010E94C81ABD
:1011300090934E0180934D010F5F1F4F00311105B9
:1011400009F096CF80914C018823A9F080914D0140
:1011500090914E010E94D41A069768F0E2E4F1E003
:10116000D7018D919D917D0181939193CA17DB07E2
:10117000B9F710924C010E94050581E0DF91CF91F3
:101180001F910F91FF90EF90DF90CF90BF90AF90A5
:101190009F908F907F906F905F904F903F902F9097
:1011A00008959C0128213921A9CFE82FF0E0EE0F06
:1011B000FF1FEE5BFE4F808191810895089535B148
:1011C000242F2095232335B1432B3FB7F894FC01FE
:1011D000680F791FE617F70711F43FBF0895819153
:1011E00098E045B9000000C087FF25B9880F0000CE
:1011F00000C000C000C025B900C09A9591F7EACFA1
:1012000024B1242B24B99B01220F331F620F731FBB
:101210000E94DF0887EC90E00197F1F700C0000022
:10122000089544E00C940009CF92DF92EF92FF9270
:101230000F931F93CF93DF93E901662309F469C0ED
:10124000E42EF12CEFEFF0E0E61BF109EE9D8001BA
:10125000EF9D100DFE9D100D1124212FE12FFF2772
:10126000EE1AFF0A5CE3C52ED12CB6010E949A2427
:10127000FB01BC01E69EC001E79E900DF69E900D1D
:101280001124B6010E949A24E230F105A1F140F444
:10129000309779F0319759F180E020E040E00CC0C0
:1012A000E430F10591F168F13597B1F7842F861B91
:1012B00003C0812F262F210FE42FF0E0E35EFC4FC7
:1012C0004491E22FF0E0E35EFC4F9491E82FF0E0D0
:1012D000E35EFC4FE49149839883EA83DF91CF91E9
:1012E0001F910F91FF90EF90DF90CF900895812F85
:1012F000242F461BE1CF862F810FE42F412F2E2F65
:10130000DBCFE42FE61B842FF9CF842F462F410F2C
:10131000D3CF842F242FD0CF88E090E00C94D0241A
:10132000AB01BC0188E090E00C94EE24E2E0F2E036
:1013300083E08083109203028FEF82838383609126
:1013400002027091030280910402909105020C94B4
:1013500090098091020280FF06C06EE170E08AE091
:1013600092E00C941109EAE0F2E0118210821282FC
:10137000339682E0E436F807C1F7EFCFEAE0F2E017
:10138000818360834283339692E0E436F907C1F7A4
:101390000C94A909EF92FF920F931F93CF93DF93C1
:1013A00000D01F92CDB7DEB7182FE92EF62E042FEE
:1013B0008091020290910302A0910402B091050273
:1013C0008093060290930702A0930802B09309024B
:1013D0008091020280FF1FC09E012F5F3F4F812F2F
:1013E0009E2D0E9414098091060210FB87F98093BC
:1013F00006021695809107028078812BE0FA87F922
:1014000080930702F0920802009309024B816981E0
:101410008A810E94BE090F900F900F90DF91CF91AB
:101420001F910F91FF90EF9008956F927F928F928E
:101430009F92AF92BF92CF92DF92EF92FF920F9363
:101440001F93CF93DF93EC01662E742E80910202DE
:1014500080FF8EC0982F9E77923079F5CE010E9442
:10146000CA09809102029C2FC0FB87F98093020277
:101470009695809103028078892BD0FB87F9809321
:101480000302609204027092050260910202709160
:1014900003028091040290910502DF91CF911F9188
:1014A0000F91FF90EF90DF90CF90BF90AF909F9003
:1014B0008F907F906F900C949009E82FE695EF73D2
:1014C0009EE39E0F9F73943018F470900502C9CF6D
:1014D0009AE39E0F9F73993070F4881F8827881FA6
:1014E00090910302292F220FC22FC82B97FB992717
:1014F00090F9D92FB6CF87E28E0F8F738A3008F01C
:10150000B0CFF0E07997E0FF31C02FEFEE7FEA5FD8
:10151000FD4F859194916EE170E00E949A2426031C
:101520005001279FB00C11247E0188E9E81A8EEF44
:10153000F80A0AE012E084E6C82E82E0D82E98E687
:10154000892E99249394C701B4010E949A2498018A
:10155000472D662D0E941409EA0CFB1C0D5F1F4FDE
:10156000C016D10681F70E94A9097BCF21E0CECF1A
:10157000DF91CF911F910F91FF90EF90DF90CF906F
:10158000BF90AF909F908F907F906F900895E2E012
:10159000F2E02081221F2227221F30910302432FD5
:1015A000440F842F822B37FB992790F90A9668E61F
:1015B00071E00E94AE24438162810C94150A20914F
:1015C0000202221F2227221F30910302432F440FC1
:1015D000842F822B37FB992790F98A30910544F4A8
:1015E000825A9E4F40910502609104020C94150AA4
:1015F0000A9768E671E00E94AE24F4CF609104027D
:10160000862F90E08F3E910594F46F5E80910202E8
:10161000881F8827881F90910302292F220F97FB8C
:10162000992790F940910502822B0C94150A6FEFCF
:10163000EDCF60910402862F90E0419794F06151C4
:1016400080910202881F8827881F90910302292F0A
:10165000220F97FB992790F940910502822B0C9459
:10166000150A60E0EDCF40910502842F90E08F3E97
:10167000910594F44F5E80910202881F8827881F8D
:1016800090910302292F220F97FB992790F96091DF
:101690000402822B0C94150A4FEFEDCF4091050206
:1016A000842F90E0419794F0415180910202881F6D
:1016B0008827881F90910302292F220F97FB9927D3
:1016C00090F960910402822B0C94150A40E0EDCF52
:1016D0009091020290FF42C09178811126C09260E1
:1016E00090930202609102027091030280910402C1
:1016F000909105020E94900980910202982F9E7796
:101700009230D9F410926401881F8827881F909125
:101710000302292F220F97FB992790F94091050288
:1017200060910402822B0C94150A833210F09464A9
:10173000D7CF8F73880F982BD3CF982F96959F7301
:101740002EE3290F2F73273120F491E09093640149
:10175000DBCF995D9F739A30B8F6D4CF089580910E
:10176000DC0181608093DC0181E0809365010E944F
:10177000AC19811104C00E948B190E9496090E9425
:101780008C09609302027093030280930402909389
:1017900005026E7761F40E9496090E948C0960939D
:1017A000020270930302809304029093050281E089
:1017B000809364018091020280FF04C086958F733C
:1017C0000C94680B08958091020286958F738F5F49
:1017D000833208F081E00C94680B80910202982F0C
:1017E000909590FB80F980930202609102027091C3
:1017F000030280910402909105020E949009809159
:10180000020280FF04C086958F730C94680B1092BF
:1018100064012FEF80E792E0215080409040E1F793
:1018200000C000000C94A909CF93C82F80916201D9
:10183000909163010E94D41AEC2FF0E0E75EFD4F17
:10184000E491F0E08E179F0718F10E94C81A909358
:10185000630180936201E0916101F0E0E35EFD4F7E
:10186000449180910202881F8827881F909103026B
:10187000292F220F97FB992790F960910402822B60
:101880000E94CA098091610190E0019680936101F4
:10189000CF910895CF93C82F80915F0190916001FF
:1018A0000E94D41AEC2FF0E0EA5EFD4FE491F0E0E4
:1018B0008E179F07E8F00E94C81A909360018093EA
:1018C0005F01409105026091040280915D01909159
:1018D0005E010E94CA0980915D0190915E010196AE
:1018E00068E671E00E949A2490935E0180935D0106
:1018F000CF910895CF92DF92FF920F931F93CF93D2
:10190000DF93F82E80915B0190915C010E94D41AC4
:10191000EF2DE695F0E0EA5EFD4FE491F0E08E17E2
:101920009F07A8F10E94C81A90935C0180935B0105
:101930000AE012E0C0E0D0E088E6C82EDD24D394AF
:101940008091590190915A018C0F9D1FB6010E9400
:101950009A24980140910502609104020E941409A2
:101960002C960D5F1F4FC83681E0D80749F70E94BB
:10197000A9098091590190915A01F0FE10C0019679
:10198000BE010E949A2490935A0180935901DF91DD
:10199000CF911F910F91FF90DF90CF900895019705
:1019A000F2CFAF92BF92CF92DF92EF92FF920F935E
:1019B0001F93CF93DF93C82F80FF71C0FF24FA9449
:1019C00080915701909158010E94D41AC695EC2F2E
:1019D000F0E0ED5EFD4FE491F0E08E179F0708F414
:1019E00053C00E94C81A9093580180935701CAE0CF
:1019F000D2E000E010E097E0C92ED12C19821882C5
:101A00001A8287E0A82EB12CE12C809156018E0D10
:101A100087FD825E082E000C990B08171907E9F460
:101A2000209105022A9DC0012B9D900D1124B60125
:101A30000E94AE24462F80910202881F8827881FAB
:101A400090910302592F550F97FB992790F99E010A
:101A500060910402852B0E941409EF0C81E0A81A02
:101A6000B10899F60F5F1F4F23960E31110531F61D
:101A70000E94A9098091560191E0F91215C08111C7
:101A800011C08DE180935601DF91CF911F910F918D
:101A9000FF90EF90DF90CF90BF90AF900895FF241C
:101AA000F3948ECF8150EECF90E00196B8010E9462
:101AB000AE24E8CFBF92CF92DF92EF92FF920F93C6
:101AC0001F93CF93DF93CDB7DEB7CA55D1090FB6B9
:101AD000F894DEBF0FBECDBF182F809154019091B6
:101AE00055010E94D41AE12FF0E0E05FFD4FE49130
:101AF000F0E08E179F0708F47AC00E94C81A9093EE
:101B00005501809354018E010F5F1F4FE12CF12C82
:101B10006801D80111961C9211971C9212961C9282
:101B2000B12C9091000180915301B99E800D112438
:101B30008E310CF08DE187FD80E0082E000C990BB2
:101B4000E816F906A1F480910202881F8827881FF1
:101B500090910302592F550F97FB992790F99801FF
:101B60004091050260910402852B0E941409B394F0
:101B7000B7E0BB12D6CFEFEFEE1AFE0A0D5F1F4F94
:101B8000FEE1EF16F10429F62AE032E009E010E068
:101B90005EE1E52EF12CC801B7010E94AE24FC01E4
:101BA000EE0FFF1FE80FF91FEC0DFD1D8181D9011C
:101BB00011968C93119780818C93828112968C93CD
:101BC0000F5F1F4F2D5F3F4F0732110521F70E9416
:101BD000A90990910001809153019130E9F48A3F65
:101BE000BCF489EF809353018FEF80930001C65AB4
:101BF000DF4F0FB6F894DEBF0FBECDBFDF91CF91A0
:101C00001F910F91FF90EF90DF90CF90BF900895BC
:101C1000815080935301EBCF85322CF084E2809386
:101C2000530181E0E2CF8F5FF4CFEF92FF920F93E9
:101C30001F93CF93DF9380915101909152010E94A5
:101C4000D41A883E9340D0F10E94C81A9093520152
:101C500080935101C0914F01D09150012196C170E4
:101C6000DD27D0935001C0934F018AE0E82E82E037
:101C7000F82E10E008E7812F8695FE01E80FF11D90
:101C8000CF0181709927970140910502609104026C
:101C9000FC010E9FC0010F9F900D11240E9414099A
:101CA0001F5FF3E0EF0EF11C1E3129F7DF91CF919A
:101CB0001F910F91FF90EF900C94A909DF91CF91A4
:101CC0001F910F91FF90EF900895809164018823F8
:101CD00091F190910202892F86958F732EE3280F40
:101CE0002F73243018F482500C94140C2AE3280F1C
:101CF0002F73233018F486500C944A0C27E3280FD6
:101D00002F73263018F489500C947A0C21E3280F95
:101D10002F73263018F48F500C94D10C2BE2280F1F
:101D20002F73233018F485510C945A0D9E779033FD
:101D300011F40C94150E089590936B0180936A0131
:101D40000895E0916A01F0916B01309721F00190C4
:101D5000F081E02D099480E00895E0916A01F0910E
:101D60006B01309721F00280F381E02D09940895F2
:101D700020916801309169012817390771F090931B
:101D8000690180936801E0916A01F0916B013097DD
:101D900021F00680F781E02D0994089520916601D5
:101DA000309167012817390771F09093670180938C
:101DB0006601E0916A01F0916B01309721F0008497
:101DC000F185E02D0994089508950C94E40E0E9485
:101DD000BF1A0E94D0070E94911B0C94AF0B5F9218
:101DE0006F927F928F929F92AF92BF92CF92DF922B
:101DF000EF92FF920F931F93CF93DF93CDB7DEB790
:101E00002A970FB6F894DEBF0FBECDBF0E941B0805
:101E10009DE6A92E91E0B92E00E010E0882483947D
:101E2000912C502E802F0E94D5087C01F501C19085
:101E3000D1905F018C159D05B1F40F5F1F4F0530E8
:101E4000110579F78FEF89838A831B820E94C81A54
:101E50008160782F9D838C8349815A816B818D812C
:101E60000E94A60F36C08091DC0181FD0E94DE0831
:101E700080E090E0CE24DF243401082E02C0660CFE
:101E8000771C0A94E2F7960126213721232B09F4C7
:101E900041C08E835F82E620F72081E0EF2809F4BD
:101EA00080E088870E94C81A8160782F9A87898786
:101EB0004E815F8168858A850E94A60F000F111FE1
:101EC000F801E359FE4F808191816826792671825D
:101ED00060820E94A10E90916C01891709F10E9405
:101EE000A10E80936C012A960FB6F894DEBF0FBE48
:101EF000CDBFDF91CF911F910F91FF90EF90DF90B9
:101F0000CF90BF90AF909F908F907F906F905F9099
:101F10000C94070501968031910509F0ADCF8DCF66
:101F20002A960FB6F894DEBF0FBECDBFDF91CF91DA
:101F30001F910F91FF90EF90DF90CF90BF90AF90E7
:101F40009F908F907F906F905F900895CF93DF93D5
:101F5000CDB7DEB72B970FB6F894DEBF0FBECDBF5F
:101F60004F83588769877A878B87DE01119686E0D1
:101F7000FD0111928A95E9F785E0FE0137960190FF
:101F80000D928A95E1F749815A816B817C818D811F
:101F90009E810E9459162B960FB6F894DEBF0FBE95
:101FA000CDBFDF91CF910895CF93C82F882309F437
:101FB000F4C08238B9F40E94A10E81FDEEC069E33D
:101FC00080910101909102010E942E1A0E941C1919
:101FD00069E380910101909102010E94391ACF9129
:101FE0000C941C19833879F40E94A10E80FDD5C091
:101FF00063E580910101909102010E942E1A0E94D6
:102000001C1963E5E6CF843879F40E94A10E82FDA5
:10201000C4C067E480910101909102010E942E1AD0
:102020000E941C1967E4D5CF8CEF8C0F813A68F4BD
:102030008C2F0E94781D8111B0C06C2F80910101FE
:10204000909102010E942E1ACACF80E28C0F883034
:1020500048F4C77081E001C0880FCA95EAF70E9472
:102060005219BDCF8BE58C0F833078F4C53A39F027
:10207000C63A41F083E890E0CF910C94B80E81E825
:1020800090E0FACF82E890E0F7CF88E58C0F8531B9
:1020900008F083C0C83A09F441C0C93A09F441C004
:1020A000CA3A09F441C0CB3A09F441C0CC3A09F428
:1020B00041C0CB3B09F441C0CC3B09F441C0CD3A0F
:1020C00009F441C0C03B09F441C0CE3A09F441C013
:1020D000CF3A09F441C0C13B09F441C0C23B09F405
:1020E00041C0C33B09F441C0C43B09F441C0C53BF6
:1020F00009F441C0C63B09F441C0C73B09F441C0E3
:10210000C83B09F441C0C93B09F441C0CA3B09F4CA
:1021100041C080E090E0CF910C94CE0E82EE90E032
:10212000FACF89EE90E0F7CF8AEE90E0F4CF85EB1E
:1021300090E0F1CF86EB90E0EECF83EB90E0EBCF39
:1021400084EB90E0E8CF87EB90E0E5CF8CEC90E07B
:10215000E2CF8DEC90E0DFCF83E891E0DCCF8AE83E
:1021600091E0D9CF82E991E0D6CF84E991E0D3CF55
:1021700081E292E0D0CF83E292E0CDCF84E292E0A0
:10218000CACF85E292E0C7CF86E292E0C4CF87E271
:1021900092E0C1CF8AE292E0BECFCF91089588232A
:1021A00009F45DC08238B1F40E94A10E81FF57C0CE
:1021B00069E380910101909102010E942E1A0E9410
:1021C0001C1969E380910101909102010E94391A62
:1021D0000C941C19833879F40E94A10E80FF3FC033
:1021E00063E580910101909102010E942E1A0E94E4
:1021F0001C1963E5E7CF843879F40E94A10E82FFB1
:102200002EC067E480910101909102010E942E1A74
:102210000E941C1967E4D6CF9CEF980F913A10F4F6
:10222000682FD0CF90E2980F983050F4877091E0EB
:1022300001C0990F8A95EAF7892F0E945819C8CFD3
:102240009BE5980F933020F480E090E00C94B80E5A
:10225000885A853120F480E090E00C94CE0E0895E9
:10226000882321F00E9452190C941C190895882388
:1022700021F00E9458190C941C1908958F929F9276
:10228000AF92BF92DF92EF92FF920F931F93CF9383
:10229000DF937C01D62FC72FFC01158112951F708B
:1022A000028101110E9471190E941519D82E8823EC
:1022B00071F0002339F180E28D0F883018F182E04F
:1022C0000E94FE180E94151991E0D82ED926BC2E26
:1022D000B2948FE0B8228B2D90E0FC01EE58FE4EB8
:1022E0000C94C22484118411C311C311B211B21110
:1022F000B211B2110212B211A012A0121E13B21129
:10230000B2114413D12CE3CF8C2F807FCF70882360
:1023100011F0C295C07F0023A9F0CC2359F080E2D0
:102320008D0F883010F0D11109C08C2F0E945219E6
:102330000E941C198D2F0E94D40F14C08C2F0E9454
:102340006319F6CF8D2F0E94CF10CC2359F080E275
:102350008D0F883010F0D11112C08C2F0E945819A7
:102360000E941C1998E0B91609F485C0B91608F442
:102370006DC186EF8B0D823008F068C17CC08C2F58
:102380000E946919EDCF8C2F807FCF70803211F0C1
:10239000C295C07FDD2369F0D13021F1002361F1C6
:1023A000112359F0F701858180FFC4CF8F70858399
:1023B00004C0002361F0111104C08C2F0E94301161
:1023C000D1CF8C2F1130D1F70E948519CBCF1111AD
:1023D00006C00E9488198C2F0E943711C3CF11307C
:1023E000C1F7C0CF002321F0163008F0BBCFE5CFF6
:1023F000153008F0B7CFEFCF112369F38D2F0E946E
:10240000CF10B0CF8C2F837009F04CC0011133C0B6
:102410002D2F229526952770220F220F6D2F6F707A
:10242000862E912CA12CB12C022E04C0880C991C54
:10243000AA1CBB1C0A94D2F7D4FF22C06FE070E044
:1024400080E090E004C0660F771F881F991F2A95CF
:10245000D2F76095709580959095C695C695C37096
:10246000C23091F0C0F4682979298A299B29C130AA
:10247000B1F00E94A6170E94A10E0E940705E6C0B7
:1024800060E070E0CB01E9CF682979298A299B298E
:102490000E94B817F0CF0E94A617C501B4010E9490
:1024A0009417E9CF0023C1F18C2F8170882319F391
:1024B0002D2F229526952770220F220F6D2F6F70DA
:1024C000862E912CA12CB12C022E04C0880C991CB4
:1024D000AA1CBB1C0A94D2F7D4FF20C06FE070E0A6
:1024E00080E090E004C0660F771F881F991F2A952F
:1024F000D2F76095709580959095C695C695C370F6
:10250000C23081F0B0F4682979298A299B29C13029
:10251000A1F00E946718AFCF8695C8CF60E070E049
:10252000CB01EBCF682979298A299B290E94791848
:10253000A2CF0E946718C501B4010E9455189BCF15
:102540008D2F90E0FC01E05EF109E531F10508F026
:1025500061C0E355FD4E0C94C224C212C212C212D5
:10256000C212C212C212C212C212C212C212C212CB
:10257000C212C212C212C212C212CF12DD12E41271
:10258000EB12F512DF708C2F8F71002321F00E9467
:10259000F0178D2F13CF0E9411188D2F1DCF002300
:1025A00041F0153008F0DECE8C2F8F710E94341868
:1025B000D9CE163008F0D6CEF7CF002339F08C2FC5
:1025C0008F710E94F017CECE0023C9F38C2F8F712C
:1025D0000E941118C7CE002329F08C2F8F710E9402
:1025E000DB17C0CE0E94D617BDCE002349F0CF71B5
:1025F0008C2F0E94F01763E08C2F0E94F518B2CE4A
:1026000081E00E94FE18123008F4ACCE82E00E94F5
:10261000FE18A8CE002319F0112389F28BCE1123C6
:10262000A9F2D93309F0EACEFFEF27EE83E0F150AB
:1026300020408040E1F700C00000E0CE4C2F4F70FA
:102640006D2FC7010E94E3020E940717DD2019F1D8
:102650000E94F11880FD1FC0F70112820E94EB1842
:102660000E94F017C7010E9457130E94EB18DF91D8
:10267000CF911F910F91FF90EF90DF90BF90AF909F
:102680009F908F900C9411184C2F4F706D2FC70195
:102690000E94F402DBCFDF91CF911F910F91FF9049
:1026A000EF90DF90BF90AF909F908F9008950F9321
:1026B0001F93CF93DF93EC01988189812B813C811B
:1026C000232B39F08F3F19F481E09F3F19F080E010
:1026D00001C081E080FD13C0CE010E9478038823F1
:1026E00071F0688179818A810E94D9188C010E94D9
:1026F0008B180E948217B801CE010E943E11DF9113
:10270000CF911F910F9108950E9471190E94821913
:1027100080910101909102010E94441A0C941C19AD
:102720000E9460190C9484130E94CE18E92FE29540
:10273000EF704E2F50E0FA013297EE30F105D8F4E9
:10274000EC55FC4E0C94C224B213B213BB13BB1352
:10275000BD13BB13BB13BB13B213B213C213BB1312
:10276000BB13C213803F19F020F4803E20F481E0B7
:102770000895843FE1F380E00895803EC0F3813FF7
:10278000D1F7F5CF93FB882780F90895CF93DF9396
:1027900000D000D01F92CDB7DEB70F900F900F90F2
:1027A0000F900F90DF91CF910895CF93DF9300D0DA
:1027B00000D000D0CDB7DEB726960FB6F894DEBFB6
:1027C0000FBECDBFDF91CF9108951F93CF93DF93BD
:1027D000C091770116E080917801C81304C0DF91A1
:1027E000CF911F910895D0E01C9FF0011D9FF00D27
:1027F0001124E758FE4F40815181628173818481A9
:1028000095810E94D5132196C770E5CF4091A9010B
:102810005091AA016091AB017091AC018091AD0122
:102820009091AE010C94D5131F93CF93DF938091B9
:10283000AE0182958F70D1F48091AB018823B1F005
:1028400080917701D0917801B091A901C091AA013E
:102850004091AC015091AD01A1E0BF3F09F0A0E073
:10286000BA016095709516E08D1304C0DF91CF9189
:102870001F91089541155105D9F1CF3FD9F120E0BD
:1028800090E020FD3CC0189FF001199FF00D11242D
:10289000E758FE4F21812C1332C020812B132FC00B
:1028A000228121112CC0238134812417350720F186
:1028B000241B350B283C310510F52091AE012F70FB
:1028C00020612093AE0126E0289FF001299FF00DA2
:1028D0001124E258FE4F80818F708061808389EAE5
:1028E00091E00E945713DF91CF911F910C94E51353
:1028F00021E0C6CF2A2FC4CF260F371FDBCF01968A
:102900008770B2CFAF92BF92CF92DF92EF92FF92D9
:102910000F931F93CF93DF93CDB7DEB761970FB6B9
:10292000F894DEBF0FBECDBF8C0185E0F801DE015B
:102930001D9601900D928A95E1F7D8014C91119660
:102940005C9111971296EC903091A9016091AA01C7
:102950008091AC019091AD01009739F06F3F19F46F
:1029600021E03F3F19F020E001C021E0B22FB1701B
:10297000BB2E20FD90C1F801C380D480A090AB0194
:10298000AA2009F432C12091AE01C816D90610F16F
:10299000D601A81BB90BCD01FF24F394883C910507
:1029A000F0F0F12C207F09F0E9C07C2DD98AC88A8B
:1029B0006E2D89890E94C61389EA91E00E945713FF
:1029C000E9EAF1E086E0DF011D928A95E9F70E94CD
:1029D00006141EC0809590958C0D9D1DDDCF822F15
:1029E000807F09F084C0651325C0341323C0FE2CFA
:1029F000E11020C02F7020612093AE010E940614C8
:102A000089EA91E00E9457138091AE01F801858315
:102A10008F2D61960FB6F894DEBF0FBECDBFDF914C
:102A2000CF911F910F91FF90EF90DF90CF90BF90CB
:102A3000AF900895CD2839F05F3F19F481E04F3F02
:102A400019F080E001C081E080FD24C081E08E2586
:102A5000F82FF170FF2E80FF3FC080917701209109
:102A6000780136E0821318C04D875E878D859E857C
:102A70000E94CE18292F22952F70223008F1243081
:102A800030F59F7009F1D80115969C91907FE1F483
:102A9000FB2CBECF80E0DCCF90E0389FF001399F67
:102AA000F00D1124E758FE4F6181561306C0608176
:102AB000641303C06281E6120FC001968770D2CF03
:102AC0009F7011F0882321F3805E883008F3C801DD
:102AD0000E945713BF2CDCCFFE2CEE2009F498CFB8
:102AE0008091AE0181608093AE01F12C91CF65138E
:102AF00014C0341312C0E11010C08091AE01F8016F
:102B00008583C8010E94571386E0F801A9EAB1E065
:102B100001900D928A95E1F75ACF4D875E878D859A
:102B20009E850E949413882309F4BFC0EE2009F407
:102B3000BCC02091AE01822F82958F7090E00297E9
:102B400074F08091A9019091AA0198878F831986CA
:102B5000DB86CA862C87CE0107960E94571386E033
:102B6000F801A9EAB1E001900D928A95E1F70E947F
:102B700014140E940614FF24F3944ACF651314C062
:102B8000341312C0E11010C08091AE01F8018583AA
:102B9000C8010E94571386E0E9EAF1E0DF011D92C7
:102BA0008A95E9F7FA2C34CF4D875E878D859E850F
:102BB0000E949413882309F478C0EE2009F475C0AC
:102BC0002091AE01822F82958F7090E002973CF2A7
:102BD0008091A9019091AA019A8389831B82DD8249
:102BE000CC822E83CE010196B8CFC816D90680F0CC
:102BF000F601E81BF90BCF01883C910570F0F12C30
:102C00007C2DD98AC88A6E2D89890E94C613D8CE98
:102C1000809590958C0D9D1DEFCFFE2CEE2009F434
:102C200044C0651327C0341325C08091AE0180FDD8
:102C300018C0982F92959F70292F30E021153105EB
:102C400081F0D80115968C9315972F30310509F432
:102C500058CF9F5F9295907F8F70892B15968C939C
:102C600050CF86E0F801A9EAB1E001900D928A9573
:102C7000E1F7CECE4D875E878D859E850E949413A9
:102C800081116DCF8091AE0181608093AE01C8014A
:102C90000E945713BDCEEE2041F04D875E878D8593
:102CA0009E850E94941381115ACFC8010E94571328
:102CB00062CF1F93CF93DF93CDB7DEB72C970FB6BC
:102CC000F894DEBF0FBECDBF4F83588769877A87E0
:102CD0008B879C87CE0107960E948214882349F136
:102CE0009F8188852A853B85232B39F08F3F19F4F6
:102CF00081E09F3F19F080E001C081E080FD08C0C5
:102D00004F81588569857A858B859C850E94D5136E
:102D100016E08091770190917801891348C02C9634
:102D20000FB6F894DEBF0FBECDBFDF91CF911F91DC
:102D3000089586E0FE013796DE01119601900D920E
:102D40008A95E1F7FF81E8856A857B8561157105C4
:102D500039F0EF3F19F481E0FF3F19F080E001C046
:102D600081E080FDD5CF2091780130E0C901019646
:102D7000877099274091770150E084179507C9F132
:102D8000F983EA837D836C8396E0929FD001939FC1
:102D9000B00D1124A758BE4FFE01319601900D923F
:102DA0009A95E1F7809378010E94E513B1CF819F56
:102DB000C001112487589E4F0E948214882309F471
:102DC000AECFE09177011E9FF0011124E758FE4F2E
:102DD0004081518162817381848195810E94D513E4
:102DE0008091770190E00196877099278093770111
:102DF00090CF0E9490131092780110927701E9EA27
:102E0000F1E086E0DF011D928A95E9F788CFEF9225
:102E1000FF920F931F93CF93DF938C01892B81F047
:102E2000F12CEE24E394E8012196F8018491843793
:102E300070F4843008F062C08130B1F08230B1F1BA
:102E4000DF91CF911F910F91FF90EF9008958537FB
:102E500009F44FC008F43FC09CE7980F903780F703
:102E60008F770E94CF104CC00E5F1F4FFE018491E0
:102E700090E2980F983060F48770FE2D01C0FF0F2C
:102E80008A95EAF78F2F0E9474190E941C1902C0BC
:102E90000E94D40F8F2D882309F4C5CFEFE9FFE0FE
:102EA0003197F1F700C000008150F5CF0E5F1F4F42
:102EB000FE01849190E2980F983050F48770FE2DB7
:102EC00001C0FF0F8A95EAF78F2F0E947A19DDCF94
:102ED0000E94CF10DFCF0E5F1F4FFE01C491CC23A5
:102EE000C9F28FE99FE00197F1F700C00000C150DF
:102EF000F6CF0E5F1F4FFE01F490CCCF0E94D40F8F
:102F00008E01C8CF089508950C9483170E948417EA
:102F10006093B3017093B4018093B5019093B601AF
:102F20000C9484130C9486170F931F930091B30194
:102F30001091B4012091B5013091B601602B712B35
:102F4000822B932B1F910F910C9486170F931F9335
:102F50000091B3011091B4012091B5013091B601F7
:102F600060237123822393231F910F910C94861762
:102F70000F931F930091B3011091B4012091B501FB
:102F80003091B60160277127822793271F910F91F7
:102F90000C9486170E9483176093AF017093B00161
:102FA0008093B1019093B2010C94841360E070E0BF
:102FB000CB010C94CA170F931F9341E050E060E0DF
:102FC00070E08A019B0104C0000F111F221F331FF4
:102FD0008A95D2F7C901B8011F910F910C94CA17B5
:102FE0000F931F9341E050E060E070E004C0440F95
:102FF000551F661F771F8A95D2F78091AF01909178
:10300000B001A091B101B091B2018A019B01082BDE
:10301000192B2A2B3B2BC901B8011F910F910C943E
:10302000CA170F931F9341E050E060E070E004C0C6
:10303000440F551F661F771F8A95D2F7CB01BA013F
:1030400060957095809590950091AF011091B001B9
:103050002091B1013091B201602371238223932327
:103060001F910F910C94CA170F931F9341E050E0EA
:1030700060E070E004C0440F551F661F771F8A95FB
:10308000D2F78091AF019091B001A091B101B091C0
:10309000B2018A019B01082719272A273B27C9016A
:1030A000B8011F910F910C94CA170F931F930091B1
:1030B000AF011091B0012091B1013091B201602BAC
:1030C000712B822B932B1F910F910C94CA170F9386
:1030D0001F930091AF011091B0012091B101309187
:1030E000B20160237123822393231F910F910C94CB
:1030F000CA170F931F930091AF011091B001209157
:10310000B1013091B20160277127822793271F9167
:103110000F910C94CA170895BF92CF92DF92EF924D
:10312000FF920F931F93CF93DF938C01C090AF0159
:10313000D090B001E090B101F090B2018091B30164
:103140009091B401A091B501B091B601C82AD92AD5
:10315000EA2AFB2ACFE1D0E0BC2ED701C6010C2E13
:1031600004C0B695A795979587950A94D2F780FDE8
:103170000EC0219788F7B12C8B2DDF91CF911F9135
:103180000F91FF90EF90DF90CF90BF900895B8011E
:103190008C2F0E942605019761F3EECFCF93DF932A
:1031A000EC010E948C18BE010E942605DF91CF9190
:1031B0000895CB010E94CE180895682F80910101D7
:1031C000909102010C942E1A682F80910101909128
:1031D00002010C94391A8091B701859585958595E2
:1031E00008958091B7018770089598E0899F9001B4
:1031F0001124622B6093B7010C94F0172091B70152
:10320000809582238093B701982F977069F430E0FE
:10321000482F082E000C550B2417350729F08595EB
:10322000859585950C94111808959091B701977024
:1032300081E009F480E00895E0910101F09102013C
:103240008091DB018083E0910101F0910201808196
:103250009091DA01892B8083E0910101F0910201C4
:1032600080819091D901892B80839091B801992315
:1032700081F0E0910101F09102018081892B80832E
:1032800080910101909102010E94D2198111109246
:10329000B80180910101909102010C94AD0E8091D2
:1032A000DB0108959091DB01892B8093DB01089568
:1032B000982F90958091DB0189238093DB010895FD
:1032C0001092DB0108959091DA01892B8093DA0145
:1032D0000895982F90958091DA0189238093DA01DF
:1032E00008951092DA0108959091D901892B809365
:1032F000D9010895982F90958091D90189238093C1
:10330000D90108951092D90108958093B8010895C4
:103310001092B80108956DEE7EEF80E090E00E947B
:10332000FA2460E082E090E00E94DC2460E083E028
:1033300090E00E94DC2460E084E090E00E94DC24C5
:1033400060E085E090E00E94DC2440E050E0BA01BB
:1033500088E090E00C94EE2480E090E00E94D62477
:1033600021E08D3E9E4F09F020E0822F089582E0FB
:1033700090E00C94C824682F82E090E00C94DC2448
:1033800083E090E00C94C824682F83E090E00C94D4
:10339000DC2484E090E00C94C824682F84E090E062
:1033A0000C94DC24FC0131969C01205E3F4F80E0B0
:1033B000919191118F5FE217F307D1F708959C0166
:1033C000FC0132969FEF80E04191461751F09F3FFC
:1033D00019F4411101C0982F8F5F8E31A9F79F3FDB
:1033E00009F40895290F311D97FD3A95F90162837B
:1033F0000895FC01329680962081261301C0108228
:103400003196E817F907C1F70895262F26952695D6
:1034100026952F3169F0FC01E20FF11D677021E064
:1034200030E001C0220F6A95EAF78181822B818307
:103430000895262F2695269526952F3171F0FC01AB
:10344000E20FF11D677021E030E001C0220F6A95A4
:10345000EAF72095818128232183089520910D0189
:10346000222329F02091680227FD0C94051A0C9460
:10347000DF1920910D01222329F02091680227FDF8
:103480000C94191A0C94F919FC013196809611923A
:10349000E817F907E1F7089580916E02843039F159
:1034A0001092DD0120E488E190E00FB6F894A89531
:1034B000809360000FBE2093600080E00E940705AB
:1034C00083B7817F846083BF83B7816083BF789433
:1034D000889583B78E7F83BF0FB6F894A8958091A7
:1034E0006000886180936000109260000FBE0895B4
:1034F00008950C94781ACF930E94791A0E941B08A1
:103500000E94781AC0E08C2F0E94D508892B31F4D4
:10351000CF5FC530C1F780E0CF91089581E0FCCF47
:103520000E9490130E94A10E0C9407051F920F9207
:103530000FB60F9211248F939F93AF93BF938091F7
:10354000DD01811113C08091640290916502A09108
:103550006602B09167024196A11DB11D809364027D
:1035600090936502A0936602B0936702BF91AF91FA
:103570009F918F910F900FBE0F901F90189582E032
:1035800084BD93E095BD9AEF97BD80936E0008953A
:103590002FB7F8948091640290916502A091660221
:1035A000B09167022FBF0895CF92DF92EF92FF9202
:1035B0000F931F932FB7F8944091640250916502C6
:1035C00060916602709167022FBF6A017B01EE2451
:1035D000FF248C0120E030E0C016D106E206F3069D
:1035E00050F0481B590BCA011F910F91FF90EF90AB
:1035F000DF90CF90089541505109F3CF78941F92F6
:103600000F920FB60F9211248F939F93AF93BF9396
:103610008091640290916502A0916602B091670268
:103620000196A11DB11D8093640290936502A09341
:103630006602B0936702BF91AF919F918F910F90F7
:103640000FBE0F901F9018950E949521F8942FEFB0
:1036500087EA91E6215080409040E1F700C00000E9
:1036600087E090EBDC018093770290937802A0933F
:103670007902B0937A029CE088E10FB6F894A8959D
:10368000809360000FBE90936000FFCFAF92BF9217
:10369000CF92DF92EF92FF920F931F93CF93C0E0F0
:1036A000CC24C394D12CE82EF12C8C2F0E94D50869
:1036B0005C0100E010E0C601002E02C0880F991FD7
:1036C0000A94E2F78A219B21892B99F40F5F1F4FFF
:1036D0000031110581F7CF5FC53039F780E0CF9118
:1036E0001F910F91FF90EF90DF90CF90BF90AF9020
:1036F0000895602F7C2F80E00E940905E816F906E6
:1037000029F781E0ECCFCF93C82F8CE20E94461BB3
:10371000882321F08C2FCF910C94461B80E0CF9111
:103720000895CF930E94AC19811102C00E948B1999
:10373000C5E6C15009F0E9C089E20E94831B8111EE
:1037400018C18AE20E94831B81110E948B1985E0B7
:103750000E94831B81110E94241B0E94B719809331
:10376000DC0187E00E94831B882389F08BE10E94A3
:10377000831B882309F4D2C08091DC0181FB992747
:1037800090F921E0922790FB81F98093DC018091F0
:10379000DC010E94BB190E94C91990E09093690254
:1037A0008093680280EE0E94831B882341F0809101
:1037B0006802982F909590FB80F98093680289E3C6
:1037C0000E94831B882359F08091680281FB99270E
:1037D00090F921E0922790FB81F98093680282EEB4
:1037E0000E94831B882359F08091680282FB9927ED
:1037F00090F921E0922790FB82F98093680286EE8F
:103800000E94831B882359F08091680283FB9927CB
:1038100090F921E0922790FB83F98093680283EE70
:103820000E94831B882359F08091680284FB9927AA
:1038300090F921E0922790FB84F98093680285E358
:103840000E94831B882359F08091680285FB992789
:1038500090F921E0922790FB85F98093680281E33B
:103860000E94831B882359F08091680286FB992768
:1038700090F921E0922790FB86F98093680281E11C
:103880000E94831B882359F08091680287FB992747
:1038900090F921E0922790FB87F98093680280914C
:1038A00068020E94CD1987E20E94831BC82F8EE117
:1038B0000E94831B8111C2608FE10E94831B8111D2
:1038C000C46080E20E94831B8111C86081E20E9473
:1038D000831B8111C06182E20E94831B8111C0623F
:1038E00083E20E94831B8111C06484E20E94831BD7
:1038F0008823C9F1C0688C2F0E94C4196C2F70E016
:1039000080E090E0CF910C9492170E941B088FE307
:103910009CE90197F1F700C000000BCF8EE00E94F8
:10392000831B882351F08091DC0182FB992790F959
:1039300021E0922790FB82F928CF80E10E94831B2F
:103940009091DC01882351F093FB882780F921E0D6
:10395000822780FB93F99093DC0119CF892F809502
:1039600080FB90F9F8CFC111C6CF0E94C019682F13
:10397000C6CFCF9108950F931F9341E050E060E0D0
:1039800070E08A019B0104C0000F111F221F331F2A
:103990008A95D2F7C901B8010E9492171F910F9121
:1039A0000C9490138B3109F46EC060F58E3009F4DD
:1039B0007BC078F4873009F457C028F4863009F4C6
:1039C00049C080E00895883011F08B30D1F781E054
:1039D0000895813109F476C080F4803191F78091A7
:1039E000DC0183FB992790F921E0922790FB83F972
:1039F0008093DC0183FD54C0EACF863141F38931E5
:103A000031F3DFCF853351F058F4873239F020F4A9
:103A10008E31B8F28D5165C0893299F680E061C06F
:103A2000833430F48A3308F05BC0883381F2C9CF25
:103A30008334A1F3883429F60E9490132FEF83ED8D
:103A400090E3215080409040E1F700C000000E94C8
:103A5000241BBDCF8091DC01817F8E7F8093DC01B0
:103A600081E08093DE0108958091DC01982F90958C
:103A700090FB80F98093DC0180FDA9CF897F877F4F
:103A80008093DC01A4CF8091DC0181FB992790F920
:103A900021E0922790FB81F98093DC0181FF97CF91
:103AA0008091DC018160ECCF8091DC0182FB992761
:103AB00090F921E0922790FB82F98093DC0182FD4E
:103AC000EFCF85CF0E9490138091680287FB9927E2
:103AD00090F921E0922790FB87F98093680277CFD5
:103AE00089530E94BB1C73CF80E008950C94741D11
:103AF000CF93C82F8091DE01882331F08130B1F05F
:103B00001092DE0180E010C0E0910101F09102010D
:103B100080818232B9F78C2F0E94761D811119C0E5
:103B20008C2F0E94D21C8170CF910895E0910101E9
:103B3000F09102018081823271F38C2F0E94741DFA
:103B400081110EC0C43171F038F4CB3049F080E0FF
:103B5000EACF81E090E0E7CFC93221F0C833B9F76E
:103B600081E0E1CF1092DE01F2CF8091FF01089554
:103B700008950F931F93CF93DF9300D01F92CDB77B
:103B8000DEB78C010E94EB1F823011F0843021F5EA
:103B900083E089831B830A8381E08093E9008FEFB0
:103BA0009091E800815095FD06C095ED9A95F1F74A
:103BB00000008111F5CF8091E80085FF0DC040E045
:103BC00050E063E070E0CE0101960E9408208091F1
:103BD000E8008E778093E8000F900F900F90DF91B0
:103BE000CF911F910F910895CF93DF9300D01F9233
:103BF000CDB7DEB720916E02243031F522E0298363
:103C0000805891099B838A8381E08093E9008FEF3C
:103C10009091E800815095FD06C095ED9A95F1F7D9
:103C200000008111F5CF8091E80085FF0DC040E0D4
:103C300050E063E070E0CE0101960E940820809180
:103C4000E8008E778093E8000F900F900F90DF913F
:103C5000CF910895CF93DF93EC010E94EB1F823048
:103C600011F0843079F580910D01882371F18091F4
:103C7000680287FF2AC082E08093E9008FEF90916D
:103C8000E800815095FD06C095E19A95F1F7000096
:103C90008111F5CF8091E80085FF14C040E050E02D
:103CA00060E270E0CE010E9408208091E8008E77EB
:103CB0008093E80080E2FE01AFEDB1E001900D924B
:103CC0008A95E1F7DF91CF91089581E08093E90033
:103CD0008FEF9091E800815095FD06C095ED9A9583
:103CE000F1F700008111F5CF8091E80085FFEACF60
:103CF00040E050E068E070E0D5CF80916D02811126
:103D000009C00E9495210E94F2218091E200846006
:103D10008093E200089510926D0208950895089529
:103D20000C94901A42E061EC81E00E94122142E280
:103D300061EC82E00C94122180917002833009F4CE
:103D400052C030F4813059F1823009F48EC00895A8
:103D50008A3009F47AC08B3009F460C0893009F0E8
:103D600041C080916F028132E9F580917302909198
:103D700074020297B8F58091E800877F8093E8008D
:103D80008091E80082FF2AC08091F1008093FF01BA
:103D90008091E8008B778093E8000C944721809114
:103DA0006F02813AF9F48091E800877F8093E80000
:103DB0008091730290917402892B61F460E28FED1F
:103DC00091E070E00E9457208091E8008B7780930B
:103DD000E800089560E080E090E0F3CF80916E020B
:103DE0008111CECF089580916F02813AD9F78091E9
:103DF000730290917402892BA9F78091E800877F64
:103E00008093E8008091E80080FFFCCF80910D0155
:103E10008093F1008091E8008E77BDCF80916F0292
:103E2000813201F78091730290917402892BD1F64F
:103E30008091E800877F8093E8000E94472180916D
:103E4000710280930D010C94901380916F02813266
:103E500049F68091E800877F8093E8000E9447211F
:103E60008091720280930002089580916F02813ADE
:103E700009F0B8CF8091E800877F8093E8008091B7
:103E8000E80080FFFCCF80910002C2CF84B7877F1B
:103E900084BF0FB6F894A8958091600088618093E4
:103EA0006000109260000FBE80E880936100109265
:103EB00061000E94E50E0E9495210E94F2218091EE
:103EC000E20084608093E20078940E947E240E9445
:103ED000E70E83E091E00E949C0E80916E02853097
:103EE00029F00E94EF0E0E94650EF7CF0E944C1A37
:103EF00080916C02882389F30E947B1A882369F3DE
:103F00000E94F21FEACF292F33272330310551F1C8
:103F100058F421303105C9F022303105F1F080E04C
:103F200090E020E030E015C02132310571F12232FD
:103F30003105A9F761157105C1F16130710579F796
:103F400089E390E02CEA34E004C082E190E02AE9C1
:103F500034E0FA013183208308958BE390E02FE56C
:103F600034E0F7CF99278130910561F028F002976E
:103F7000B1F6EDE1F4E002C0EBE5F4E0849190E00D
:103F80009F01E7CFE9E3F4E0F9CF6115710541F056
:103F90006130710521F689E090E02AE834E0D9CF5C
:103FA00089E090E021E734E0D4CF80E490E025EE92
:103FB00034E0CFCF0895CF93C82F0E94DA1FC0936B
:103FC0000102CF91089580916E02843011F081E05A
:103FD000089582E0089580910102811102C00C943D
:103FE000E31F089580E189BD82E189BD09B400FE27
:103FF000FDCF8091D8008F7D8093D8008091E00024
:1040000082608093E0008091E00081FDFCCF089504
:10401000AF92BF92DF92EF92FF920F931F93CF93D5
:10402000DF93EC018B017A010E946621D82E811169
:1040300024C0E114F10439F0F70180819181081B5B
:10404000190BC80FD91FA12CB12C01151105A9F00E
:104050008091E80085FD22C08091E8008E778093F2
:10406000E800E114F104A1F0F70180819181A80E2C
:10407000B91EB182A08285E0D82E8D2DDF91CF911F
:104080001F910F91FF90EF90DF90BF90AF90089538
:104090000E9466218823C9F2D82EEFCF89918093A0
:1040A000F10001501109FFEFAF1ABF0ACECF2091E6
:1040B00075023091760226173707A8F06115710551
:1040C00029F42091E8002E772093E800FC0120E0FD
:1040D0006115710551F4211108C08091E80082FF3B
:1040E00033C080E00895B901F1CF80916E0288233A
:1040F000B9F18530B9F18091E80083FD2FC080913E
:10410000E80082FDEACF8091E80080FFE1CF2091B6
:10411000F3008091F20090E0922B6115710519F087
:104120008830910550F021E0089709F020E0809157
:10413000E8008E778093E800CBCF21912093F100A7
:10414000615071090196E9CF80916E02882341F098
:10415000853041F08091E80083FFBFCF81E0089572
:1041600082E0089583E008952091750230917602EF
:1041700026173707A8F06115710529F42091E8008A
:104180002E772093E800FC0120E06115710551F4C1
:10419000211108C08091E80082FF34C080E00895BA
:1041A000B901F1CF80916E028823C1F18530C1F150
:1041B0008091E80083FD30C08091E80082FDEACF65
:1041C0008091E80080FFE1CF2091F3008091F20020
:1041D00090E0922B6115710519F08830910550F02F
:1041E00021E0089709F020E08091E8008E77809325
:1041F000E800CBCF24912093F100319661507109F2
:104200000196E8CF80916E02882341F0853041F01D
:104210008091E80083FFBECF81E0089582E0089599
:1042200083E00895982F973028F08F708093E900ED
:1042300081E008959093E900981751F07091EC0097
:104240002091ED005091F00021FD06C09F5FEBCF63
:10425000242F762F50E0F8CF3091EB003E7F309343
:10426000EB003091ED003D7F3093ED003091EB009D
:1042700031603093EB007093EC002093ED0050938D
:10428000F0002091EE0027FDE1CF80E008958091BD
:104290006F0287FF13C08091E80082FF06C0809103
:1042A000E8008B778093E80004C080916E02811152
:1042B000F2CF089580916E028823D9F38091E800AF
:1042C00080FFF8CF8091E8008E77ECCF2091E4005A
:1042D0003091E50085E69091EC0090FD20C0909132
:1042E000E80092FD20C090916E02992391F09530E4
:1042F00091F09091EB0095FD10C04091E400509139
:10430000E5004217530739F381509A0121F784E001
:10431000089582E0089583E0089581E008959091E2
:10432000E80090FFE0CF80E008950E9403220E9401
:104330000B22E0EEF0E0808181608083E8EDF0E028
:1043400080818F77808319BCA7EDB0E08C918E7F40
:104350008C9380818F7E808310926D0208950F93DD
:104360001F93CF93DF930E9403220E940B22C8ED7C
:10437000D0E088818F77888388818068888388816E
:104380008F7D888319BC10926E0210926A0210927F
:104390006C0210926B0200EE10E0F80180818B7FBE
:1043A000808388818160888342E060E080E00E94B1
:1043B0001221E1EEF0E080818E7F8083E2EEF0E07A
:1043C000808181608083808188608083F801808122
:1043D0008E7F8083888180618883DF91CF911F9158
:1043E0000F910895E8EDF0E080818F7E8083E7ED06
:1043F000F0E080818160808384E082BF81E08093EF
:104400006D020C94AF21E8EDF0E080818E7F808317
:104410001092E20008951092DA001092E1000895DF
:104420001F920F920FB60F9211242F933F934F9329
:104430005F936F937F938F939F93AF93BF93EF930C
:10444000FF938091E10082FF0BC08091E20082FF28
:1044500007C08091E1008B7F8093E1000E947D2462
:104460008091DA0080FF19C08091D80080FF15C0CC
:104470008091DA008E7F8093DA008091D90080FFEE
:1044800094C080E189BD82E189BD09B400FEFDCF01
:1044900081E080936E020E947D1E8091E10080FF8A
:1044A00019C08091E20080FF15C08091E2008E7FEC
:1044B0008093E2008091E20080618093E20080912D
:1044C000D80080628093D80019BC85E080936E028A
:1044D0000E948F1E8091E10084FF29C08091E2003C
:1044E00084FF25C080E189BD82E189BD09B400FE59
:1044F000FDCF8091D8008F7D8093D8008091E1001E
:104500008F7E8093E1008091E2008F7E8093E200B5
:104510008091E20081608093E20080916A028823AA
:1045200009F449C084E080936E020E94901E80913D
:10453000E10083FF29C08091E20083FF25C08091C4
:10454000E100877F8093E10082E080936E02109209
:104550006A028091E1008E7F8093E1008091E20009
:104560008E7F8093E2008091E20080618093E20080
:1045700042E060E080E00E9412218091F0008860BB
:104580008093F0000E948E1EFF91EF91BF91AF913A
:104590009F918F917F916F915F914F913F912F915B
:1045A0000F900FBE0F901F90189519BC10926E02BD
:1045B0000E948B1E72CF8091E30087FD02C081E0D4
:1045C000B2CF83E0B0CF1F920F920FB60F9211249B
:1045D0002F933F934F935F936F937F938F939F930B
:1045E000AF93BF93CF93EF93FF93C091E900CF7048
:1045F0008091EC001092E9008091F000877F809319
:10460000F00078940E941F231092E9008091F0003E
:1046100088608093F000C093E900FF91EF91CF9103
:10462000BF91AF919F918F917F916F915F914F91CA
:104630003F912F910F900FBE0F901F9018951F93D1
:10464000CF93DF93CDB7DEB7AA970FB6F894DEBF4E
:104650000FBECDBFEFE6F2E08091F100819322E042
:10466000E737F207C9F70E949C1E8091E80083FF9C
:1046700046C080916F0290917002492F50E04A30FD
:10468000510508F03CC0FA01E85BFC4D0C94C224D3
:10469000522378237F2378237F23D623F9237F2374
:1046A00050245D24803889F0823849F58091730266
:1046B0008F70873020F58093E9008091EB0085FBB7
:1046C000882780F91092E90006C080916B029091D2
:1046D0006C02911182609091E800977F9093E800BE
:1046E0008093F1001092F1008091E8008E772DC048
:1046F000282F2D7F21F48823D1F0823059F1809129
:10470000E80083FF0AC08091E800877F8093E8007B
:104710008091EB0080628093EB00AA960FB6F8942C
:10472000DEBF0FBECDBFDF91CF911F910895809165
:104730007102813021F7933009F080E080936C02A0
:104740001092E9008091E800877F8093E8000E9442
:104750004721D5CF809171028111F2CF80917302F0
:104760008F702FEF280F263050F68093E9002091AC
:10477000EB0020FFE5CF933031F48091EB008062B5
:104780008093EB00DDCF9091EB0090619093EB0074
:1047900021E030E001C0220F8A95EAF72093EA0079
:1047A0001092EA008091EB008860EACF8111A7CFD8
:1047B000109171021F778091E3008078812B8093A4
:1047C000E3008091E800877F8093E8000E94472102
:1047D0008091E80080FFFCCF8091E30080688093A7
:1047E000E300111104C082E080936E0288CF83E061
:1047F000FBCF8058823008F082CF80917102909177
:1048000072028C3D23E09207A1F583E08A838AE25D
:1048100089834FB7F894DE01139620E03EE051E221
:10482000E32FF0E050935700E49120FF03C0E2959E
:10483000EF703F5FEF708E2F90E0EA30C0F0C796C8
:104840008D939D932F5F243159F74FBF8091E800DE
:10485000877F8093E8006AE270E0CE0101960E94B3
:1048600057208091E8008B778093E80048CFC0966E
:10487000E7CF6091730270917402AE014F5F5F4F9A
:104880000E94831FBC01892B09F439CF9091E80065
:10489000977F9093E80089819A810E94B420E1CFAC
:1048A000803809F02CCF8091E800877F8093E80062
:1048B00080916A028093F10017CF811120CF9091EF
:1048C0007102923008F01BCF8091E800877F8093BF
:1048D000E80090936A020E94472180916A0288232F
:1048E00011F084E005C08091E30087FDFACF81E0FC
:1048F00080936E020E94921E02CF0895CF93809102
:104900006E02882399F0C091E900CF708091EC008D
:1049100080FD0EC080E0C82B1092E9008091E80075
:1049200083FD0E941F23CF70C093E900CF910895AB
:1049300080E8F1CFAA1BBB1B51E107C0AA1FBB1F18
:10494000A617B70710F0A61BB70B881F991F5A951B
:10495000A9F780959095BC01CD01089597FB072E8E
:1049600016F4009407D077FD09D00E949A2407FC22
:1049700005D03EF4909581959F4F0895709561956F
:104980007F4F0895EE0FFF1F0590F491E02D0994DD
:10499000F999FECF92BD81BDF89A992780B5089507
:1049A000A6E1B0E044E050E00C940225A8E1B0E0BC
:1049B00042E050E00C940225262FF999FECF92BDDB
:1049C00081BDF89A019700B4021639F01FBA20BDD4
:1049D0000FB6F894FA9AF99A0FBE08950396272F06
:1049E0000E94DD240E94DC24252F0E94DD24242F38
:1049F0000C94DD240196272F0E94DD240C94DC24E6
:104A0000DC01CB01FC01F999FECF06C0F2BDE1BD8E
:104A1000F89A319600B40D9241505040B8F708957D
:044A2000F894FFCF38
:104A2400FFB901B51D2A1EB81DF41DB91D01F0F40E
:104A34003534979630313392379091936667F1F518
:044A4400F6F736004B
:00000001FF
