:100000000C94A3050C94EA050C94EA050C94EA05FB
:100010000C94EA050C94EA050C94EA050C94EA05A4
:100020000C94EA050C94EA050C9419250C94EC2523
:100030000C94CC180C94EA050C94EA050C94EA058F
:100040000C94EA050C94EA050C94EA050C94EA0574
:100050000C94EA050C9440190C94EA050C94EA05FA
:100060000C94EA050C94EA050C94EA050C94EA0554
:100070000C94EA050C94EA050C94EA050C94EA0544
:100080000C94EA050C94EA050C94EA050C94EA0534
:100090000C94EA050C94EA050C94EA050C94EA0524
:1000A0000C94EA050C94EA050C94EA053A003B002E
:1000B00029001E001F002000210022002300240030
:1000C0002500260027002D002E002A003C003D00C0
:1000D0002B0014001A000800150017001C0018005F
:1000E0000C00120013002F00300028003E003F00DB
:1000F000390004001600070009000A000B000D007B
:100100000E000F00330034003200010040004100B7
:10011000E10031001D001B00060019000500110060
:100120001000360037003800E500010042004300AF
:10013000E000E300E20000002800000001512C0074
:100140000000E200E70001000151E400C35CC45C70
:100150003502010001000100010001000100010061
:1001600001000100010001000100005C010001002C
:100170000100010001000100010001000100010077
:10018000010001000100010001000100C55CC65C26
:100190000100010001000100010001000100010057
:1001A000010001000100010001000100C75CC85C02
:1001B0000100010001000100010001000100010037
:1001C000010001000100010001000100C95CCA5CDE
:1001D0000100010001000000010000000100010019
:1001E00000000100010001000100010044454255EA
:1001F000473A20656E61626C65642E0A000A00252C
:1002000030313662003A200025303258000A722F11
:100210006320303132333435363738394142434444
:1002200045460A000A002530325820006B65796285
:100230006F6172645F7265706F72743A20000A00B9
:1002400025303258006B6579626F6172645F736547
:10025000745F6C65643A2000290A002575002F0040
:100260002575005D2800256400200025640020001D
:1002700025640020002564007C0025303258006D84
:100280006F7573656B6579205B62746E7C7820791D
:10029000207620685D287265702F61636C293A2092
:1002A0005B006D6B5F776865656C5F74696D655F3A
:1002B000746F5F6D6178203D2025640A006D6B5F6F
:1002C000776865656C5F6D61785F737065656420E4
:1002D0003D2025640A006D6B5F74696D655F746F06
:1002E0005F6D6178203D2025640A006D6B5F6D6154
:1002F000785F7370656564203D2025640A006D6B2E
:100300005F696E74657276616C203D2025640A0019
:100310006D6B5F64656C6179203D2025640A006D1A
:100320006B5F776865656C5F74696D655F746F5F3F
:100330006D6178203D2025640A006D6B5F776865EC
:10034000656C5F6D61785F7370656564203D202525
:10035000640A006D6B5F74696D655F746F5F6D61DA
:1003600078203D2025640A006D6B5F6D61785F73B6
:1003700070656564203D2025640A006D6B5F696EC1
:1003800074657276616C203D2025640A006D6B5F98
:1003900064656C6179203D2025640A000A0025759A
:1003A00000363A20776865656C5F74696D655F74C7
:1003B0006F5F6D61783A20000A00257500353A209C
:1003C000776865656C5F6D61785F73706565643AC9
:1003D00020000A00257500343A2074696D655F7449
:1003E0006F5F6D61783A20000A00257500333A206E
:1003F0006D61785F73706565643A20000A00257549
:1004000000323A20696E74657276616C286D7329CA
:100410003A20000A00257500313A2064656C617944
:10042000282A31306D73293A20000A092D2056619F
:100430006C756573202D0A004D3E004D25643E20ED
:10044000003F007365742064656661756C740A0012
:10045000433E200077686572652064656C74613A7C
:1004600020637572736F723D25642C207768656513
:100470006C3D25640A53656520687474703A2F2FAB
:10048000656E2E77696B6970656469612E6F72673E
:100490002F77696B692F4D6F7573655F6B65797326
:1004A0000A000A092D204D6F7573656B6579202D43
:1004B0000A4553432F713A09717569740A313A0933
:1004C00064656C6179282A31306D73290A323A09E2
:1004D000696E74657276616C286D73290A333A0906
:1004E0006D61785F73706565640A343A0974696D8B
:1004F000655F746F5F6D61780A353A097768656585
:100500006C5F6D61785F73706565640A363A097770
:100510006865656C5F74696D655F746F5F6D617848
:100520000A0A703A097072696E742076616C75659A
:10053000730A643A097365742064656661756C7446
:10054000730A75703A092B310A646F776E3A092D78
:10055000310A706775703A092B31300A7067646F21
:10056000776E3A092D31300A0A7370656564203D53
:100570002064656C7461202A206D61785F737065FA
:100580006564202A2028726570656174202F2074AC
:10059000696D655F746F5F6D6178290A003F004D7A
:1005A0003E2000433E20004C25640A0074696D65BE
:1005B000725F72656164333228293A202530346CC9
:1005C000580A006B6579626F6172645F69646C657B
:1005D0003A2025580A006B6579626F6172645F701A
:1005E000726F746F636F6C3A2025580A00686F73DE
:1005F000745F6B6579626F6172645F6C65647328A8
:10060000293A2025580A000A092D2053746174756F
:1006100073202D0A004743433A20362E322E3020D5
:100620004156522D4C4942433A20322E302E302032
:100630004156525F415243483A20617672350A0072
:100640004F5054494F4E533A204C554641204D4F40
:100650005553454B45592045585452414B45592017
:10066000434F4E534F4C4520434F4D4D414E442038
:100670003531320A004255494C443A2022302E3559
:100680002E3133322D342D673330353032392D64ED
:100690006972747922202830393A35363A30392057
:1006A0004F63742031302032303137290A005649E7
:1006B000443A203078464545442844616E67657267
:1006C0006F757320506172747329205049443A2029
:1006D000307836303630284B6F6E6120436C617352
:1006E00073696329205645523A20307830303033D0
:1006F0000A00444553433A20514D4B206B657962C3
:100700006F617264206669726D7761726520666FD1
:1007100072204B6F6E6120436C61737369630A00D2
:100720000A092D2056657273696F6E202D0A000A22
:10073000092D20436F6E736F6C65202D0A4553435E
:100740002F713A09717569740A6D3A096D6F757385
:10075000656B65790A000A092D204D616769632080
:100760002D0A443A094465627567204D65737361CB
:10077000676520546F67676C650A583A094D617464
:10078000726978204465627567204D6F64652054F6
:100790006F67676C65202D2053686F77206B6579D4
:1007A0007072657373657320696E206D6174726910
:1007B0007820677269640A4B3A094B6579626F6108
:1007C000726420446562756720546F67676C6520AA
:1007D0002D2053686F77206B657970726573732075
:1007E0007265706F72740A4D3A09446562756720CC
:1007F0004D6F75736520546F67676C650A563A09CB
:1008000056657273696F6E0A533A09537461747551
:10081000730A433A09416374697661746520436FD2
:100820006E736F6C65204D6F64650A46312D4631DD
:10083000303A0953776974636820746F204C61798A
:10084000657220302D392028463130203D204C3033
:10085000290A302D393A0953776974636820746F17
:10086000204C6179657220302D390A4553433A098D
:1008700053776974636820746F204C6179657220C6
:10088000302028616C7465726E617465206B6579C7
:100890002031290A47524156453A09537769746312
:1008A0006820746F204C6179657220302028616C5B
:1008B0007465726E617465206B65792032290A5007
:1008C000415553453A094A756D7020746F20426F47
:1008D0006F746C6F6164657220285265736574294A
:1008E0000A003F000A6D6F7573653A206F66660AED
:1008F000000A6D6F7573653A206F6E0A000A6B65AA
:1009000079626F6172643A206F66660A000A6B65ED
:1009100079626F6172643A206F6E0A000A6D6174C9
:100920007269783A206F66660A000A6D61747269AE
:10093000783A206F6E0A000A64656275673A206F24
:1009400066660A000A64656275673A206F6E0A007F
:100950000A0A4A756D70696E6720746F20626F6F46
:10096000746C6F616465722E2E2E2000433E200051
:100970005B735D004B6579626F61726420737461B3
:1009800072742E0A005B575D005B535D005B525D25
:10099000005B445D005B435D001A034B006F006E1B
:1009A000006100200043006C006100730073006967
:1009B00000630000002003440061006E00670065D2
:1009C0000072006F0075007300200050006100721B
:1009D0000074007300000004030904090274000499
:1009E0000100A0FA0904000001030101000921111E
:1009F0000100012240000705810308000A090401E3
:100A0000000103010200092111010001224D00072C
:100A100005820308000A090402000103000000091E
:100A200021110100012236000705830308000A098D
:100A30000403000203000000092111010001222229
:100A400000070584032000010705040320000112AC
:100A500001100100000008EDFE60600300010200CB
:100A6000010631FF0974A1010975150026FF0095E3
:100A700020750881020976150026FF00952075086B
:100A80009102C005010980A101850216010026031B
:100A9000001A81002A8300751095018100C0050CA1
:100AA0000901A1018503160100269C021A01002AF2
:100AB0009C02751095018100C005010902A1010980
:100AC00001A10005091901290515002501950575E4
:100AD0000181029501750381010501093009311574
:100AE00081257F95027508810609381581257F9536
:100AF0000175088106050C0A38021581257F9501CC
:100B000075088106C0C005010906A101050719E0A5
:100B100029E71500250195087501810295017508E1
:100B200081010508190129059505750191029501B5
:100B3000750391010507190029FF150026FF00958F
:100B40000675088100C011241FBECFEFDAE0DEBFBA
:100B5000CDBF04B603FE27C080910202909103022C
:100B6000A0910402B09105028730904BA740B04B92
:100B7000D1F4109202021092030210920402109219
:100B8000050214BE84B7877F84BF0FB6F894A8957A
:100B900080916000886180936000109260000FBEB9
:100BA000E0E0FFE3099511E0A0E0B1E0E8E2F0E564
:100BB00002C005900D92A634B107D9F722E0A6E451
:100BC000B1E001C01D92A230B207E1F70E944722B6
:100BD0000C9412280C940000FF93EF93E0914601CF
:100BE000F0914701309709F00995EF91FF91089531
:100BF000FC018591803011F0EFDFFBCF0895FF27D6
:100C0000E0E230E247FF0CC0419597FF09C0EDE2FA
:100C10006095709580959095611D711D811D911D48
:100C200027FF02C0219530E350E2AA27660F771F05
:100C3000881F991FAA1FA41710F0A41B63955A952B
:100C4000A9F7AA3008F0A95FA05DAF93F3956115ED
:100C500071058105910541F7ED3211F4EF93F3959C
:100C6000F21718F43F93F395FBCF8F91B5DFFA9508
:100C7000E1F70895E991F9918591803021F085326D
:100C800019F0AADFF9CF089520E0E8945591553284
:100C9000C1F3503311F4689455915A3348F45053CA
:100CA00090F3220F022E220F220F200D250FF4CFDA
:100CB0000EF4219589919991533619F3533729F1FF
:100CC000533559F1BC0188279927E8945C3621F403
:100CD0008991999168945591543639F446EF7EF094
:100CE00077FF0DC08FEF9FEF0AC055374AE039F00C
:100CF000583540E121F0523642E009F00895FF9363
:100D0000EF937DDFEF91FF91B7CFFF93EF93FC015E
:100D100081918030B9F360DFFBCFFF93EF9368DF01
:100D2000F1CFDF93CF93CDB7DEB72596A3DFCF9179
:100D3000DF9108950C94B1060C94B2060C94B3069E
:100D40000895611107C0FC018281882331F085EE8E
:100D50000E94C70D80E090E0089585EE0E94C20ECB
:100D6000F9CF0895089581E0089581E008950E94E3
:100D7000F0112FEF84E39CE0215080409040E1F798
:100D800000C000000C9466190F931F93CF93DF935C
:100D90008C01FC01C081D181CE010E94EC16BE0104
:100DA0000E941208EC01B8010E949E06882331F0CF
:100DB000B801CE010E94750A8111ECC080E0DF917C
:100DC000CF911F910F910895F80182818823B1F38B
:100DD0008091D20181608093D2018CEE91E00E94DB
:100DE000F805ECCFF8018281882341F380E00E946E
:100DF000E422E4CFF8018281882309F4B7C00E947D
:100E00002718811102C00E940D180E943A1890E024
:100E10009093F4018093F301FE01E350FC45E2312D
:100E2000F105C0F4E85EF84F8091F3010C94C227FD
:100E30003607380743073A073C073E074007420793
:100E400045074707490754074B074D074F07510709
:100E5000530756078091F30181608093F3018091DD
:100E6000F3010E943E180E94F011A8CF8260F5CFD6
:100E70008460F3CF8061F1CF8062EFCF8064EDCFEB
:100E80008068EBCF84608860E8CF8E7FE6CF8D7F6F
:100E9000E4CF8B7FE2CF8F7EE0CF8F7DDECF8F7B65
:100EA000DCCF8F77DACF8B7F877FD7CF87FB9927F0
:100EB00090F921E0922790FB87F9CFCF80914D01E7
:100EC00081110FC08091490190914A010E94161929
:100ED000883C910530F486E20E94C70D86E20E94AC
:100EE000C20E82E00E942A0F69CFF8018281882316
:100EF00051F010924E010E94FE1890934C01809385
:100F00004B0180E275C080914E0181110FC080912C
:100F10004B0190914C010E941619883C910530F4C8
:100F200087E20E94C70D87E20E94C20E80E2DACFFC
:100F30000E94A117982FF801828120910001309121
:100F400001018823E1F09A7A81E009F480E080933E
:100F50004801911112C069E2C9010E9476180E94ED
:100F60006E1781E080934D0180934E01C801DF919F
:100F7000CF911F910F910C94B50665E3EDCF809151
:100F80004801811105C069E2C9010E947818E7CFC4
:100F900065E3FACFC531FCE5DF0751F290F4C130CB
:100FA000ECE5DE0709F410CF08F024CFC115DC45CD
:100FB000C1F6F8018281882309F400CF0E94B706A8
:100FC000FDCEC43DECE5DE0709F48FCFA0F4C33DB0
:100FD000DC4539F6F8018281882309F46FCF10923D
:100FE0004D010E94FE1890934A018093490182E0CE
:100FF0000E94230FE3CEC73DECE5DE0709F4F2CEF5
:10100000C83DDC4509F0ADCFF8018281882309F4A1
:10101000D5CE82E0ECCE0C949A060C949C060C94EF
:10102000A0060895E72FF0E095E0899FE00DF11DFF
:10103000112484E0EE0FFF1F8A95E1F7E60FF11D02
:10104000EE0FFF1FE455FF4F859194910895FC0129
:10105000EE0FFF1FE350FE4F859194910895CF93BB
:10106000DF930E9412080E94C709EC018115904489
:1010700008F091C0C11580E3D80708F005C1C03E53
:10108000D10508F071C0C03CD10508F0E9C0C83AEC
:10109000D10580F4C53AD10508F0E9C0C130D105C9
:1010A00009F46EC020F0C430D10508F069C0C0E07A
:1010B000D0E066C0CD3BD105D0F7C83AD10509F4E0
:1010C00027C1C93AD10509F426C1CA3AD10509F4A4
:1010D00025C1CB3AD10509F424C1CC3AD10509F494
:1010E00023C1CB3BD10509F422C1CC3BD10509F486
:1010F00021C1CD3AD10509F420C1C03BD10509F485
:101100001FC1CE3AD10509F41EC1CF3AD10509F469
:101110001DC1C13BD10509F41CC1C23BD10509F475
:101120001BC1C33BD10509F41AC1C43BD10509F465
:1011300019C1C53BD10509F418C1C63BD10509F455
:1011400017C1C73BD10509F416C1C83BD10509F445
:1011500015C1C93BD10509F414C1CA3BD10509F435
:1011600013C1C0E0D4E40CC0CF3FD10509F060F456
:10117000C03FD10508F086C0C83ED10508F097CF22
:10118000CE01DF91CF910895C11520E2D207C0F3BF
:10119000CE019F7068C0C11584E5D807A0F5C115C0
:1011A00023E5D20708F091C0C11581E5D80708F5FD
:1011B000C11520E5D20708F471C0CE0154E0969520
:1011C00087955A95E1F783709C2F937021E030E06A
:1011D00002C0220F331F9A95E2F73C68382BC69560
:1011E000C695C37080E2C89FE0011124C22BD32BA7
:1011F000C7CFC11582E5D80708F053C0DC2FCC2734
:10120000C16FD06ABDCFC11526E5D20758F49C2F17
:101210008827C115D54508F46CC0EC01CC27DF71D7
:10122000D062AECFC11588E5D80708F440CFC1150C
:1012300029E5D20708F461C0CE019056811590428D
:1012400008F035CF8D2F8F710E94480ADD27D062BC
:1012500090E0982F882788279F71C82BD92B90CF93
:10126000CE01805C91090E942708EC0189CFC53A24
:10127000D10509F447C0C63AD10509F046C0C2E815
:10128000D0E47ECFD0657CCFCE019927D3FF03C0B9
:10129000EC01D86C75CFEC01D06C72CFDF70D06AE6
:1012A0006FCFCE018370992721E030E002C0220F7A
:1012B000331F8A95E2F7C695C69580E2C89FE00184
:1012C0001124C22BD32BDC685BCFCE01837099270E
:1012D00021E030E002C0220F331F8A95E2F7C69565
:1012E000C69580E2C89FE0011124C22BD32BDA6897
:1012F00047CFEC01C46FD06A43CFDC2FCC27C06F3F
:10130000D06A3ECFC1E8D0E43BCFC3E8D0E438CFC9
:10131000C2EED4E435CFC9EED4E432CFCAEED4E481
:101320002FCFC5EBD4E42CCFC6EBD4E429CFC3EB4D
:10133000D4E426CFC4EBD4E423CFC7EBD4E420CF4E
:10134000CCECD4E41DCFCDECD4E41ACFC3E8D5E483
:1013500017CFCAE8D5E414CFC2E9D5E411CFC4E968
:10136000D5E40ECFC1E2D6E40BCFC3E2D6E408CF7A
:10137000C4E2D6E405CFC5E2D6E402CFC6E2D6E4A5
:10138000FFCEC7E2D6E4FCCECAE2D6E4F9CE82387C
:10139000910549F1B0F48133910509F45AC048F43C
:1013A0008932910509F450C08A32910509F456C07A
:1013B00008958533910509F442C08933910599F068
:1013C0000895833E910521F138F4803E910581F026
:1013D000823E9105A1F00895863E910501F1873E78
:1013E000910531F108952091F3012370E1F50895FD
:1013F0002091F30120FF12C089E390E0089520912D
:10140000F30122FF0BC024FF31C080E090E008957B
:101410002091F30122FD2DC024FDF7CF08952091E6
:10142000F30123FFFBCF24FDF0CF87EE90E008957A
:101430002091F30123FFF0CF86EE90E008952091F4
:10144000F30125FD19C008952091F30125FD17C072
:1014500008952091F30126FD15C008952091F30110
:1014600026FD13C0089580EE90E0089583EE90E08D
:10147000089582EE90E0089589E290E0089585E372
:1014800090E008958AE290E0089581E390E0C6CF6D
:10149000CF93C82F0E943A1890E09093F401809364
:1014A000F30182FF06C09C2F9871983079F4C77FB2
:1014B000C46083FF06C09C2F9871983171F4C77E79
:1014C000C46184FDC77E8C2FCF9108959C2F9471A9
:1014D000943079F7CB7FC860ECCF9C2F9471943116
:1014E00081F7CB7EC861EDCF08950F931F93CF9303
:1014F0008C01FB018281811106C0C1E08C2FCF914C
:101500001F910F910895C0915C01C11125C0063152
:101510001C4599F70E94740A81E080935C010E9447
:10152000FE1890935B0180935A0110924F01109224
:1015300051011092500110925301109252011092D9
:1015400055011092540110925701109256011092B9
:10155000590110925801D2CF80915A0190915B01AC
:101560000E941619883C910540F680914F01E82FA2
:10157000F0E0EE0FFF1FE05BFE4F118300838F5FF3
:1015800080934F01C0E0BACF85B7806885BF85B72B
:10159000806885BFA3E1B1E061E070E08D91E82F44
:1015A000E295EF70F0E041A18F709B0101C0220F26
:1015B0008A95EAF7922F9095942391A382A1822B8A
:1015C00082A381E0A332B80749F7A3E2B1E061E06A
:1015D00070E08D91E82FE295EF70F0E041A18F70FF
:1015E0009B0101C0220F8A95EAF7922F90959423D0
:1015F00091A382A1822B82A381E0A832B80749F788
:10160000E7E6F1E0ADE5B1E081E791E011921192FA
:101610001D921D928E179F07C9F70C940B082F92ED
:101620003F924F925F926F927F928F929F92AF9272
:10163000BF92CF92DF92EF92FF920F931F93CF93BF
:10164000DF9323E1C22E21E0D22E00E010E0AA2495
:10165000A394B12C55245394D6018D916D01E82F9C
:10166000E295EF70F0E091A18F70B50101C0660FB7
:101670008A95EAF7892F862B81A382A1762E709412
:10168000872182A3B0EABA95F1F7A501002E02C026
:10169000440F551F0A94E2F74A01809490948DE517
:1016A000E82E81E0F82E93E2292E91E0392EE70111
:1016B000612C88819981D1014D901D01242D2295A5
:1016C0002F7030E0D90190962C9130E0B42DBF708E
:1016D00002C035952795BA95E2F720FD56C09C01CA
:1016E000242B352B3983288328813981821793074E
:1016F00011F066246394229681E0C736D807C9F6B4
:1017000081A1782271A282A1682B62A3662041F098
:10171000509271010E94FE189093730180937201A0
:101720000F5F1F4F0031110509F096CF80917101B5
:101730008823A9F080917201909173010E9416197B
:10174000069768F0E7E6F1E0D7018D919D917D0164
:1017500081939193CA17DB07B9F7109271010E9428
:101760000D0881E0DF91CF911F910F91FF90EF90D5
:10177000DF90CF90BF90AF909F908F907F906F90B1
:101780005F904F903F902F9008959C012821392120
:10179000A9CFE82FF0E0EE0FFF1FE959FE4F80813F
:1017A00091810895CF92DF92EF92FF920F931F9352
:1017B000CF93DF938DE092E00E94F80587E6E82E54
:1017C00081E0F82EC0E0D0E098E0C92E92E0D92E5A
:1017D0000FEF11E0DF93CF93DF92CF920E9491063B
:1017E00085E092E00E94F805F701819191917F01D7
:1017F0000E94FA179F938F931F930F930E94910655
:101800008DEF91E00E94F80521968DB79EB708965E
:101810000FB6F8949EBF0FBE8DBFC530D105D1F66F
:10182000DF91CF911F910F91FF90EF90DF90CF90BC
:10183000089590937901809378010895E09178015B
:10184000F0917901309721F00190F081E02D099419
:1018500080E00895EF92FF921F93CF93DF93F82ECD
:10186000192FE0917801F09179013097A9F1028068
:10187000F381E02D09958091D20182FF2DC080FF78
:1018800004C08CE292E00E94F805CF2DD12F18E021
:1018900086E2E82E82E0F82E8091D20180FF0BC014
:1018A00088811F928F93FF92EF920E9491060F9072
:1018B0000F900F900F90115021961111EDCF809144
:1018C000D20180FF09C084E292E0DF91CF911F91A5
:1018D000FF90EF900C94F805DF91CF911F91FF904E
:1018E000EF900895E0917801F0917901309721F01F
:1018F0000480F581E02D09940895209176013091BE
:1019000077012817390771F090937701809376015A
:10191000E0917801F0917901309721F00680F7810C
:10192000E02D0994089520917401309175012817D4
:10193000390771F09093750180937401E0917801FB
:10194000F0917901309721F00084F185E02D099420
:10195000089508950C94A90C81E008950E94F5184B
:101960000E94C40A0C948819CF93C82F8091D20189
:1019700082FF1EC080FF04C085E492E00E94F8054B
:101980008091D20180FF0CC01F92CF9380E492E03F
:101990009F938F930E9491060F900F900F900F903E
:1019A0008091D20180FF04C08EE392E00E94F8058E
:1019B0008C2FCF910C940F085F926F927F928F9231
:1019C0009F92AF92BF92CF92DF92EF92FF920F93CE
:1019D0001F93CF93DF93CDB7DEB72A970FB6F89456
:1019E000DEBF0FBECDBF0E940F0B0E94AC0C811159
:1019F00034C08FEF89838A831B820E94FE18816026
:101A0000782F9D838C8349815A816B818D810E94BF
:101A1000990D0E94991B0E941E0C90917A018917C2
:101A200009F471C00E941E0C80937A012A960FB6A9
:101A3000F894DEBF0FBECDBFDF91CF911F910F9104
:101A4000FF90EF90DF90CF90BF90AF909F908F90DE
:101A50007F906F905F900C94B40C9BE7A92E91E05F
:101A6000B92E00E010E088248394912C502E802F12
:101A70000E94C90B7C01F501C190D1905F018C15CA
:101A80009D0531F40F5F1F4F0530110579F7B1CF78
:101A90008091D20181FD0E94D20B80E090E0CE24A3
:101AA000DF243401082E02C0660C771C0A94E2F78A
:101AB000960126213721232B09F18E835F82E620B0
:101AC000F72081E0EF2809F480E088870E94FE1863
:101AD0008160782F9A8789874E815F8168858A85A2
:101AE0000E94990D000F111FF801E558FE4F8081EB
:101AF000918168267926718260828BCF0196803130
:101B0000910579F6BFCF2A960FB6F894DEBF0FBEC7
:101B1000CDBFDF91CF911F910F91FF90EF90DF909C
:101B2000CF90BF90AF909F908F907F906F905F907D
:101B30000895CF93DF93CDB7DEB72B970FB6F89408
:101B4000DEBF0FBECDBF4F83588769877A878B87EB
:101B5000DE01119686E0FD0111928A95E9F785E094
:101B6000FE01379601900D928A95E1F749815A81DD
:101B70006B817C818D819E810E94B9142B960FB65A
:101B8000F894DEBF0FBECDBFDF91CF910895CF9304
:101B9000C82F882309F4F4C08238B9F40E941E0CBF
:101BA00081FDEEC069E380910001909101010E94E6
:101BB00076180E946E1769E38091000190910101EF
:101BC0000E947818CF910C946E17833879F40E9494
:101BD0001E0C80FDD5C063E580910001909101014C
:101BE0000E9476180E946E1763E5E6CF843879F478
:101BF0000E941E0C82FDC4C067E480910001909198
:101C000001010E9476180E946E1767E4D5CF8CEF11
:101C10008C0F813A68F48C2F0E94A41E8111B0C0F1
:101C20006C2F80910001909101010E947618CACF1B
:101C300080E28C0F883048F4C77081E001C0880FC3
:101C4000CA95EAF70E94A417BDCF8BE58C0F8330AD
:101C500078F4C53A39F0C63A41F083E890E0CF9184
:101C60000C947D0C81E890E0FACF82E890E0F7CF09
:101C700088E58C0F853108F083C0C83A09F441C06B
:101C8000C93A09F441C0CA3A09F441C0CB3A09F44F
:101C900041C0CC3A09F441C0CB3B09F441C0CC3B34
:101CA00009F441C0CD3A09F441C0C03B09F441C038
:101CB000CE3A09F441C0CF3A09F441C0C13B09F41E
:101CC00041C0C23B09F441C0C33B09F441C0C43B1D
:101CD00009F441C0C53B09F441C0C63B09F441C009
:101CE000C73B09F441C0C83B09F441C0C93B09F4F2
:101CF00041C0CA3B09F441C080E090E0CF910C9410
:101D0000930C82EE90E0FACF89EE90E0F7CF8AEE66
:101D100090E0F4CF85EB90E0F1CF86EB90E0EECF52
:101D200083EB90E0EBCF84EB90E0E8CF87EB90E0A3
:101D3000E5CF8CEC90E0E2CF8DEC90E0DFCF83E854
:101D400091E0DCCF8AE891E0D9CF82E991E0D6CF6B
:101D500084E991E0D3CF81E292E0D0CF83E292E0B8
:101D6000CDCF84E292E0CACF85E292E0C7CF86E28F
:101D700092E0C4CF87E292E0C1CF8AE292E0BECF88
:101D8000CF910895882309F45DC08238B1F40E9490
:101D90001E0C81FF57C069E3809100019091010101
:101DA0000E9476180E946E1769E38091000190915D
:101DB00001010E9478180C946E17833879F40E9400
:101DC0001E0C80FF3FC063E58091000190910101EE
:101DD0000E9476180E946E1763E5E7CF843879F485
:101DE0000E941E0C82FF2EC067E48091000190913A
:101DF00001010E9476180E946E1767E4D6CF9CEF0F
:101E0000980F913A10F4682FD0CF90E2980F983045
:101E100050F4877091E001C0990F8A95EAF7892FF5
:101E20000E94AA17C8CF9BE5980F933020F480E05A
:101E300090E00C947D0C885A853120F480E090E08D
:101E40000C94930C0895882321F00E94A4170C94FD
:101E50006E170895882321F00E94AA170C946E171C
:101E600008958F929F92AF92BF92DF92EF92FF926E
:101E70000F931F93CF93DF937C01D62FC72FFC01C5
:101E8000058102950F70128111110E94C3170E94E3
:101E90006717D82E882371F0112339F180E28D0F56
:101EA000883018F182E00E9450170E94671791E075
:101EB000D82ED926BC2EB2948FE0B8228B2D90E07C
:101EC000FC01EB59F04F0C94C227770F770FB60F38
:101ED000B60FF50F3110A50FA50F7310A50F111137
:101EE00011118F11A50FA50F9811D12CE3CF8C2FB5
:101EF000807FCF70882311F0C295C07F1123A9F095
:101F0000CC2359F080E28D0F883010F0D11109C038
:101F10008C2F0E94A4170E946E178D2F0E94C70D50
:101F200014C08C2F0E94B517F6CF8D2F0E94C20EC1
:101F3000CC2359F080E28D0F883010F0D11112C0FF
:101F40008C2F0E94AA170E946E1798E0B91609F408
:101F500003C1B91608F460C086EF8B0D823008F01B
:101F60005BC0FAC08C2F0E94BB17EDCF8C2F807FF7
:101F7000CF70803211F0C295C07FDD2369F0D1307F
:101F800019F1112361F1002321F1F701858180FF0F
:101F9000C4CF8F7085831DC0112359F08C2F011180
:101FA00003C00E94230FD1CF0130D9F70E94D71769
:101FB000CCCF011106C00E94DA178C2F0E942A0F85
:101FC000C4CF0130C1F7C1CF112329F0063008F08A
:101FD000BCCF8C2FE6CF053008F0B7CFEECF002373
:101FE00061F38D2F0E94C20EB0CF8C2F86958695FF
:101FF000837059F0813009F0A8CF112379F18D2F2A
:102000009C2F93700E94930C07C0112321F18D2FF8
:102010009C2F93700E947D0CDD2009F490C10E94DA
:10202000431780FD8CC1F70112820E943D170E9468
:102030005016C7010E94AB110E943D17DF91CF914E
:102040001F910F91FF90EF90DF90BF90AF909F9006
:102050008F900C94711680E090E0DCCF80E090E0EF
:10206000D1CF112309F1D53F99F0D63FB9F0D43F34
:1020700049F48091ED019091EE0181609093EE0121
:102080008093ED018D2F0E94201A0E940C1BC4CF5B
:102090008091ED019091EE018260F0CF8091ED0191
:1020A0009091EE018460EACFD53F89F0D63FA9F048
:1020B000D43F49F48091ED019091EE018E7F909391
:1020C000EE018093ED018D2F0E94881ADECF809162
:1020D000ED019091EE018D7FF2CF8091ED01909115
:1020E000EE018B7FECCF8C2F837009F04CC0111167
:1020F00033C02D2F229526952770220F220F6D2F8A
:102100006F70862E912CA12CB12C022E04C0880C4D
:10211000991CAA1CBB1C0A94D2F7D4FF22C06FE002
:1021200070E080E090E004C0660F771F881F991F61
:102130002A95D2F76095709580959095C695C6952D
:10214000C370C23091F0C0F4682979298A299B298B
:10215000C130B1F00E9406160E941E0C0E940F08AA
:102160005BCF60E070E0CB01E9CF682979298A294B
:102170009B290E941816F0CF0E940616C501B401D3
:102180000E94F415E9CF1123C1F18C2F81708823AF
:1021900019F32D2F229526952770220F220F6D2FD0
:1021A0006F70862E912CA12CB12C022E04C0880CAD
:1021B000991CAA1CBB1C0A94D2F7D4FF20C06FE064
:1021C00070E080E090E004C0660F771F881F991FC1
:1021D0002A95D2F76095709580959095C695C6958D
:1021E000C370C23081F0B0F4682979298A299B290B
:1021F000C130A1F00E94C716AFCF8695C8CF60E06E
:1022000070E0CB01EBCF682979298A299B290E94AC
:10221000D916A2CF0E94C716C501B4010E94B516F7
:102220009BCF8D2F90E0FC01E05EF109E531F105D7
:1022300008F061C0E25EFE4E0C94C22733113311E8
:10224000331133113311331133113311331133116E
:1022500033113311331133113311331140114E1136
:1022600055115C116611DF708C2F8F71112321F0D5
:102270000E9450168D2F95CE0E9471168D2F9ECEE6
:10228000112341F0053008F060CE8C2F8F710E9431
:1022900094165BCE063008F058CEF7CF112339F0F4
:1022A0008C2F8F710E94501650CE1123C9F38C2FA2
:1022B0008F710E94711649CE112329F08C2F8F71D6
:1022C0000E943B1642CE0E9436163FCE112349F0A3
:1022D000CF718C2F0E94501663E08C2F0E944717FD
:1022E00034CE81E00E945017023008F42ECE82E0F6
:1022F0000E9450172ACE112319F0002389F20DCE27
:102300000023A9F2D93309F06CCEFFEF27EE83E06A
:10231000F15020408040E1F700C0000062CE4C2F19
:102320004F706D2FC7010E94A1060E94671574CEE1
:102330004C2F4F706D2FC7010E9411086DCEDF9199
:10234000CF911F910F91FF90EF90DF90BF90AF90D2
:102350009F908F9008950F931F93CF93DF93EC017D
:10236000988189812B813C81232B39F08F3F19F48F
:1023700081E09F3F19F080E001C081E080FD13C043
:10238000CE010E94C406882371F0688179818A8118
:102390000E9439178C010E94EB160E94E215B801C9
:1023A000CE010E94310FDF91CF911F910F910895BF
:1023B0000E94C3170E94D4178091000190910101DF
:1023C0000E947A180E946E170E94251C0E940C1B06
:1023D00080E090E00E947D0C80E090E00C94930CF3
:1023E0000E94B2170C94D8110E942E17E92FE29583
:1023F000EF704E2F50E0FA013297EE30F105D8F42D
:10240000EC5FFD4E0C94C227121212121B121B120B
:102410001D121B121B121B121212121222121B125D
:102420001B122212803F19F020F4803E20F481E03C
:102430000895843FE1F380E00895803EC0F3813F3A
:10244000D1F7F5CF93FB882780F90895CF93DF93D9
:1024500000D000D01F92CDB7DEB70F900F900F9035
:102460000F900F90DF91CF910895CF93DF9300D01D
:1024700000D000D0CDB7DEB726960FB6F894DEBFF9
:102480000FBECDBFDF91CF9108951F93CF93DF9300
:10249000C091850116E080918601C81304C0DF91C8
:1024A000CF911F910895D0E01C9FF0011D9FF00D6A
:1024B0001124E957FE4F40815181628173818481EB
:1024C00095810E9435122196C770E5CF4091B701E2
:1024D0005091B8016091B9017091BA018091BB012E
:1024E0009091BC010C9435121F93CF93DF93809190
:1024F000BC0182958F70D1F48091B9018823B1F02D
:1025000080918501D0918601B091B701C091B80149
:102510004091BA015091BB01A1E0BF3F09F0A0E09A
:10252000BA016095709516E08D1304C0DF91CF91CC
:102530001F91089541155105D9F1CF3FD9F120E000
:1025400090E020FD3CC0189FF001199FF00D112470
:10255000E957FE4F21812C1332C020812B132FC04D
:10256000228121112CC0238134812417350720F1C9
:10257000241B350B283C310510F52091BC012F7030
:1025800020612093BC0126E0289FF001299FF00DD7
:102590001124E457FE4F80818F708061808387EB28
:1025A00091E00E94AB11DF91CF911F910C944512E5
:1025B00021E0C6CF2A2FC4CF260F371FDBCF0196CD
:1025C0008770B2CFAF92BF92CF92DF92EF92FF921D
:1025D0000F931F93CF93DF93CDB7DEB761970FB6FD
:1025E000F894DEBF0FBECDBF8C0185E0F801DE019F
:1025F0001D9601900D928A95E1F7D8014C911196A4
:102600005C9111971296EC903091B7016091B801EE
:102610008091BA019091BB01009739F06F3F19F496
:1026200021E03F3F19F020E001C021E0B22FB1705E
:10263000BB2E20FD90C1F801C380D480A090B901C9
:10264000AA2009F432C12091BC01C816D90610F1A4
:10265000D601A81BB90BCD01FF24F394883C91054A
:10266000F0F0F12C207F09F0E9C07C2DD98AC88ACE
:102670006E2D89890E94261287EB91E00E94AB1192
:10268000E7EBF1E086E0DF011D928A95E9F70E9411
:1026900066121EC0809590958C0D9D1DDDCF822FFA
:1026A000807F09F084C0651325C0341323C0FE2C3D
:1026B000E11020C02F7020612093BC010E9466129F
:1026C00087EB91E00E94AB118091BC01F8018583FA
:1026D0008F2D61960FB6F894DEBF0FBECDBFDF9190
:1026E000CF911F910F91FF90EF90DF90CF90BF900F
:1026F000AF900895CD2839F05F3F19F481E04F3F46
:1027000019F080E001C081E080FD24C081E08E25C9
:10271000F82FF170FF2E80FF3FC08091850120913E
:10272000860136E0821318C04D875E878D859E85B1
:102730000E942E17292F22952F70223008F1243065
:1027400030F59F7009F1D80115969C91907FE1F4C6
:10275000FB2CBECF80E0DCCF90E0389FF001399FAA
:10276000F00D1124E957FE4F6181561306C06081B8
:10277000641303C06281E6120FC001968770D2CF46
:102780009F7011F0882321F3805E883008F3C80120
:102790000E94AB11BF2CDCCFFE2CEE2009F498CFA9
:1027A0008091BC0181608093BC01F12C91CF6513B5
:1027B00014C0341312C0E11010C08091BC01F801A4
:1027C0008583C8010E94AB1186E0F801A7EBB1E058
:1027D00001900D928A95E1F75ACF4D875E878D85DE
:1027E0009E850E94F411882309F4BFC0EE2009F4ED
:1027F000BCC02091BC01822F82958F7090E002971F
:1028000074F08091B7019091B80198878F831986F1
:10281000DB86CA862C87CE0107960E94AB1186E024
:10282000F801A7EBB1E001900D928A95E1F70E94C3
:1028300074120E946612FF24F3944ACF651314C0E9
:10284000341312C0E11010C08091BC01F8018583DF
:10285000C8010E94AB1186E0E7EBF1E0DF011D92B9
:102860008A95E9F7FA2C34CF4D875E878D859E8552
:102870000E94F411882309F478C0EE2009F475C091
:102880002091BC01822F82958F7090E002973CF2DC
:102890008091B7019091B8019A8389831B82DD8270
:1028A000CC822E83CE010196B8CFC816D90680F00F
:1028B000F601E81BF90BCF01883C910570F0F12C73
:1028C0007C2DD98AC88A6E2D89890E942612D8CE7D
:1028D000809590958C0D9D1DEFCFFE2CEE2009F478
:1028E00044C0651327C0341325C08091BC0180FD0E
:1028F00018C0982F92959F70292F30E0211531052F
:1029000081F0D80115968C9315972F30310509F475
:1029100058CF9F5F9295907F8F70892B15968C93DF
:1029200050CF86E0F801A7EBB1E001900D928A95B7
:10293000E1F7CECE4D875E878D859E850E94F4118E
:1029400081116DCF8091BC0181608093BC01C80171
:102950000E94AB11BDCEEE2041F04D875E878D8584
:102960009E850E94F41181115ACFC8010E94AB11BB
:1029700062CF1F93CF93DF93CDB7DEB72C970FB6FF
:10298000F894DEBF0FBECDBF4F83588769877A8723
:102990008B879C87CE0107960E94E212882349F11B
:1029A0009F8188852A853B85232B39F08F3F19F439
:1029B00081E09F3F19F080E001C081E080FD08C008
:1029C0004F81588569857A858B859C850E94351253
:1029D00016E08091850190918601891348C02C965C
:1029E0000FB6F894DEBF0FBECDBFDF91CF911F9120
:1029F000089586E0FE013796DE01119601900D9252
:102A00008A95E1F7FF81E8856A857B856115710507
:102A100039F0EF3F19F481E0FF3F19F080E001C089
:102A200081E080FDD5CF2091860130E0C90101967B
:102A3000877099274091850150E084179507C9F167
:102A4000F983EA837D836C8396E0929FD001939F04
:102A5000B00D1124A957BE4FFE01319601900D9281
:102A60009A95E1F7809386010E944512B1CF819F2C
:102A7000C001112489579E4F0E94E212882309F455
:102A8000AECFE09185011E9FF0011124E957FE4F62
:102A90004081518162817381848195810E943512C8
:102AA0008091850190E00196877099278093850138
:102AB00090CF0E94F0111092860110928501E7EBF1
:102AC000F1E086E0DF011D928A95E9F788CFEF9269
:102AD000FF920F931F93CF93DF938C01892B81F08B
:102AE000F12CEE24E394E8012196F80184918437D7
:102AF00070F4843008F062C08130B1F08230B1F1FE
:102B0000DF91CF911F910F91FF90EF90089585373E
:102B100009F44FC008F43FC09CE7980F903780F746
:102B20008F770E94C20E4CC00E5F1F4FFE01849132
:102B300090E2980F983060F48770FE2D01C0FF0F6F
:102B40008A95EAF78F2F0E94C6170E946E1702C05F
:102B50000E94C70D8F2D882309F4C5CFEFE9FFE050
:102B60003197F1F700C000008150F5CF0E5F1F4F85
:102B7000FE01849190E2980F983050F48770FE2DFA
:102B800001C0FF0F8A95EAF78F2F0E94CC17DDCF87
:102B90000E94C20EDFCF0E5F1F4FFE01C491CC23F7
:102BA000C9F28FE99FE00197F1F700C00000C15022
:102BB000F6CF0E5F1F4FFE01F490CCCF0E94C70DE1
:102BC0008E01C8CF089508950C94E3150E94E41572
:102BD0006093C1017093C2018093C3019093C401BB
:102BE0000C94D8110C94E6150F931F930091C1011A
:102BF0001091C2012091C3013091C401602B712B4F
:102C0000822B932B1F910F910C94E6150F931F931A
:102C10000091C1011091C2012091C3013091C40102
:102C200060237123822393231F910F910C94E61547
:102C30000F931F930091C1011091C2012091C30114
:102C40003091C40160277127822793271F910F912C
:102C50000C94E6150E94E3156093BD017093BE01CC
:102C60008093BF019093C0010C94D81160E070E094
:102C7000CB010C942A160F931F9341E050E060E0C3
:102C800070E08A019B0104C0000F111F221F331F37
:102C90008A95D2F7C901B8011F910F910C942A1699
:102CA0000F931F9341E050E060E070E004C0440FD8
:102CB000551F661F771F8A95D2F78091BD019091AD
:102CC000BE01A091BF01B091C0018A019B01082BF8
:102CD000192B2A2B3B2BC901B8011F910F910C9482
:102CE0002A160F931F9341E050E060E070E004C0AB
:102CF000440F551F661F771F8A95D2F7CB01BA0183
:102D000060957095809590950091BD011091BE01E0
:102D10002091BF013091C00160237123822393234E
:102D20001F910F910C942A160F931F9341E050E0CE
:102D300060E070E004C0440F551F661F771F8A953E
:102D4000D2F78091BD019091BE01A091BF01B091D9
:102D5000C0018A019B01082719272A273B27C9019F
:102D6000B8011F910F910C942A160F931F93009195
:102D7000BD011091BE012091BF013091C001602BB7
:102D8000712B822B932B1F910F910C942A160F936A
:102D90001F930091BD011091BE012091BF013091A0
:102DA000C00160237123822393231F910F910C9400
:102DB0002A160F931F930091BD011091BE0120911F
:102DC000BF013091C00160277127822793271F918F
:102DD0000F910C942A160895BF92CF92DF92EF9232
:102DE000FF920F931F93CF93DF938C01C090BD018F
:102DF000D090BE01E090BF01F090C0018091C10170
:102E00009091C201A091C301B091C401C82AD92AEE
:102E1000EA2AFB2ACFE1D0E0BC2ED701C6010C2E56
:102E200004C0B695A795979587950A94D2F780FD2B
:102E30000EC0219788F7B12C8B2DDF91CF911F9178
:102E40000F91FF90EF90DF90CF90BF900895B80161
:102E50008C2F0E942F08019761F3EECFCF93DF9361
:102E6000EC010E94EC16BE010E942F08DF91CF9169
:102E70000895CB010E942E1708958091C501859574
:102E80008595859508958091C5018770089598E08E
:102E9000899F90011124622B6093C5010C945016F8
:102EA0002091C501809582238093C501982F97704A
:102EB00069F430E0482F082E000C550B2417350715
:102EC00029F08595859585950C94711608959091B6
:102ED000C501977081E009F480E00895E091000158
:102EE000F09101018091D1018083E0910001F09186
:102EF000010180819091D001892B8083E0910001B4
:102F0000F091010180819091CF01892B8083909174
:102F1000C601992381F0E0910001F09101018081C7
:102F2000892B808380910001909101010E944318B8
:102F300081111092C60180910001909101010C94C1
:102F40002A0C8091D10108959091D101892B809311
:102F5000D1010895982F90958091D1018923809374
:102F6000D10108951092D10108959091D001892B3B
:102F70008093D0010895982F90958091D001892356
:102F80008093D00108951092D00108959091CF01BF
:102F9000892B8093CF010895982F90958091CF0130
:102FA00089238093CF0108951092CF0108958093D3
:102FB000C60108951092C601089590934701809329
:102FC00046010895829590E09C01220F331F220F45
:102FD000331F2C7C95958795959587958373282B22
:102FE00030E0C901880F991F8A7A35952795257594
:102FF000822B0895CF93DF93D92F0E94E217C82F19
:103000008D2F0E94E2172C2F30E0322F2227A901AA
:10301000482BCA01DF91CF9108956DEE7EEF80E0DD
:1030200090E00E94FC2760E082E090E00E94EA27A6
:1030300060E083E090E00E94EA2760E084E090E0B6
:103040000E94EA2760E085E090E00C94EA2780E0A7
:1030500090E00E94E42721E08D3E9E4F09F020E0A1
:10306000822F089582E090E00C94DC2783E090E0CA
:103070000C94DC2784E090E00C94DC27682F84E03B
:1030800090E00C94EA27FC0131969C01285F3F4FA9
:1030900080E0919191118F5FE217F307D1F70895C6
:1030A0009C01FC0132969FEF80E04191461751F060
:1030B0009F3F19F4411101C0982F8F5F8630A9F707
:1030C0009F3F09F40895290F311D97FD3A95F901A5
:1030D00062830895FC01329608962081261301C070
:1030E00010823196E817F907C1F708950C9450182B
:1030F0000C946A18FC01319608961192E817F907AA
:10310000E1F708958091F901843039F11092D301EB
:1031100020E488E190E00FB6F894A89580936000D1
:103120000FBE2093600080E00E940F0883B7817F6C
:10313000846083BF83B7816083BF7894889583B7A9
:103140008E7F83BF0FB6F894A89580916000886148
:1031500080936000109260000FBE089508950C9453
:10316000AE18CF930E94AF180E940F0B0E94AE18AA
:10317000C0E08C2F0E94C90B892B31F4CF5FC53082
:10318000C1F780E0CF91089581E0FCCF0E94F0115B
:103190000E941E0C0C940F081F920F920FB60F92F4
:1031A00011248F939F93AF93BF938091D30181118B
:1031B00013C08091EF019091F001A091F101B091C5
:1031C000F2014196A11DB11D8093EF019093F00192
:1031D000A093F101B093F201BF91AF919F918F91B4
:1031E0000F900FBE0F901F90189582E084BD93E062
:1031F00095BD9AEF97BD80936E0008952FB7F89410
:103200008091EF019091F001A091F101B091F20154
:103210002FBF08952FB7F8946091EF017091F001DE
:103220008091F1019091F2012FBF0895CF92DF922A
:10323000EF92FF920F931F932FB7F8944091EF01F5
:103240005091F0016091F1017091F2012FBF6A017C
:103250007B01EE24FF248C0120E030E0C016D10673
:10326000E206F30650F0481B590BCA011F910F915B
:10327000FF90EF90DF90CF90089541505109F3CF28
:1032800078941F920F920FB60F9211248F939F93F1
:10329000AF93BF938091EF019091F001A091F10164
:1032A000B091F2010196A11DB11D8093EF019093A1
:1032B000F001A093F101B093F201BF91AF919F9102
:1032C0008F910F900FBE0F901F9018950E949E2413
:1032D000F8942FEF87EA91E6215080409040E1F783
:1032E00000C0000087E090EBDC0180930202909325
:1032F0000302A0930402B09305029CE088E10FB69C
:10330000F894A895809360000FBE90936000FFCF63
:103310000E942718811102C00E940D180E943218C5
:103320008093D2010E943A1890E09093F401809328
:10333000F3010E943618682F70E080E090E00C9452
:10334000F2158091D60180FF12C06091050185E0E1
:10335000689FB001112475956795759567956038DC
:103360007105A8F56115710581F581E0089581FF6A
:1033700009C06091050185E0689FB0011124759531
:103380006795EDCF82FF07C06091050185E0689FDA
:10339000B0011124E4CF9091D7019923A1F060915D
:1033A0000401961788F72091050185E0289F900178
:1033B0001124929FA001939F500D112470E0CA0127
:1033C0000E94AE27CCCF65E070E0862F08958FE78E
:1033D00008958091D60180FF0CC06091030170E0D8
:1033E00075956795759567956115710539F581E056
:1033F000089581FF06C06091030170E0759567959F
:10340000F3CF82FF08C06091030170E0603871055E
:1034100058F38FE708958091D701882369F0609170
:103420000201861780F790910301899FC001112442
:1034300070E00E94AE27EACF61E070E0862F089529
:10344000803F31F40E94A11981958093DA0108959B
:10345000813F19F40E94A119F8CF823F31F40E94F4
:10346000A11981958093D9010895833F19F40E9491
:10347000A119F8CF893F29F40E94E9198093DB0153
:1034800008958A3F21F40E94E9198195F7CF8B3F77
:1034900031F40E94E91981958093DC0108958C3FF5
:1034A00019F40E94E919F8CF843F31F48091D801D2
:1034B00081608093D8010895853F21F48091D801DF
:1034C0008260F7CF863F21F48091D8018460F1CFEC
:1034D000873F21F48091D8018860EBCF883F21F4A9
:1034E0008091D8018061E5CF8D3F31F48091D60184
:1034F00081608093D60108958E3F21F48091D6019A
:103500008260F7CF8F3FB9F78091D6018460F1CF09
:10351000803FC1F48091DA0187FD1092DA01809139
:10352000D90181110EC08091DA0181110AC0809108
:10353000DB01811106C08091DC01811102C0109273
:10354000D7010895813F29F48091DA0118162CF3F0
:10355000E6CF9091D901823F29F497FFE0CF1092F6
:10356000D901DDCF833F19F41916CCF3D8CF893FA9
:1035700039F48091DB01181694F61092DB01CFCF5D
:103580008A3F29F48091DB0187FFC9CFF6CF8B3FBB
:1035900039F48091DC0187FFC2CF1092DC01BFCFEC
:1035A0008C3F29F48091DC011816BCF3B8CF843F1E
:1035B00031F48091D8018E7F8093D801B0CF853FC0
:1035C00021F48091D8018D7FF7CF863F21F480913F
:1035D000D8018B7FF1CF873F21F48091D801877F7D
:1035E000EBCF883F21F48091D8018F7EE5CF8D3FCE
:1035F00031F48091D6018E7F8093D60190CF8E3F9B
:1036000021F48091D6018D7FF7CF8F3F09F087CFCE
:103610008091D6018B7FF0CF8091D20183FF7EC055
:103620008FE792E00E94F8058091D8011F928F9356
:103630008AE792E09F938F930E94910688E792E039
:103640000E94F8058091D901282F082E000C330B19
:103650003F938F9385E792E09F938F930E9491060B
:1036600083E792E00E94F8058091DA01282F082E66
:10367000000C330B3F938F9380E792E09F938F93DF
:103680000E9491068EE692E00E94F8058091DB018F
:10369000282F082E000C330B3F938F938BE692E07C
:1036A0009F938F930E94910689E692E00E94F8050D
:1036B0008091DC01282F082E000C330B3F938F9351
:1036C00086E692E09F938F930E94910683E692E0B4
:1036D0000E94F8058091D7011F928F9380E692E0B7
:1036E0009F938F930E9491068EE592E00E94F805C9
:1036F0008091D6011F928F938BE592E09F938F93D9
:103700000E94910688E592E00E94F8058DB79EB769
:103710004C960FB6F8949EBF0FBE8DBF88ED91E01A
:103720000E94720C0E94FE189093D5018093D401E0
:1037300008951F93CF93DF938091D4019091D50189
:103740000E941619AC019091D7019923D1F02091D4
:10375000060130E04217530780F08091D901C091F3
:10376000DA01D091DB011091DC01811111C0C1118E
:1037700068C0D11166C0111164C0DF91CF911F9153
:103780000895209107018AE0289F90011124E2CF3B
:103790009F3F19F09F5F9093D701181624F40E9461
:1037A000A1198093D9018091D90187FF05C00E949A
:1037B000A11981958093D9011C1624F40E94A119A6
:1037C0008093DA018091DA0187FF05C00E94A11978
:1037D00081958093DA014091D901442379F03091A9
:1037E000DA01332359F025EB4203A0011124509351
:1037F000D9013203900111243093DA011D1624F40B
:103800000E94E9198093DB018091DB0187FF05C0ED
:103810000E94E91981958093DB01111624F40E941E
:10382000E9198093DC018091DC0187FF05C00E94CB
:10383000E91981958093DC01DF91CF911F910C9460
:103840000C1B9F3F09F0A6CFB7CFE8EDF1E085E074
:10385000DF011D928A95E9F71092D7011092D601E7
:10386000089582EA94E00E94F8051F9281E08F9308
:103870001F9285E08F9384E594E09F938F930E943D
:1038800091060F900F900F900F900F900F9008954A
:10389000833009F445C028F4813061F0823049F169
:1038A0000895853009F46AC008F451C0863009F4DF
:1038B0007CC0089580910701262F30E0280F311D2C
:1038C0002F3F310594F4680F609307018091070141
:1038D0001F928F938DE893E09F938F930E949106A0
:1038E0000F900F900F900F9008958FEF8093070126
:1038F000EDCF80910601262F30E0280F311D2F3F9C
:10390000310554F4680F60930601809106011F92FF
:103910008F938BE793E0E0CF8FEF80930601F5CF95
:1039200080910501262F30E0280F311D2F3F3105F2
:1039300054F4680F60930501809105011F928F93E5
:1039400088E693E0C9CF8FEF80930501F5CF809192
:103950000401262F30E0280F311D2F3F310554F48C
:10396000680F60930401809104011F928F9383E597
:1039700093E0B2CF8FEF80930401F5CF80910301E4
:10398000262F30E0280F311D2F3F310554F4680FEA
:1039900060930301809103011F928F938AE393E068
:1039A0009BCF8FEF80930301F5CF20910201862FEB
:1039B00090E0820F911D8F3F910554F4620F609348
:1039C0000201809102011F928F938FE193E084CFD7
:1039D0008FEF80930201F5CF8330C9F128F4813055
:1039E00061F0823019F10895853009F452C008F46D
:1039F0003FC0863009F45EC00895809107016817C2
:103A000090F4861B80930701809107011F928F938A
:103A100080E193E09F938F930E9491060F900F9007
:103A20000F900F90089510920701EECF809106013C
:103A3000681750F4861B80930601809106011F923F
:103A40008F938EEF92E0E6CF10920601F6CF809131
:103A50000501681750F4861B8093050180910501CC
:103A60001F928F938BEE92E0D5CF10920501F6CF87
:103A700080910401681750F4861B809304018091A3
:103A800004011F928F9386ED92E0C4CF109204013F
:103A9000F6CF80910301681750F4861B80930301D1
:103AA000809103011F928F938DEB92E0B3CF109220
:103AB0000301F6CF80910201681750F4861B8093B2
:103AC0000201809102011F928F9382EA92E0A2CFBD
:103AD00010920201F6CFCF93C82F1F928F9387EADF
:103AE00095E09F938F930E94910661E070E080E0E3
:103AF00090E004C0660F771F881F991FCA95D2F700
:103B00000E94F2150F900F900F900F90CF910C9490
:103B1000F011873208F046C08E3108F004C18E30B3
:103B200009F49DC078F4873009F47EC08B3009F425
:103B300064C0863009F466C082EE98E00E94F80501
:103B400080E00895863109F4B7C090F48031A1F780
:103B50008091D20183FB992790F921E0922790FB75
:103B600083F98093D20183FF8DC081EF98E014C068
:103B7000893109F48AC08B31F9F68091D20181FB39
:103B8000992790F921E0922790FB81F98093D20147
:103B900081FF62C08AE299E00E94F8058091D2011B
:103BA000816057C0883349F140F4893221F0853370
:103BB00011F0873209F680E007C08334E1F338F46E
:103BC0008A3308F4B9CF89530E946B1D14C088341E
:103BD00009F0B2CF0E94F01180E599E00E94F8054B
:103BE0002FEF83ED90E3215080409040E1F700C03B
:103BF00000000E94661981E0089586E597E00E9422
:103C0000F805F9CF8091D201817F8E7F8093D20118
:103C10008FE297E00E94F8058CE699E00E94F80593
:103C200081E08093DE0108958091D201982F9095D4
:103C300090FB80F98093D20180FF03C084E499E077
:103C4000DECF87E399E00E94F8058091D201897F59
:103C5000877F8093D201CFCF8CE199E0D0CF809144
:103C6000D20182FB992790F921E0922790FB82F9FB
:103C70008093D20182FF03C08DE099E08DCF8DEF5C
:103C800098E0BDCF84EE98E0BACF80E297E00E9442
:103C9000F80582EF96E00E94F8058EEA96E00E9411
:103CA000F80585E796E00E94F80580E496E00E941A
:103CB000F80585E196E0A3CF87E096E00E94F8053D
:103CC0000E941E0C1F928F938DEE95E09F938F9311
:103CD0000E949106809112011F928F9386ED95E0CC
:103CE0009F938F930E9491068091EB011F928F9377
:103CF00083EC95E09F938F930E9491060E940A198E
:103D00009F938F937F936F938CEA95E09F938F930C
:103D10000E9491068DB79EB742960FB6F8949EBF4B
:103D20000FBE8DBF68CF8D514FCF80E008950C94AA
:103D3000951E8E518A3030F4E82FF0E0E85DFE4F9A
:103D40008081089580E00895CF93C82F8091DE018F
:103D50008130D1F038F0823009F44DC01092DE018C
:103D600080E010C0E0910001F09101018081823279
:103D7000B9F78C2F0E94971E81111EC08C2F0E94B4
:103D8000891D8170CF910895E0910001F0910101AA
:103D90008081823271F38C2F0E94951E81111BC08D
:103DA000C431D9F060F4CB3071F0C031D1F08DE97D
:103DB00095E00E94F80513C081E090E0E2CFC9329F
:103DC00061F0C833A1F78FE297E00E94F80583EA1B
:103DD00095E00E94F80581E0D4CF1092DE0180E0EA
:103DE000D0CF0E94311C8FE995E00E94F80582E057
:103DF0008093DE01F0CFC432C8F4CE3108F0BEC0EB
:103E0000CB30E1F040F4C73009F4CCC081E494E059
:103E10000E94F80526C0C331C1F1C431B9F78091C1
:103E2000DD01882351F11092DD010AC0CB3409F481
:103E3000B7C0C8F4C93299F3C83341F70E94311CA6
:103E40008091DD01882309F4C4C01F928F938BE316
:103E500094E09F938F930E9491060F900F900F9084
:103E60000F9081E08FCFC13509F494C0C23509F4B9
:103E70008BC0CE3459F66AE08EC080E594E00E9493
:103E8000F80581E08093DE017DCF8AE294E00E9414
:103E9000F80588E194E00E94F805809107011F92DF
:103EA0008F9385E194E09F938F930E94910683E125
:103EB00094E00E94F80581E094E00E94F80580916A
:103EC00006011F928F938EEF93E09F938F930E9432
:103ED00091068CEF93E00E94F8058DEE93E00E942E
:103EE000F805809105011F928F938AEE93E09F93CE
:103EF0008F930E94910688EE93E00E94F80587ED6B
:103F000093E00E94F805809104011F928F9384ED45
:103F100093E09F938F930E94910682ED93E00E941D
:103F2000F8058DEB93E00E94F805809103011F9244
:103F30008F938AEB93E09F938F930E94910688EB77
:103F400093E00E94F80581EA93E00E94F8058091D1
:103F500002011F928F938EE993E09F938F930E94AB
:103F600091068CE993E00E94F8058DB79EB74896BC
:103F70000FB6F8949EBF0FBE8DBF62CF8C2F0E94EC
:103F8000991E8093DD015CCF61E08091DD010E948C
:103F9000481C56CF61E08091DD010E94EC1C50CF9F
:103FA0006AE0F3CF8EE18093070182E380930601FC
:103FB0008AE08093050184E18093040188E0809386
:103FC000030188E28093020183E494E00E94F805F3
:103FD00037CF88E394E01CCF8091EA0108959FB722
:103FE000F8941092E1019FBF9091F901943009F08B
:103FF00049C02091E9002F709091EC0090FD30C0F5
:1040000090E0922B24E02093E9002091EB0020FF28
:1040100036C02091EE0027FF32C02091DF0122231D
:1040200021F02091E80025FF2AC01092DF0126E050
:104030003091E80035FF16C08093F1008091E800D0
:1040400085FD29C08091E80080FFFCCF8091E800C9
:104050008E778093E8009F709093E90080E0089548
:1040600090E8CFCF3091F901343049F43091EB0032
:1040700035FD05C0215041F481E08093DF019F7040
:104080009093E9008FEF0895EFE9FFE03197F1F7A2
:1040900000C00000CDCF8FB7F89421E02093E1015C
:1040A0008FBFD9CF0F931F93CF93DF9300D01F9271
:1040B000CDB7DEB78C010E94F422823011F084303B
:1040C00019F583E089831B830A838093E9008FEFCE
:1040D0009091E800815095FD06C095ED9A95F1F715
:1040E00000008111F5CF8091E80085FF0DC040E010
:1040F00050E063E070E0CE0101960E9411238091B0
:10410000E8008E778093E8000F900F900F90DF917A
:10411000CF911F910F910895CF93DF9300D01F92FD
:10412000CDB7DEB72091F901243031F522E02983A3
:10413000805891099B838A8383E08093E9008FEF05
:104140009091E800815095FD06C095ED9A95F1F7A4
:1041500000008111F5CF8091E80085FF0DC040E09F
:1041600050E063E070E0CE0101960E94112380913F
:10417000E8008E778093E8000F900F900F90DF910A
:10418000CF910895CF93DF93EC010E94F422823007
:1041900011F08430F9F482E08093E9008FEF909180
:1041A000E800815095FD06C095ED9A95F1F7000065
:1041B0008111F5CF8091E80085FF0CC040E050E010
:1041C00065E070E0CE010E9411238091E8008E77B7
:1041D0008093E800DF91CF910895CF93DF93EC01B6
:1041E0000E94F422823011F0843039F581E080930E
:1041F000E9008FEF9091E800815095FD06C095EDA4
:104200009A95F1F700008111F5CF8091E80085FFC4
:1042100014C040E050E068E070E0CE010E9411233D
:104220008091E8008E778093E80088E0FE01A2EE9E
:10423000B1E001900D928A95E1F7DF91CF91089559
:1042400085E999E00E94F8058091F801811109C083
:104250000E949E240E94FB248091E200846080934F
:10426000E200089581E999E00E94F8051092F801B2
:1042700008958DE899E00C94F80589E899E00C948C
:10428000F80585E899E00E94F8050C94C61820917D
:10429000E0012F5F822F62E30E94A227992319F089
:1042A0002093E00108951092E0018091E1018823BC
:1042B000E9F08091F9018430B9F49091E9009F70A0
:1042C0008091EC0080FD13C080E0892B94E09093F6
:1042D000E9009091EB0090FF04C09091EE0097FDF3
:1042E0000AC08F708093E9001092E101089580E880
:1042F000ECCF1092F1009091E80095FDFACF9091EB
:10430000E80090FFEECF9091E8009E779093E80050
:10431000E8CF42E061EC81E00E941B2442E061ECC6
:1043200082E00E941B2442E061EC83E00E941B2497
:1043300042E261EC84E00C941B248091FB01833009
:1043400009F452C030F4813059F1823009F48EC042
:1043500008958A3009F47AC08B3009F460C089303E
:1043600009F041C08091FA018132E9F58091FE01A6
:104370009091FF01892BB9F58091E800877F8093A8
:10438000E8008091E80082FF2AC08091F1008093CC
:10439000EA018091E8008B778093E8000C94502428
:1043A0008091FA01813AF9F48091E800877F809347
:1043B000E8008091FE019091FF01892B61F468E093
:1043C00082EE91E070E00E9460238091E8008B779C
:1043D0008093E800089560E080E090E0F3CF809162
:1043E000F9018111CECF08958091FA01813AD9F770
:1043F0008091FE019091FF01892BA9F78091E8003F
:10440000877F8093E8008091E80080FFFCCF809157
:1044100012018093F1008091E8008E77BDCF8091EA
:10442000FA01813201F78091FE019091FF01892B01
:10443000D1F68091E800877F8093E8000E945024A5
:104440008091FC01809312010C94F0118091FA018B
:10445000813249F68091E800877F8093E8000E94CE
:1044600050248091FD018093EB0108958091FA0121
:10447000813A09F0B8CF8091E800877F8093E80007
:104480008091E80080FFFCCF8091EB01C2CF84B720
:10449000877F84BF0FB6F894A895809160008861EB
:1044A00080936000109260000FBE80E880936100EE
:1044B000109261000E94AA0C0E949E240E94FB247C
:1044C0008091E20084608093E2008FEE9FE10E9481
:1044D000DD1778940E9486270E94AE0C88E091E058
:1044E0000E94190C84E799E00E94F8058091F90177
:1044F000853019F00E94DC0CF9CF80E799E00E942A
:10450000F8050E9482188091F701882379F30E94B0
:10451000B118882359F30E94FB22E8CF292F3327B3
:104520002330310579F158F421303105F1F0223092
:10453000310519F180E090E020E030E01AC021322E
:10454000310599F122323105A9F76430710590F7F0
:10455000FB01EE0FFF1FEA5CFE4F208131816E5C94
:104560007E4FFB01808190E004C082E190E02FE467
:104570003AE0FA0131832083089584E790E02BED3F
:1045800039E0F7CF99278130910561F028F0029743
:1045900089F6E9E9F9E002C0E7EDF9E0849190E0FD
:1045A0009F01E7CFE5EBF9E0F9CF6430710508F042
:1045B000C1CF660F771FFB01E25CFE4F2081318186
:1045C00089E090E0D6CF0895CF93C82F0E94E322D0
:1045D000C093EC01CF9108958091F901843011F0DE
:1045E00081E0089582E008958091EC01811102C07C
:1045F0000C94EC22089580E189BD82E189BD09B463
:1046000000FEFDCF8091D8008F7D8093D8008091EF
:10461000E00082608093E0008091E00081FDFCCFAB
:104620000895AF92BF92DF92EF92FF920F931F9384
:10463000CF93DF93EC018B017A010E946F24D82E77
:10464000811124C0E114F10439F0F70180819181D6
:10465000081B190BC80FD91FA12CB12C011511056E
:10466000A9F08091E80085FD22C08091E8008E7756
:104670008093E800E114F104A1F0F70180819181B9
:10468000A80EB91EB182A08285E0D82E8D2DDF91B3
:10469000CF911F910F91FF90EF90DF90BF90AF905F
:1046A00008950E946F248823C9F2D82EEFCF8991F4
:1046B0008093F10001501109FFEFAF1ABF0ACECF6E
:1046C000209100023091010226173707A8F06115EA
:1046D000710529F42091E8002E772093E800FC0171
:1046E00020E06115710551F4211108C08091E800A6
:1046F00082FF33C080E00895B901F1CF8091F901C4
:104700008823B9F18530B9F18091E80083FD2FC08D
:104710008091E80082FDEACF8091E80080FFE1CF40
:104720002091F3008091F20090E0922B61157105C9
:1047300019F08830910550F021E0089709F020E049
:104740008091E8008E778093E800CBCF2191209371
:10475000F100615071090196E9CF8091F901882338
:1047600041F0853041F08091E80083FFBFCF81E0C8
:10477000089582E0089583E0089520910002309129
:10478000010226173707A8F06115710529F4209159
:10479000E8002E772093E800FC0120E06115710508
:1047A00051F4211108C08091E80082FF34C080E0FC
:1047B0000895B901F1CF8091F9018823C1F18530C5
:1047C000C1F18091E80083FD30C08091E80082FD56
:1047D000EACF8091E80080FFE1CF2091F300809143
:1047E000F20090E0922B6115710519F08830910567
:1047F00050F021E0089709F020E08091E8008E77E2
:104800008093E800CBCF24912093F1003196615042
:1048100071090196E8CF8091F901882341F0853034
:1048200041F08091E80083FFBECF81E0089582E0EF
:10483000089583E00895982F973028F08F70809323
:10484000E90081E008959093E900981751F0709184
:10485000EC002091ED005091F00021FD06C09F5F1B
:10486000EBCF242F762F50E0F8CF3091EB003E7F36
:104870003093EB003091ED003D7F3093ED003091AF
:10488000EB0031603093EB007093EC002093ED006F
:104890005093F0002091EE0027FDE1CF80E00895D5
:1048A0008091FA0187FF13C08091E80082FF06C063
:1048B0008091E8008B778093E80004C08091F90133
:1048C0008111F2CF08958091F9018823D9F3809165
:1048D000E80080FFF8CF8091E8008E77ECCF209140
:1048E000E4003091E50085E69091EC0090FD20C059
:1048F0009091E80092FD20C09091F901992391F0E8
:10490000953091F09091EB0095FD10C04091E4003E
:104910005091E5004217530739F381509A0121F76E
:1049200084E0089582E0089583E0089581E0089589
:104930009091E80090FFE0CF80E008950E940C2560
:104940000E941425E0EEF0E0808181608083E8ED34
:10495000F0E080818F77808319BCA7EDB0E08C9167
:104960008E7F8C9380818F7E80831092F8010895D2
:104970000F931F93CF93DF930E940C250E94142561
:10498000C8EDD0E088818F778883888180688883AC
:1049900088818F7D888319BC1092F9011092F501EE
:1049A0001092F7011092F60100EE10E0F8018081FC
:1049B0008B7F808388818160888342E060E080E033
:1049C0000E941B24E1EEF0E080818E7F8083E2EE86
:1049D000F0E0808181608083808188608083F8013D
:1049E00080818E7F8083888180618883DF91CF91F1
:1049F0001F910F910895E8EDF0E080818F7E808314
:104A0000E7EDF0E080818160808384E082BF81E017
:104A10008093F8010C94B824E8EDF0E080818E7F5B
:104A200080831092E20008951092DA001092E10063
:104A300008951F920F920FB60F9211242F933F9358
:104A40004F935F936F937F938F939F93AF93BF9396
:104A5000EF93FF938091E10082FF0BC08091E20011
:104A600082FF07C08091E1008B7F8093E1000E946C
:104A700047218091DA0080FF19C08091D80080FF23
:104A800015C08091DA008E7F8093DA008091D90082
:104A900080FF94C080E189BD82E189BD09B400FE38
:104AA000FDCF81E08093F9010E9420218091E100F7
:104AB00080FF19C08091E20080FF15C08091E20064
:104AC0008E7F8093E2008091E20080618093E2001B
:104AD0008091D80080628093D80019BC85E08093D3
:104AE000F9010E943D218091E10084FF29C080915D
:104AF000E20084FF25C080E189BD82E189BD09B45F
:104B000000FEFDCF8091D8008F7D8093D8008091EA
:104B1000E1008F7E8093E1008091E2008F7E8093A0
:104B2000E2008091E20081608093E2008091F501D3
:104B3000882309F449C084E08093F9010E9441214F
:104B40008091E10083FF29C08091E20083FF25C0AE
:104B50008091E100877F8093E10082E08093F901FA
:104B60001092F5018091E1008E7F8093E1008091A9
:104B7000E2008E7F8093E2008091E200806180936A
:104B8000E20042E060E080E00E941B248091F0009F
:104B900088608093F0000E943921FF91EF91BF91CE
:104BA000AF919F918F917F916F915F914F913F91C5
:104BB0002F910F900FBE0F901F90189519BC109257
:104BC000F9010E94322172CF8091E30087FD02C07B
:104BD00081E0B2CF83E0B0CF1F920F920FB60F9259
:104BE00011242F933F934F935F936F937F938F93F2
:104BF0009F93AF93BF93CF93EF93FF93C091E9003F
:104C0000CF708091EC001092E9008091F000877FD6
:104C10008093F00078940E9428261092E9008091F9
:104C2000F00088608093F000C093E900FF91EF915D
:104C3000CF91BF91AF919F918F917F916F915F9134
:104C40004F913F912F910F900FBE0F901F9018958D
:104C50001F93CF93DF93CDB7DEB7AA970FB6F89423
:104C6000DEBF0FBECDBFEAEFF1E08091F10081938E
:104C700022E0E230F207C9F70E949D218091E8000E
:104C800083FF46C08091FA019091FB01492F50E0CB
:104C90004A30510508F03CC0FA01EF5AF94D0C9426
:104CA000C2275B268126882681268826DF260227C2
:104CB000882659276627803889F0823849F58091FF
:104CC000FE018F70873020F58093E9008091EB0022
:104CD00085FB882780F91092E90006C08091F601D3
:104CE0009091F701911182609091E800977F9093E5
:104CF000E8008093F1001092F1008091E8008E7737
:104D00002DC0282F2D7F21F48823D1F0823059F136
:104D10008091E80083FF0AC08091E800877F80933C
:104D2000E8008091EB0080628093EB00AA960FB6BA
:104D3000F894DEBF0FBECDBFDF91CF911F910895D4
:104D40008091FC01813021F7933009F080E080935D
:104D5000F7011092E9008091E800877F8093E800D6
:104D60000E945024D5CF8091FC018111F2CF809117
:104D7000FE018F702FEF280F263050F68093E90048
:104D80002091EB0020FFE5CF933031F48091EB00D0
:104D900080628093EB00DDCF9091EB009061909367
:104DA000EB0021E030E001C0220F8A95EAF7209362
:104DB000EA001092EA008091EB008860EACF81114E
:104DC000A7CF1091FC011F778091E3008078812BA1
:104DD0008093E3008091E800877F8093E8000E9441
:104DE00050248091E80080FFFCCF8091E300806830
:104DF0008093E300111104C082E08093F90188CF11
:104E000083E0FBCF8058823008F082CF8091FC0194
:104E10009091FD018C3D23E09207A1F583E08A8308
:104E20008AE289834FB7F894DE01139620E03EE0D2
:104E300051E2E32FF0E050935700E49120FF03C0CC
:104E4000E295EF703F5FEF708E2F90E0EA30C0F098
:104E5000C7968D939D932F5F243159F74FBF809153
:104E6000E800877F8093E8006AE270E0CE01019657
:104E70000E9460238091E8008B778093E80048CF00
:104E8000C096E7CF6091FE017091FF01AE014F5FC8
:104E90005F4F0E948E22BC01892B09F439CF90917B
:104EA000E800977F9093E80089819A810E94BD2352
:104EB000E1CF803809F02CCF8091E800877F809384
:104EC000E8008091F5018093F10017CF811120CF88
:104ED0009091FC01923008F01BCF8091E800877F11
:104EE0008093E8009093F5010E9450248091F50191
:104EF000882311F084E005C08091E30087FDFACF9C
:104F000081E08093F9010E94892102CFCF938091A3
:104F1000F901882399F0C091E900CF708091EC00ED
:104F200080FD0EC080E0C82B1092E9008091E8005F
:104F300083FD0E942826CF70C093E900CF91089589
:104F400080E8F1CF991B79E004C0991F961708F00B
:104F5000961B881F7A95C9F78095089597FB072EB1
:104F600016F4009407D077FD09D00E94C82707FCEB
:104F700005D03EF4909581959F4F08957095619569
:104F80007F4F0895EE0FFF1F0590F491E02D0994D7
:104F9000AA1BBB1B51E107C0AA1FBB1FA617B7075F
:104FA00010F0A61BB70B881F991F5A95A9F780957B
:104FB0009095BC01CD010895F999FECF92BD81BDB8
:104FC000F89A992780B50895A8E1B0E042E050E052
:104FD0000C940428262FF999FECF92BD81BDF89A32
:104FE000019700B4021639F01FBA20BD0FB6F8942D
:104FF000FA9AF99A0FBE08950196272F0E94EB277F
:105000000C94EA27DC01CB01FC01F999FECF06C024
:10501000F2BDE1BDF89A319600B40D924150504076
:08502000B8F70895F894FFCFE2
:10502800C7012808140A321EEC1FED20C2208C206C
:10503800522001F0F43534979630313392379091FD
:10504800936667F1F5F6F7360102030405060708CB
:105058000900404D3622060BB90A830A610AED0998
:06506800060A1F0A380AC7
:00000001FF
